{
	"contracts/projects/tweeter-smart-contract.sol": {
		"Tweetcontract": {
			"abi": [
				{
					"inputs": [
						{
							"internalType": "address",
							"name": "_operator",
							"type": "address"
						}
					],
					"name": "allow",
					"outputs": [],
					"stateMutability": "nonpayable",
					"type": "function"
				},
				{
					"inputs": [
						{
							"internalType": "address",
							"name": "",
							"type": "address"
						},
						{
							"internalType": "uint256",
							"name": "",
							"type": "uint256"
						}
					],
					"name": "conversations",
					"outputs": [
						{
							"internalType": "uint256",
							"name": "id",
							"type": "uint256"
						},
						{
							"internalType": "string",
							"name": "content",
							"type": "string"
						},
						{
							"internalType": "address",
							"name": "from",
							"type": "address"
						},
						{
							"internalType": "address",
							"name": "to",
							"type": "address"
						},
						{
							"internalType": "uint256",
							"name": "createdAt",
							"type": "uint256"
						}
					],
					"stateMutability": "view",
					"type": "function"
				},
				{
					"inputs": [
						{
							"internalType": "address",
							"name": "_operator",
							"type": "address"
						}
					],
					"name": "disallow",
					"outputs": [],
					"stateMutability": "nonpayable",
					"type": "function"
				},
				{
					"inputs": [
						{
							"internalType": "address",
							"name": "_followed",
							"type": "address"
						}
					],
					"name": "follow",
					"outputs": [],
					"stateMutability": "nonpayable",
					"type": "function"
				},
				{
					"inputs": [
						{
							"internalType": "address",
							"name": "",
							"type": "address"
						},
						{
							"internalType": "uint256",
							"name": "",
							"type": "uint256"
						}
					],
					"name": "following",
					"outputs": [
						{
							"internalType": "address",
							"name": "",
							"type": "address"
						}
					],
					"stateMutability": "view",
					"type": "function"
				},
				{
					"inputs": [
						{
							"internalType": "address",
							"name": "_user",
							"type": "address"
						},
						{
							"internalType": "uint256",
							"name": "count",
							"type": "uint256"
						}
					],
					"name": "getLatestToUser",
					"outputs": [
						{
							"components": [
								{
									"internalType": "uint256",
									"name": "id",
									"type": "uint256"
								},
								{
									"internalType": "address",
									"name": "author",
									"type": "address"
								},
								{
									"internalType": "string",
									"name": "content",
									"type": "string"
								},
								{
									"internalType": "uint256",
									"name": "createdAt",
									"type": "uint256"
								}
							],
							"internalType": "struct Tweetcontract.Tweet[]",
							"name": "",
							"type": "tuple[]"
						}
					],
					"stateMutability": "view",
					"type": "function"
				},
				{
					"inputs": [
						{
							"internalType": "uint256",
							"name": "count",
							"type": "uint256"
						}
					],
					"name": "getLatestTweets",
					"outputs": [
						{
							"components": [
								{
									"internalType": "uint256",
									"name": "id",
									"type": "uint256"
								},
								{
									"internalType": "address",
									"name": "author",
									"type": "address"
								},
								{
									"internalType": "string",
									"name": "content",
									"type": "string"
								},
								{
									"internalType": "uint256",
									"name": "createdAt",
									"type": "uint256"
								}
							],
							"internalType": "struct Tweetcontract.Tweet[]",
							"name": "",
							"type": "tuple[]"
						}
					],
					"stateMutability": "view",
					"type": "function"
				},
				{
					"inputs": [
						{
							"internalType": "address",
							"name": "",
							"type": "address"
						},
						{
							"internalType": "address",
							"name": "",
							"type": "address"
						}
					],
					"name": "operators",
					"outputs": [
						{
							"internalType": "bool",
							"name": "",
							"type": "bool"
						}
					],
					"stateMutability": "view",
					"type": "function"
				},
				{
					"inputs": [
						{
							"internalType": "address",
							"name": "_from",
							"type": "address"
						},
						{
							"internalType": "address",
							"name": "_to",
							"type": "address"
						},
						{
							"internalType": "string",
							"name": "_content",
							"type": "string"
						}
					],
					"name": "sendMessage",
					"outputs": [],
					"stateMutability": "nonpayable",
					"type": "function"
				},
				{
					"inputs": [
						{
							"internalType": "string",
							"name": "_content",
							"type": "string"
						},
						{
							"internalType": "address",
							"name": "_to",
							"type": "address"
						}
					],
					"name": "sendMessage",
					"outputs": [],
					"stateMutability": "nonpayable",
					"type": "function"
				},
				{
					"inputs": [
						{
							"internalType": "address",
							"name": "_from",
							"type": "address"
						},
						{
							"internalType": "string",
							"name": "_content",
							"type": "string"
						}
					],
					"name": "tweet",
					"outputs": [],
					"stateMutability": "nonpayable",
					"type": "function"
				},
				{
					"inputs": [
						{
							"internalType": "string",
							"name": "_content",
							"type": "string"
						}
					],
					"name": "tweet",
					"outputs": [],
					"stateMutability": "nonpayable",
					"type": "function"
				},
				{
					"inputs": [
						{
							"internalType": "uint256",
							"name": "",
							"type": "uint256"
						}
					],
					"name": "tweets",
					"outputs": [
						{
							"internalType": "uint256",
							"name": "id",
							"type": "uint256"
						},
						{
							"internalType": "address",
							"name": "author",
							"type": "address"
						},
						{
							"internalType": "string",
							"name": "content",
							"type": "string"
						},
						{
							"internalType": "uint256",
							"name": "createdAt",
							"type": "uint256"
						}
					],
					"stateMutability": "view",
					"type": "function"
				},
				{
					"inputs": [
						{
							"internalType": "address",
							"name": "",
							"type": "address"
						},
						{
							"internalType": "uint256",
							"name": "",
							"type": "uint256"
						}
					],
					"name": "tweetsOf",
					"outputs": [
						{
							"internalType": "uint256",
							"name": "",
							"type": "uint256"
						}
					],
					"stateMutability": "view",
					"type": "function"
				}
			],
			"devdoc": {
				"kind": "dev",
				"methods": {},
				"version": 1
			},
			"evm": {
				"assembly": "    /* \"contracts/projects/tweeter-smart-contract.sol\":63:3036  contract Tweetcontract{... */\n  mstore(0x40, 0x80)\n  callvalue\n  dup1\n  iszero\n  tag_1\n  jumpi\n  revert(0x00, 0x00)\ntag_1:\n  pop\n  dataSize(sub_0)\n  dup1\n  dataOffset(sub_0)\n  0x00\n  codecopy\n  0x00\n  return\nstop\n\nsub_0: assembly {\n        /* \"contracts/projects/tweeter-smart-contract.sol\":63:3036  contract Tweetcontract{... */\n      mstore(0x40, 0x80)\n      callvalue\n      dup1\n      iszero\n      tag_1\n      jumpi\n      revert(0x00, 0x00)\n    tag_1:\n      pop\n      jumpi(tag_2, lt(calldatasize, 0x04))\n      shr(0xe0, calldataload(0x00))\n      dup1\n      0xb88e318d\n      gt\n      tag_17\n      jumpi\n      dup1\n      0xd3ee001d\n      gt\n      tag_18\n      jumpi\n      dup1\n      0xd3ee001d\n      eq\n      tag_13\n      jumpi\n      dup1\n      0xe8d857b0\n      eq\n      tag_14\n      jumpi\n      dup1\n      0xfb46d4c5\n      eq\n      tag_15\n      jumpi\n      dup1\n      0xff9913e8\n      eq\n      tag_16\n      jumpi\n      jump(tag_2)\n    tag_18:\n      dup1\n      0xb88e318d\n      eq\n      tag_10\n      jumpi\n      dup1\n      0xc48d6d5e\n      eq\n      tag_11\n      jumpi\n      dup1\n      0xd21d1596\n      eq\n      tag_12\n      jumpi\n      jump(tag_2)\n    tag_17:\n      dup1\n      0x4dc0a687\n      gt\n      tag_19\n      jumpi\n      dup1\n      0x4dc0a687\n      eq\n      tag_6\n      jumpi\n      dup1\n      0x9139cda5\n      eq\n      tag_7\n      jumpi\n      dup1\n      0xa9ed9cb8\n      eq\n      tag_8\n      jumpi\n      dup1\n      0xaf22bf94\n      eq\n      tag_9\n      jumpi\n      jump(tag_2)\n    tag_19:\n      dup1\n      0x2637588e\n      eq\n      tag_3\n      jumpi\n      dup1\n      0x3befea09\n      eq\n      tag_4\n      jumpi\n      dup1\n      0x4dbf27cc\n      eq\n      tag_5\n      jumpi\n    tag_2:\n      revert(0x00, 0x00)\n        /* \"contracts/projects/tweeter-smart-contract.sol\":500:557  mapping(address=>mapping(address=>bool)) public operators */\n    tag_3:\n      tag_20\n      0x04\n      dup1\n      calldatasize\n      sub\n      dup2\n      add\n      swap1\n      tag_21\n      swap2\n      swap1\n      tag_22\n      jump\t// in\n    tag_21:\n      tag_23\n      jump\t// in\n    tag_20:\n      mload(0x40)\n      tag_24\n      swap2\n      swap1\n      tag_25\n      jump\t// in\n    tag_24:\n      mload(0x40)\n      dup1\n      swap2\n      sub\n      swap1\n      return\n        /* \"contracts/projects/tweeter-smart-contract.sol\":445:493  mapping(address=>Message[]) public conversations */\n    tag_4:\n      tag_26\n      0x04\n      dup1\n      calldatasize\n      sub\n      dup2\n      add\n      swap1\n      tag_27\n      swap2\n      swap1\n      tag_28\n      jump\t// in\n    tag_27:\n      tag_29\n      jump\t// in\n    tag_26:\n      mload(0x40)\n      tag_30\n      swap6\n      swap5\n      swap4\n      swap3\n      swap2\n      swap1\n      tag_31\n      jump\t// in\n    tag_30:\n      mload(0x40)\n      dup1\n      swap2\n      sub\n      swap1\n      return\n        /* \"contracts/projects/tweeter-smart-contract.sol\":1556:1654  function follow(address _followed) public {... */\n    tag_5:\n      tag_32\n      0x04\n      dup1\n      calldatasize\n      sub\n      dup2\n      add\n      swap1\n      tag_33\n      swap2\n      swap1\n      tag_34\n      jump\t// in\n    tag_33:\n      tag_35\n      jump\t// in\n    tag_32:\n      stop\n        /* \"contracts/projects/tweeter-smart-contract.sol\":1886:2369  function getLatestTweets(uint count) public view returns(Tweet[] memory) {... */\n    tag_6:\n      tag_36\n      0x04\n      dup1\n      calldatasize\n      sub\n      dup2\n      add\n      swap1\n      tag_37\n      swap2\n      swap1\n      tag_38\n      jump\t// in\n    tag_37:\n      tag_39\n      jump\t// in\n    tag_36:\n      mload(0x40)\n      tag_40\n      swap2\n      swap1\n      tag_41\n      jump\t// in\n    tag_40:\n      mload(0x40)\n      dup1\n      swap2\n      sub\n      swap1\n      return\n        /* \"contracts/projects/tweeter-smart-contract.sol\":564:608  mapping(address=>address[]) public following */\n    tag_7:\n      tag_42\n      0x04\n      dup1\n      calldatasize\n      sub\n      dup2\n      add\n      swap1\n      tag_43\n      swap2\n      swap1\n      tag_28\n      jump\t// in\n    tag_43:\n      tag_44\n      jump\t// in\n    tag_42:\n      mload(0x40)\n      tag_45\n      swap2\n      swap1\n      tag_46\n      jump\t// in\n    tag_45:\n      mload(0x40)\n      dup1\n      swap2\n      sub\n      swap1\n      return\n        /* \"contracts/projects/tweeter-smart-contract.sol\":1769:1872  function disallow(address _operator) public {... */\n    tag_8:\n      tag_47\n      0x04\n      dup1\n      calldatasize\n      sub\n      dup2\n      add\n      swap1\n      tag_48\n      swap2\n      swap1\n      tag_34\n      jump\t// in\n    tag_48:\n      tag_49\n      jump\t// in\n    tag_47:\n      stop\n        /* \"contracts/projects/tweeter-smart-contract.sol\":398:438  mapping(address=>uint[]) public tweetsOf */\n    tag_9:\n      tag_50\n      0x04\n      dup1\n      calldatasize\n      sub\n      dup2\n      add\n      swap1\n      tag_51\n      swap2\n      swap1\n      tag_28\n      jump\t// in\n    tag_51:\n      tag_52\n      jump\t// in\n    tag_50:\n      mload(0x40)\n      tag_53\n      swap2\n      swap1\n      tag_54\n      jump\t// in\n    tag_53:\n      mload(0x40)\n      dup1\n      swap2\n      sub\n      swap1\n      return\n        /* \"contracts/projects/tweeter-smart-contract.sol\":1415:1548  function sendMessage(address _from, address _to, string memory _content) public {... */\n    tag_10:\n      tag_55\n      0x04\n      dup1\n      calldatasize\n      sub\n      dup2\n      add\n      swap1\n      tag_56\n      swap2\n      swap1\n      tag_57\n      jump\t// in\n    tag_56:\n      tag_58\n      jump\t// in\n    tag_55:\n      stop\n        /* \"contracts/projects/tweeter-smart-contract.sol\":1284:1407  function sendMessage(string memory _content, address _to) public {... */\n    tag_11:\n      tag_59\n      0x04\n      dup1\n      calldatasize\n      sub\n      dup2\n      add\n      swap1\n      tag_60\n      swap2\n      swap1\n      tag_61\n      jump\t// in\n    tag_60:\n      tag_62\n      jump\t// in\n    tag_59:\n      stop\n        /* \"contracts/projects/tweeter-smart-contract.sol\":1173:1276  function tweet(address _from, string memory _content) public {... */\n    tag_12:\n      tag_63\n      0x04\n      dup1\n      calldatasize\n      sub\n      dup2\n      add\n      swap1\n      tag_64\n      swap2\n      swap1\n      tag_65\n      jump\t// in\n    tag_64:\n      tag_66\n      jump\t// in\n    tag_63:\n      stop\n        /* \"contracts/projects/tweeter-smart-contract.sol\":2379:3027  function getLatestToUser(address _user, uint count) public view returns(Tweet[] memory) { ... */\n    tag_13:\n      tag_67\n      0x04\n      dup1\n      calldatasize\n      sub\n      dup2\n      add\n      swap1\n      tag_68\n      swap2\n      swap1\n      tag_28\n      jump\t// in\n    tag_68:\n      tag_69\n      jump\t// in\n    tag_67:\n      mload(0x40)\n      tag_70\n      swap2\n      swap1\n      tag_41\n      jump\t// in\n    tag_70:\n      mload(0x40)\n      dup1\n      swap2\n      sub\n      swap1\n      return\n        /* \"contracts/projects/tweeter-smart-contract.sol\":357:391  mapping(uint=>Tweet) public tweets */\n    tag_14:\n      tag_71\n      0x04\n      dup1\n      calldatasize\n      sub\n      dup2\n      add\n      swap1\n      tag_72\n      swap2\n      swap1\n      tag_38\n      jump\t// in\n    tag_72:\n      tag_73\n      jump\t// in\n    tag_71:\n      mload(0x40)\n      tag_74\n      swap5\n      swap4\n      swap3\n      swap2\n      swap1\n      tag_75\n      jump\t// in\n    tag_74:\n      mload(0x40)\n      dup1\n      swap2\n      sub\n      swap1\n      return\n        /* \"contracts/projects/tweeter-smart-contract.sol\":1072:1165  function tweet(string memory _content) public {... */\n    tag_15:\n      tag_76\n      0x04\n      dup1\n      calldatasize\n      sub\n      dup2\n      add\n      swap1\n      tag_77\n      swap2\n      swap1\n      tag_78\n      jump\t// in\n    tag_77:\n      tag_79\n      jump\t// in\n    tag_76:\n      stop\n        /* \"contracts/projects/tweeter-smart-contract.sol\":1662:1761  function allow(address _operator) public {... */\n    tag_16:\n      tag_80\n      0x04\n      dup1\n      calldatasize\n      sub\n      dup2\n      add\n      swap1\n      tag_81\n      swap2\n      swap1\n      tag_34\n      jump\t// in\n    tag_81:\n      tag_82\n      jump\t// in\n    tag_80:\n      stop\n        /* \"contracts/projects/tweeter-smart-contract.sol\":500:557  mapping(address=>mapping(address=>bool)) public operators */\n    tag_23:\n      mstore(0x20, 0x03)\n      dup2\n      0x00\n      mstore\n      mstore(0x20, keccak256(0x00, 0x40))\n      dup1\n      0x00\n      mstore\n      keccak256(0x00, 0x40)\n      0x00\n      swap2\n      pop\n      swap2\n      pop\n      swap1\n      sload\n      swap1\n      0x0100\n      exp\n      swap1\n      div\n      0xff\n      and\n      dup2\n      jump\t// out\n        /* \"contracts/projects/tweeter-smart-contract.sol\":445:493  mapping(address=>Message[]) public conversations */\n    tag_29:\n      mstore(0x20, 0x02)\n      dup2\n      0x00\n      mstore\n      keccak256(0x00, 0x40)\n      dup2\n      dup2\n      sload\n      dup2\n      lt\n      tag_83\n      jumpi\n      0x00\n      dup1\n      revert\n    tag_83:\n      swap1\n      0x00\n      mstore\n      keccak256(0x00, 0x20)\n      swap1\n      0x05\n      mul\n      add\n      0x00\n      swap2\n      pop\n      swap2\n      pop\n      pop\n      dup1\n      0x00\n      add\n      sload\n      swap1\n      dup1\n      0x01\n      add\n      dup1\n      sload\n      tag_85\n      swap1\n      tag_86\n      jump\t// in\n    tag_85:\n      dup1\n      0x1f\n      add\n      0x20\n      dup1\n      swap2\n      div\n      mul\n      0x20\n      add\n      mload(0x40)\n      swap1\n      dup2\n      add\n      0x40\n      mstore\n      dup1\n      swap3\n      swap2\n      swap1\n      dup2\n      dup2\n      mstore\n      0x20\n      add\n      dup3\n      dup1\n      sload\n      tag_87\n      swap1\n      tag_86\n      jump\t// in\n    tag_87:\n      dup1\n      iszero\n      tag_88\n      jumpi\n      dup1\n      0x1f\n      lt\n      tag_89\n      jumpi\n      0x0100\n      dup1\n      dup4\n      sload\n      div\n      mul\n      dup4\n      mstore\n      swap2\n      0x20\n      add\n      swap2\n      jump(tag_88)\n    tag_89:\n      dup3\n      add\n      swap2\n      swap1\n      0x00\n      mstore\n      keccak256(0x00, 0x20)\n      swap1\n    tag_90:\n      dup2\n      sload\n      dup2\n      mstore\n      swap1\n      0x01\n      add\n      swap1\n      0x20\n      add\n      dup1\n      dup4\n      gt\n      tag_90\n      jumpi\n      dup3\n      swap1\n      sub\n      0x1f\n      and\n      dup3\n      add\n      swap2\n    tag_88:\n      pop\n      pop\n      pop\n      pop\n      pop\n      swap1\n      dup1\n      0x02\n      add\n      0x00\n      swap1\n      sload\n      swap1\n      0x0100\n      exp\n      swap1\n      div\n      0xffffffffffffffffffffffffffffffffffffffff\n      and\n      swap1\n      dup1\n      0x03\n      add\n      0x00\n      swap1\n      sload\n      swap1\n      0x0100\n      exp\n      swap1\n      div\n      0xffffffffffffffffffffffffffffffffffffffff\n      and\n      swap1\n      dup1\n      0x04\n      add\n      sload\n      swap1\n      pop\n      dup6\n      jump\t// out\n        /* \"contracts/projects/tweeter-smart-contract.sol\":1556:1654  function follow(address _followed) public {... */\n    tag_35:\n        /* \"contracts/projects/tweeter-smart-contract.sol\":1609:1618  following */\n      0x04\n        /* \"contracts/projects/tweeter-smart-contract.sol\":1609:1630  following[msg.sender] */\n      0x00\n        /* \"contracts/projects/tweeter-smart-contract.sol\":1619:1629  msg.sender */\n      caller\n        /* \"contracts/projects/tweeter-smart-contract.sol\":1609:1630  following[msg.sender] */\n      0xffffffffffffffffffffffffffffffffffffffff\n      and\n      0xffffffffffffffffffffffffffffffffffffffff\n      and\n      dup2\n      mstore\n      0x20\n      add\n      swap1\n      dup2\n      mstore\n      0x20\n      add\n      0x00\n      keccak256\n        /* \"contracts/projects/tweeter-smart-contract.sol\":1636:1645  _followed */\n      dup2\n        /* \"contracts/projects/tweeter-smart-contract.sol\":1609:1646  following[msg.sender].push(_followed) */\n      swap1\n      dup1\n      0x01\n      dup2\n      sload\n      add\n      dup1\n      dup3\n      sstore\n      dup1\n      swap2\n      pop\n      pop\n      0x01\n      swap1\n      sub\n      swap1\n      0x00\n      mstore\n      keccak256(0x00, 0x20)\n      add\n      0x00\n      swap1\n      swap2\n      swap1\n      swap2\n      swap1\n      swap2\n      0x0100\n      exp\n      dup2\n      sload\n      dup2\n      0xffffffffffffffffffffffffffffffffffffffff\n      mul\n      not\n      and\n      swap1\n      dup4\n      0xffffffffffffffffffffffffffffffffffffffff\n      and\n      mul\n      or\n      swap1\n      sstore\n      pop\n        /* \"contracts/projects/tweeter-smart-contract.sol\":1556:1654  function follow(address _followed) public {... */\n      pop\n      jump\t// out\n        /* \"contracts/projects/tweeter-smart-contract.sol\":1886:2369  function getLatestTweets(uint count) public view returns(Tweet[] memory) {... */\n    tag_39:\n        /* \"contracts/projects/tweeter-smart-contract.sol\":1943:1957  Tweet[] memory */\n      0x60\n        /* \"contracts/projects/tweeter-smart-contract.sol\":1984:1985  0 */\n      0x00\n        /* \"contracts/projects/tweeter-smart-contract.sol\":1978:1983  count */\n      dup3\n        /* \"contracts/projects/tweeter-smart-contract.sol\":1978:1985  count>0 */\n      gt\n        /* \"contracts/projects/tweeter-smart-contract.sol\":1978:2002  count>0 && count<=nextId */\n      dup1\n      iszero\n      tag_94\n      jumpi\n      pop\n        /* \"contracts/projects/tweeter-smart-contract.sol\":1996:2002  nextId */\n      sload(0x05)\n        /* \"contracts/projects/tweeter-smart-contract.sol\":1989:1994  count */\n      dup3\n        /* \"contracts/projects/tweeter-smart-contract.sol\":1989:2002  count<=nextId */\n      gt\n      iszero\n        /* \"contracts/projects/tweeter-smart-contract.sol\":1978:2002  count>0 && count<=nextId */\n    tag_94:\n        /* \"contracts/projects/tweeter-smart-contract.sol\":1970:2027  require(count>0 && count<=nextId , \"Count is not proper\") */\n      tag_95\n      jumpi\n      mload(0x40)\n      0x08c379a000000000000000000000000000000000000000000000000000000000\n      dup2\n      mstore\n      0x04\n      add\n      tag_96\n      swap1\n      tag_97\n      jump\t// in\n    tag_96:\n      mload(0x40)\n      dup1\n      swap2\n      sub\n      swap1\n      revert\n    tag_95:\n        /* \"contracts/projects/tweeter-smart-contract.sol\":2038:2060  Tweet[] memory _tweets */\n      0x00\n        /* \"contracts/projects/tweeter-smart-contract.sol\":2075:2080  count */\n      dup3\n        /* \"contracts/projects/tweeter-smart-contract.sol\":2063:2081  new Tweet[](count) */\n      0xffffffffffffffff\n      dup2\n      gt\n      iszero\n      tag_98\n      jumpi\n      tag_99\n      tag_100\n      jump\t// in\n    tag_99:\n    tag_98:\n      mload(0x40)\n      swap1\n      dup1\n      dup3\n      mstore\n      dup1\n      0x20\n      mul\n      0x20\n      add\n      dup3\n      add\n      0x40\n      mstore\n      dup1\n      iszero\n      tag_101\n      jumpi\n      dup2\n      0x20\n      add\n    tag_102:\n      tag_103\n      tag_104\n      jump\t// in\n    tag_103:\n      dup2\n      mstore\n      0x20\n      add\n      swap1\n      0x01\n      swap1\n      sub\n      swap1\n      dup2\n      tag_102\n      jumpi\n      swap1\n      pop\n    tag_101:\n      pop\n        /* \"contracts/projects/tweeter-smart-contract.sol\":2038:2081  Tweet[] memory _tweets = new Tweet[](count) */\n      swap1\n      pop\n        /* \"contracts/projects/tweeter-smart-contract.sol\":2092:2098  uint j */\n      0x00\n        /* \"contracts/projects/tweeter-smart-contract.sol\":2113:2119  uint i */\n      0x00\n        /* \"contracts/projects/tweeter-smart-contract.sol\":2127:2132  count */\n      dup5\n        /* \"contracts/projects/tweeter-smart-contract.sol\":2120:2126  nextId */\n      sload(0x05)\n        /* \"contracts/projects/tweeter-smart-contract.sol\":2120:2132  nextId-count */\n      tag_108\n      swap2\n      swap1\n      tag_109\n      jump\t// in\n    tag_108:\n        /* \"contracts/projects/tweeter-smart-contract.sol\":2113:2132  uint i=nextId-count */\n      swap1\n      pop\n        /* \"contracts/projects/tweeter-smart-contract.sol\":2109:2337  for(uint i=nextId-count; i<nextId; i++){... */\n    tag_105:\n        /* \"contracts/projects/tweeter-smart-contract.sol\":2136:2142  nextId */\n      sload(0x05)\n        /* \"contracts/projects/tweeter-smart-contract.sol\":2134:2135  i */\n      dup2\n        /* \"contracts/projects/tweeter-smart-contract.sol\":2134:2142  i<nextId */\n      lt\n        /* \"contracts/projects/tweeter-smart-contract.sol\":2109:2337  for(uint i=nextId-count; i<nextId; i++){... */\n      iszero\n      tag_106\n      jumpi\n        /* \"contracts/projects/tweeter-smart-contract.sol\":2163:2187  Tweet storage _structure */\n      0x00\n        /* \"contracts/projects/tweeter-smart-contract.sol\":2190:2196  tweets */\n      0x00\n        /* \"contracts/projects/tweeter-smart-contract.sol\":2190:2199  tweets[i] */\n      0x00\n        /* \"contracts/projects/tweeter-smart-contract.sol\":2197:2198  i */\n      dup4\n        /* \"contracts/projects/tweeter-smart-contract.sol\":2190:2199  tweets[i] */\n      dup2\n      mstore\n      0x20\n      add\n      swap1\n      dup2\n      mstore\n      0x20\n      add\n      0x00\n      keccak256\n        /* \"contracts/projects/tweeter-smart-contract.sol\":2163:2199  Tweet storage _structure = tweets[i] */\n      swap1\n      pop\n        /* \"contracts/projects/tweeter-smart-contract.sol\":2227:2305  Tweet(_structure.id,_structure.author,_structure.content,_structure.createdAt) */\n      mload(0x40)\n      dup1\n      0x80\n      add\n      0x40\n      mstore\n      dup1\n        /* \"contracts/projects/tweeter-smart-contract.sol\":2233:2243  _structure */\n      dup3\n        /* \"contracts/projects/tweeter-smart-contract.sol\":2233:2246  _structure.id */\n      0x00\n      add\n      sload\n        /* \"contracts/projects/tweeter-smart-contract.sol\":2227:2305  Tweet(_structure.id,_structure.author,_structure.content,_structure.createdAt) */\n      dup2\n      mstore\n      0x20\n      add\n        /* \"contracts/projects/tweeter-smart-contract.sol\":2247:2257  _structure */\n      dup3\n        /* \"contracts/projects/tweeter-smart-contract.sol\":2247:2264  _structure.author */\n      0x01\n      add\n      0x00\n      swap1\n      sload\n      swap1\n      0x0100\n      exp\n      swap1\n      div\n      0xffffffffffffffffffffffffffffffffffffffff\n      and\n        /* \"contracts/projects/tweeter-smart-contract.sol\":2227:2305  Tweet(_structure.id,_structure.author,_structure.content,_structure.createdAt) */\n      0xffffffffffffffffffffffffffffffffffffffff\n      and\n      dup2\n      mstore\n      0x20\n      add\n        /* \"contracts/projects/tweeter-smart-contract.sol\":2265:2275  _structure */\n      dup3\n        /* \"contracts/projects/tweeter-smart-contract.sol\":2265:2283  _structure.content */\n      0x02\n      add\n        /* \"contracts/projects/tweeter-smart-contract.sol\":2227:2305  Tweet(_structure.id,_structure.author,_structure.content,_structure.createdAt) */\n      dup1\n      sload\n      tag_110\n      swap1\n      tag_86\n      jump\t// in\n    tag_110:\n      dup1\n      0x1f\n      add\n      0x20\n      dup1\n      swap2\n      div\n      mul\n      0x20\n      add\n      mload(0x40)\n      swap1\n      dup2\n      add\n      0x40\n      mstore\n      dup1\n      swap3\n      swap2\n      swap1\n      dup2\n      dup2\n      mstore\n      0x20\n      add\n      dup3\n      dup1\n      sload\n      tag_111\n      swap1\n      tag_86\n      jump\t// in\n    tag_111:\n      dup1\n      iszero\n      tag_112\n      jumpi\n      dup1\n      0x1f\n      lt\n      tag_113\n      jumpi\n      0x0100\n      dup1\n      dup4\n      sload\n      div\n      mul\n      dup4\n      mstore\n      swap2\n      0x20\n      add\n      swap2\n      jump(tag_112)\n    tag_113:\n      dup3\n      add\n      swap2\n      swap1\n      0x00\n      mstore\n      keccak256(0x00, 0x20)\n      swap1\n    tag_114:\n      dup2\n      sload\n      dup2\n      mstore\n      swap1\n      0x01\n      add\n      swap1\n      0x20\n      add\n      dup1\n      dup4\n      gt\n      tag_114\n      jumpi\n      dup3\n      swap1\n      sub\n      0x1f\n      and\n      dup3\n      add\n      swap2\n    tag_112:\n      pop\n      pop\n      pop\n      pop\n      pop\n      dup2\n      mstore\n      0x20\n      add\n        /* \"contracts/projects/tweeter-smart-contract.sol\":2284:2294  _structure */\n      dup3\n        /* \"contracts/projects/tweeter-smart-contract.sol\":2284:2304  _structure.createdAt */\n      0x03\n      add\n      sload\n        /* \"contracts/projects/tweeter-smart-contract.sol\":2227:2305  Tweet(_structure.id,_structure.author,_structure.content,_structure.createdAt) */\n      dup2\n      mstore\n      pop\n        /* \"contracts/projects/tweeter-smart-contract.sol\":2214:2221  _tweets */\n      dup5\n        /* \"contracts/projects/tweeter-smart-contract.sol\":2222:2223  j */\n      dup5\n        /* \"contracts/projects/tweeter-smart-contract.sol\":2214:2224  _tweets[j] */\n      dup2\n      mload\n      dup2\n      lt\n      tag_115\n      jumpi\n      tag_116\n      tag_117\n      jump\t// in\n    tag_116:\n    tag_115:\n      0x20\n      mul\n      0x20\n      add\n      add\n        /* \"contracts/projects/tweeter-smart-contract.sol\":2214:2305  _tweets[j] = Tweet(_structure.id,_structure.author,_structure.content,_structure.createdAt) */\n      dup2\n      swap1\n      mstore\n      pop\n        /* \"contracts/projects/tweeter-smart-contract.sol\":2324:2325  1 */\n      0x01\n        /* \"contracts/projects/tweeter-smart-contract.sol\":2322:2323  j */\n      dup4\n        /* \"contracts/projects/tweeter-smart-contract.sol\":2322:2325  j+1 */\n      tag_118\n      swap2\n      swap1\n      tag_119\n      jump\t// in\n    tag_118:\n        /* \"contracts/projects/tweeter-smart-contract.sol\":2320:2325  j=j+1 */\n      swap3\n      pop\n        /* \"contracts/projects/tweeter-smart-contract.sol\":2148:2337  {... */\n      pop\n        /* \"contracts/projects/tweeter-smart-contract.sol\":2144:2147  i++ */\n      dup1\n      dup1\n      0x01\n      add\n      swap2\n      pop\n      pop\n        /* \"contracts/projects/tweeter-smart-contract.sol\":2109:2337  for(uint i=nextId-count; i<nextId; i++){... */\n      jump(tag_105)\n    tag_106:\n      pop\n        /* \"contracts/projects/tweeter-smart-contract.sol\":2354:2361  _tweets */\n      dup2\n        /* \"contracts/projects/tweeter-smart-contract.sol\":2347:2361  return _tweets */\n      swap3\n      pop\n      pop\n      pop\n        /* \"contracts/projects/tweeter-smart-contract.sol\":1886:2369  function getLatestTweets(uint count) public view returns(Tweet[] memory) {... */\n      swap2\n      swap1\n      pop\n      jump\t// out\n        /* \"contracts/projects/tweeter-smart-contract.sol\":564:608  mapping(address=>address[]) public following */\n    tag_44:\n      mstore(0x20, 0x04)\n      dup2\n      0x00\n      mstore\n      keccak256(0x00, 0x40)\n      dup2\n      dup2\n      sload\n      dup2\n      lt\n      tag_120\n      jumpi\n      0x00\n      dup1\n      revert\n    tag_120:\n      swap1\n      0x00\n      mstore\n      keccak256(0x00, 0x20)\n      add\n      0x00\n      swap2\n      pop\n      swap2\n      pop\n      swap1\n      sload\n      swap1\n      0x0100\n      exp\n      swap1\n      div\n      0xffffffffffffffffffffffffffffffffffffffff\n      and\n      dup2\n      jump\t// out\n        /* \"contracts/projects/tweeter-smart-contract.sol\":1769:1872  function disallow(address _operator) public {... */\n    tag_49:\n        /* \"contracts/projects/tweeter-smart-contract.sol\":1859:1864  false */\n      0x00\n        /* \"contracts/projects/tweeter-smart-contract.sol\":1824:1833  operators */\n      0x03\n        /* \"contracts/projects/tweeter-smart-contract.sol\":1824:1845  operators[msg.sender] */\n      0x00\n        /* \"contracts/projects/tweeter-smart-contract.sol\":1834:1844  msg.sender */\n      caller\n        /* \"contracts/projects/tweeter-smart-contract.sol\":1824:1845  operators[msg.sender] */\n      0xffffffffffffffffffffffffffffffffffffffff\n      and\n      0xffffffffffffffffffffffffffffffffffffffff\n      and\n      dup2\n      mstore\n      0x20\n      add\n      swap1\n      dup2\n      mstore\n      0x20\n      add\n      0x00\n      keccak256\n        /* \"contracts/projects/tweeter-smart-contract.sol\":1824:1856  operators[msg.sender][_operator] */\n      0x00\n        /* \"contracts/projects/tweeter-smart-contract.sol\":1846:1855  _operator */\n      dup4\n        /* \"contracts/projects/tweeter-smart-contract.sol\":1824:1856  operators[msg.sender][_operator] */\n      0xffffffffffffffffffffffffffffffffffffffff\n      and\n      0xffffffffffffffffffffffffffffffffffffffff\n      and\n      dup2\n      mstore\n      0x20\n      add\n      swap1\n      dup2\n      mstore\n      0x20\n      add\n      0x00\n      keccak256\n      0x00\n        /* \"contracts/projects/tweeter-smart-contract.sol\":1824:1864  operators[msg.sender][_operator] = false */\n      0x0100\n      exp\n      dup2\n      sload\n      dup2\n      0xff\n      mul\n      not\n      and\n      swap1\n      dup4\n      iszero\n      iszero\n      mul\n      or\n      swap1\n      sstore\n      pop\n        /* \"contracts/projects/tweeter-smart-contract.sol\":1769:1872  function disallow(address _operator) public {... */\n      pop\n      jump\t// out\n        /* \"contracts/projects/tweeter-smart-contract.sol\":398:438  mapping(address=>uint[]) public tweetsOf */\n    tag_52:\n      mstore(0x20, 0x01)\n      dup2\n      0x00\n      mstore\n      keccak256(0x00, 0x40)\n      dup2\n      dup2\n      sload\n      dup2\n      lt\n      tag_123\n      jumpi\n      0x00\n      dup1\n      revert\n    tag_123:\n      swap1\n      0x00\n      mstore\n      keccak256(0x00, 0x20)\n      add\n      0x00\n      swap2\n      pop\n      swap2\n      pop\n      pop\n      sload\n      dup2\n      jump\t// out\n        /* \"contracts/projects/tweeter-smart-contract.sol\":1415:1548  function sendMessage(address _from, address _to, string memory _content) public {... */\n    tag_58:\n        /* \"contracts/projects/tweeter-smart-contract.sol\":1506:1540  _sendMessage(_from, _to, _content) */\n      tag_126\n        /* \"contracts/projects/tweeter-smart-contract.sol\":1519:1524  _from */\n      dup4\n        /* \"contracts/projects/tweeter-smart-contract.sol\":1526:1529  _to */\n      dup4\n        /* \"contracts/projects/tweeter-smart-contract.sol\":1531:1539  _content */\n      dup4\n        /* \"contracts/projects/tweeter-smart-contract.sol\":1506:1518  _sendMessage */\n      tag_127\n        /* \"contracts/projects/tweeter-smart-contract.sol\":1506:1540  _sendMessage(_from, _to, _content) */\n      jump\t// in\n    tag_126:\n        /* \"contracts/projects/tweeter-smart-contract.sol\":1415:1548  function sendMessage(address _from, address _to, string memory _content) public {... */\n      pop\n      pop\n      pop\n      jump\t// out\n        /* \"contracts/projects/tweeter-smart-contract.sol\":1284:1407  function sendMessage(string memory _content, address _to) public {... */\n    tag_62:\n        /* \"contracts/projects/tweeter-smart-contract.sol\":1360:1399  _sendMessage(msg.sender, _to, _content) */\n      tag_129\n        /* \"contracts/projects/tweeter-smart-contract.sol\":1373:1383  msg.sender */\n      caller\n        /* \"contracts/projects/tweeter-smart-contract.sol\":1385:1388  _to */\n      dup3\n        /* \"contracts/projects/tweeter-smart-contract.sol\":1390:1398  _content */\n      dup5\n        /* \"contracts/projects/tweeter-smart-contract.sol\":1360:1372  _sendMessage */\n      tag_127\n        /* \"contracts/projects/tweeter-smart-contract.sol\":1360:1399  _sendMessage(msg.sender, _to, _content) */\n      jump\t// in\n    tag_129:\n        /* \"contracts/projects/tweeter-smart-contract.sol\":1284:1407  function sendMessage(string memory _content, address _to) public {... */\n      pop\n      pop\n      jump\t// out\n        /* \"contracts/projects/tweeter-smart-contract.sol\":1173:1276  function tweet(address _from, string memory _content) public {... */\n    tag_66:\n        /* \"contracts/projects/tweeter-smart-contract.sol\":1245:1268  _tweet(_from, _content) */\n      tag_131\n        /* \"contracts/projects/tweeter-smart-contract.sol\":1252:1257  _from */\n      dup3\n        /* \"contracts/projects/tweeter-smart-contract.sol\":1259:1267  _content */\n      dup3\n        /* \"contracts/projects/tweeter-smart-contract.sol\":1245:1251  _tweet */\n      tag_132\n        /* \"contracts/projects/tweeter-smart-contract.sol\":1245:1268  _tweet(_from, _content) */\n      jump\t// in\n    tag_131:\n        /* \"contracts/projects/tweeter-smart-contract.sol\":1173:1276  function tweet(address _from, string memory _content) public {... */\n      pop\n      pop\n      jump\t// out\n        /* \"contracts/projects/tweeter-smart-contract.sol\":2379:3027  function getLatestToUser(address _user, uint count) public view returns(Tweet[] memory) { ... */\n    tag_69:\n        /* \"contracts/projects/tweeter-smart-contract.sol\":2451:2465  Tweet[] memory */\n      0x60\n        /* \"contracts/projects/tweeter-smart-contract.sol\":2479:2501  Tweet[] memory _tweets */\n      0x00\n        /* \"contracts/projects/tweeter-smart-contract.sol\":2516:2521  count */\n      dup3\n        /* \"contracts/projects/tweeter-smart-contract.sol\":2504:2522  new Tweet[](count) */\n      0xffffffffffffffff\n      dup2\n      gt\n      iszero\n      tag_134\n      jumpi\n      tag_135\n      tag_100\n      jump\t// in\n    tag_135:\n    tag_134:\n      mload(0x40)\n      swap1\n      dup1\n      dup3\n      mstore\n      dup1\n      0x20\n      mul\n      0x20\n      add\n      dup3\n      add\n      0x40\n      mstore\n      dup1\n      iszero\n      tag_136\n      jumpi\n      dup2\n      0x20\n      add\n    tag_137:\n      tag_138\n      tag_104\n      jump\t// in\n    tag_138:\n      dup2\n      mstore\n      0x20\n      add\n      swap1\n      0x01\n      swap1\n      sub\n      swap1\n      dup2\n      tag_137\n      jumpi\n      swap1\n      pop\n    tag_136:\n      pop\n        /* \"contracts/projects/tweeter-smart-contract.sol\":2479:2522  Tweet[] memory _tweets = new Tweet[](count) */\n      swap1\n      pop\n        /* \"contracts/projects/tweeter-smart-contract.sol\":2544:2561  uint[] memory ids */\n      0x00\n        /* \"contracts/projects/tweeter-smart-contract.sol\":2564:2572  tweetsOf */\n      0x01\n        /* \"contracts/projects/tweeter-smart-contract.sol\":2564:2579  tweetsOf[_user] */\n      0x00\n        /* \"contracts/projects/tweeter-smart-contract.sol\":2573:2578  _user */\n      dup7\n        /* \"contracts/projects/tweeter-smart-contract.sol\":2564:2579  tweetsOf[_user] */\n      0xffffffffffffffffffffffffffffffffffffffff\n      and\n      0xffffffffffffffffffffffffffffffffffffffff\n      and\n      dup2\n      mstore\n      0x20\n      add\n      swap1\n      dup2\n      mstore\n      0x20\n      add\n      0x00\n      keccak256\n        /* \"contracts/projects/tweeter-smart-contract.sol\":2544:2579  uint[] memory ids = tweetsOf[_user] */\n      dup1\n      sload\n      dup1\n      0x20\n      mul\n      0x20\n      add\n      mload(0x40)\n      swap1\n      dup2\n      add\n      0x40\n      mstore\n      dup1\n      swap3\n      swap2\n      swap1\n      dup2\n      dup2\n      mstore\n      0x20\n      add\n      dup3\n      dup1\n      sload\n      dup1\n      iszero\n      tag_139\n      jumpi\n      0x20\n      mul\n      dup3\n      add\n      swap2\n      swap1\n      0x00\n      mstore\n      keccak256(0x00, 0x20)\n      swap1\n    tag_140:\n      dup2\n      sload\n      dup2\n      mstore\n      0x20\n      add\n      swap1\n      0x01\n      add\n      swap1\n      dup1\n      dup4\n      gt\n      tag_140\n      jumpi\n    tag_139:\n      pop\n      pop\n      pop\n      pop\n      pop\n      swap1\n      pop\n        /* \"contracts/projects/tweeter-smart-contract.sol\":2609:2610  0 */\n      0x00\n        /* \"contracts/projects/tweeter-smart-contract.sol\":2601:2606  count */\n      dup5\n        /* \"contracts/projects/tweeter-smart-contract.sol\":2601:2610  count > 0 */\n      gt\n        /* \"contracts/projects/tweeter-smart-contract.sol\":2601:2633  count > 0 && count <= ids.length */\n      dup1\n      iszero\n      tag_141\n      jumpi\n      pop\n        /* \"contracts/projects/tweeter-smart-contract.sol\":2623:2626  ids */\n      dup1\n        /* \"contracts/projects/tweeter-smart-contract.sol\":2623:2633  ids.length */\n      mload\n        /* \"contracts/projects/tweeter-smart-contract.sol\":2614:2619  count */\n      dup5\n        /* \"contracts/projects/tweeter-smart-contract.sol\":2614:2633  count <= ids.length */\n      gt\n      iszero\n        /* \"contracts/projects/tweeter-smart-contract.sol\":2601:2633  count > 0 && count <= ids.length */\n    tag_141:\n        /* \"contracts/projects/tweeter-smart-contract.sol\":2593:2658  require(count > 0 && count <= ids.length, \"count is not defined\") */\n      tag_142\n      jumpi\n      mload(0x40)\n      0x08c379a000000000000000000000000000000000000000000000000000000000\n      dup2\n      mstore\n      0x04\n      add\n      tag_143\n      swap1\n      tag_144\n      jump\t// in\n    tag_143:\n      mload(0x40)\n      dup1\n      swap2\n      sub\n      swap1\n      revert\n    tag_142:\n        /* \"contracts/projects/tweeter-smart-contract.sol\":2669:2675  uint j */\n      0x00\n        /* \"contracts/projects/tweeter-smart-contract.sol\":2691:2697  uint i */\n      0x00\n        /* \"contracts/projects/tweeter-smart-contract.sol\":2713:2718  count */\n      dup6\n        /* \"contracts/projects/tweeter-smart-contract.sol\":2700:2703  ids */\n      dup4\n        /* \"contracts/projects/tweeter-smart-contract.sol\":2700:2710  ids.length */\n      mload\n        /* \"contracts/projects/tweeter-smart-contract.sol\":2700:2718  ids.length - count */\n      tag_148\n      swap2\n      swap1\n      tag_109\n      jump\t// in\n    tag_148:\n        /* \"contracts/projects/tweeter-smart-contract.sol\":2691:2718  uint i = ids.length - count */\n      swap1\n      pop\n        /* \"contracts/projects/tweeter-smart-contract.sol\":2686:2995  for (uint i = ids.length - count; i < ids.length; i++) { ... */\n    tag_145:\n        /* \"contracts/projects/tweeter-smart-contract.sol\":2724:2727  ids */\n      dup3\n        /* \"contracts/projects/tweeter-smart-contract.sol\":2724:2734  ids.length */\n      mload\n        /* \"contracts/projects/tweeter-smart-contract.sol\":2720:2721  i */\n      dup2\n        /* \"contracts/projects/tweeter-smart-contract.sol\":2720:2734  i < ids.length */\n      lt\n        /* \"contracts/projects/tweeter-smart-contract.sol\":2686:2995  for (uint i = ids.length - count; i < ids.length; i++) { ... */\n      iszero\n      tag_146\n      jumpi\n        /* \"contracts/projects/tweeter-smart-contract.sol\":2757:2781  Tweet storage _structure */\n      0x00\n        /* \"contracts/projects/tweeter-smart-contract.sol\":2784:2790  tweets */\n      0x00\n        /* \"contracts/projects/tweeter-smart-contract.sol\":2784:2798  tweets[ids[i]] */\n      0x00\n        /* \"contracts/projects/tweeter-smart-contract.sol\":2791:2794  ids */\n      dup6\n        /* \"contracts/projects/tweeter-smart-contract.sol\":2795:2796  i */\n      dup5\n        /* \"contracts/projects/tweeter-smart-contract.sol\":2791:2797  ids[i] */\n      dup2\n      mload\n      dup2\n      lt\n      tag_149\n      jumpi\n      tag_150\n      tag_117\n      jump\t// in\n    tag_150:\n    tag_149:\n      0x20\n      mul\n      0x20\n      add\n      add\n      mload\n        /* \"contracts/projects/tweeter-smart-contract.sol\":2784:2798  tweets[ids[i]] */\n      dup2\n      mstore\n      0x20\n      add\n      swap1\n      dup2\n      mstore\n      0x20\n      add\n      0x00\n      keccak256\n        /* \"contracts/projects/tweeter-smart-contract.sol\":2757:2798  Tweet storage _structure = tweets[ids[i]] */\n      swap1\n      pop\n        /* \"contracts/projects/tweeter-smart-contract.sol\":2827:2959  Tweet(_structure.id,... */\n      mload(0x40)\n      dup1\n      0x80\n      add\n      0x40\n      mstore\n      dup1\n        /* \"contracts/projects/tweeter-smart-contract.sol\":2833:2843  _structure */\n      dup3\n        /* \"contracts/projects/tweeter-smart-contract.sol\":2833:2846  _structure.id */\n      0x00\n      add\n      sload\n        /* \"contracts/projects/tweeter-smart-contract.sol\":2827:2959  Tweet(_structure.id,... */\n      dup2\n      mstore\n      0x20\n      add\n        /* \"contracts/projects/tweeter-smart-contract.sol\":2865:2875  _structure */\n      dup3\n        /* \"contracts/projects/tweeter-smart-contract.sol\":2865:2882  _structure.author */\n      0x01\n      add\n      0x00\n      swap1\n      sload\n      swap1\n      0x0100\n      exp\n      swap1\n      div\n      0xffffffffffffffffffffffffffffffffffffffff\n      and\n        /* \"contracts/projects/tweeter-smart-contract.sol\":2827:2959  Tweet(_structure.id,... */\n      0xffffffffffffffffffffffffffffffffffffffff\n      and\n      dup2\n      mstore\n      0x20\n      add\n        /* \"contracts/projects/tweeter-smart-contract.sol\":2901:2911  _structure */\n      dup3\n        /* \"contracts/projects/tweeter-smart-contract.sol\":2901:2919  _structure.content */\n      0x02\n      add\n        /* \"contracts/projects/tweeter-smart-contract.sol\":2827:2959  Tweet(_structure.id,... */\n      dup1\n      sload\n      tag_151\n      swap1\n      tag_86\n      jump\t// in\n    tag_151:\n      dup1\n      0x1f\n      add\n      0x20\n      dup1\n      swap2\n      div\n      mul\n      0x20\n      add\n      mload(0x40)\n      swap1\n      dup2\n      add\n      0x40\n      mstore\n      dup1\n      swap3\n      swap2\n      swap1\n      dup2\n      dup2\n      mstore\n      0x20\n      add\n      dup3\n      dup1\n      sload\n      tag_152\n      swap1\n      tag_86\n      jump\t// in\n    tag_152:\n      dup1\n      iszero\n      tag_153\n      jumpi\n      dup1\n      0x1f\n      lt\n      tag_154\n      jumpi\n      0x0100\n      dup1\n      dup4\n      sload\n      div\n      mul\n      dup4\n      mstore\n      swap2\n      0x20\n      add\n      swap2\n      jump(tag_153)\n    tag_154:\n      dup3\n      add\n      swap2\n      swap1\n      0x00\n      mstore\n      keccak256(0x00, 0x20)\n      swap1\n    tag_155:\n      dup2\n      sload\n      dup2\n      mstore\n      swap1\n      0x01\n      add\n      swap1\n      0x20\n      add\n      dup1\n      dup4\n      gt\n      tag_155\n      jumpi\n      dup3\n      swap1\n      sub\n      0x1f\n      and\n      dup3\n      add\n      swap2\n    tag_153:\n      pop\n      pop\n      pop\n      pop\n      pop\n      dup2\n      mstore\n      0x20\n      add\n        /* \"contracts/projects/tweeter-smart-contract.sol\":2938:2948  _structure */\n      dup3\n        /* \"contracts/projects/tweeter-smart-contract.sol\":2938:2958  _structure.createdAt */\n      0x03\n      add\n      sload\n        /* \"contracts/projects/tweeter-smart-contract.sol\":2827:2959  Tweet(_structure.id,... */\n      dup2\n      mstore\n      pop\n        /* \"contracts/projects/tweeter-smart-contract.sol\":2814:2821  _tweets */\n      dup6\n        /* \"contracts/projects/tweeter-smart-contract.sol\":2822:2823  j */\n      dup5\n        /* \"contracts/projects/tweeter-smart-contract.sol\":2814:2824  _tweets[j] */\n      dup2\n      mload\n      dup2\n      lt\n      tag_156\n      jumpi\n      tag_157\n      tag_117\n      jump\t// in\n    tag_157:\n    tag_156:\n      0x20\n      mul\n      0x20\n      add\n      add\n        /* \"contracts/projects/tweeter-smart-contract.sol\":2814:2959  _tweets[j] = Tweet(_structure.id,... */\n      dup2\n      swap1\n      mstore\n      pop\n        /* \"contracts/projects/tweeter-smart-contract.sol\":2982:2983  1 */\n      0x01\n        /* \"contracts/projects/tweeter-smart-contract.sol\":2978:2979  j */\n      dup4\n        /* \"contracts/projects/tweeter-smart-contract.sol\":2978:2983  j + 1 */\n      tag_158\n      swap2\n      swap1\n      tag_119\n      jump\t// in\n    tag_158:\n        /* \"contracts/projects/tweeter-smart-contract.sol\":2974:2983  j = j + 1 */\n      swap3\n      pop\n        /* \"contracts/projects/tweeter-smart-contract.sol\":2741:2995  { ... */\n      pop\n        /* \"contracts/projects/tweeter-smart-contract.sol\":2736:2739  i++ */\n      dup1\n      dup1\n      0x01\n      add\n      swap2\n      pop\n      pop\n        /* \"contracts/projects/tweeter-smart-contract.sol\":2686:2995  for (uint i = ids.length - count; i < ids.length; i++) { ... */\n      jump(tag_145)\n    tag_146:\n      pop\n        /* \"contracts/projects/tweeter-smart-contract.sol\":3012:3019  _tweets */\n      dup3\n        /* \"contracts/projects/tweeter-smart-contract.sol\":3005:3019  return _tweets */\n      swap4\n      pop\n      pop\n      pop\n      pop\n        /* \"contracts/projects/tweeter-smart-contract.sol\":2379:3027  function getLatestToUser(address _user, uint count) public view returns(Tweet[] memory) { ... */\n      swap3\n      swap2\n      pop\n      pop\n      jump\t// out\n        /* \"contracts/projects/tweeter-smart-contract.sol\":357:391  mapping(uint=>Tweet) public tweets */\n    tag_73:\n      mstore(0x20, 0x00)\n      dup1\n      0x00\n      mstore\n      keccak256(0x00, 0x40)\n      0x00\n      swap2\n      pop\n      swap1\n      pop\n      dup1\n      0x00\n      add\n      sload\n      swap1\n      dup1\n      0x01\n      add\n      0x00\n      swap1\n      sload\n      swap1\n      0x0100\n      exp\n      swap1\n      div\n      0xffffffffffffffffffffffffffffffffffffffff\n      and\n      swap1\n      dup1\n      0x02\n      add\n      dup1\n      sload\n      tag_159\n      swap1\n      tag_86\n      jump\t// in\n    tag_159:\n      dup1\n      0x1f\n      add\n      0x20\n      dup1\n      swap2\n      div\n      mul\n      0x20\n      add\n      mload(0x40)\n      swap1\n      dup2\n      add\n      0x40\n      mstore\n      dup1\n      swap3\n      swap2\n      swap1\n      dup2\n      dup2\n      mstore\n      0x20\n      add\n      dup3\n      dup1\n      sload\n      tag_160\n      swap1\n      tag_86\n      jump\t// in\n    tag_160:\n      dup1\n      iszero\n      tag_161\n      jumpi\n      dup1\n      0x1f\n      lt\n      tag_162\n      jumpi\n      0x0100\n      dup1\n      dup4\n      sload\n      div\n      mul\n      dup4\n      mstore\n      swap2\n      0x20\n      add\n      swap2\n      jump(tag_161)\n    tag_162:\n      dup3\n      add\n      swap2\n      swap1\n      0x00\n      mstore\n      keccak256(0x00, 0x20)\n      swap1\n    tag_163:\n      dup2\n      sload\n      dup2\n      mstore\n      swap1\n      0x01\n      add\n      swap1\n      0x20\n      add\n      dup1\n      dup4\n      gt\n      tag_163\n      jumpi\n      dup3\n      swap1\n      sub\n      0x1f\n      and\n      dup3\n      add\n      swap2\n    tag_161:\n      pop\n      pop\n      pop\n      pop\n      pop\n      swap1\n      dup1\n      0x03\n      add\n      sload\n      swap1\n      pop\n      dup5\n      jump\t// out\n        /* \"contracts/projects/tweeter-smart-contract.sol\":1072:1165  function tweet(string memory _content) public {... */\n    tag_79:\n        /* \"contracts/projects/tweeter-smart-contract.sol\":1129:1157  _tweet(msg.sender, _content) */\n      tag_165\n        /* \"contracts/projects/tweeter-smart-contract.sol\":1136:1146  msg.sender */\n      caller\n        /* \"contracts/projects/tweeter-smart-contract.sol\":1148:1156  _content */\n      dup3\n        /* \"contracts/projects/tweeter-smart-contract.sol\":1129:1135  _tweet */\n      tag_132\n        /* \"contracts/projects/tweeter-smart-contract.sol\":1129:1157  _tweet(msg.sender, _content) */\n      jump\t// in\n    tag_165:\n        /* \"contracts/projects/tweeter-smart-contract.sol\":1072:1165  function tweet(string memory _content) public {... */\n      pop\n      jump\t// out\n        /* \"contracts/projects/tweeter-smart-contract.sol\":1662:1761  function allow(address _operator) public {... */\n    tag_82:\n        /* \"contracts/projects/tweeter-smart-contract.sol\":1749:1753  true */\n      0x01\n        /* \"contracts/projects/tweeter-smart-contract.sol\":1714:1723  operators */\n      0x03\n        /* \"contracts/projects/tweeter-smart-contract.sol\":1714:1735  operators[msg.sender] */\n      0x00\n        /* \"contracts/projects/tweeter-smart-contract.sol\":1724:1734  msg.sender */\n      caller\n        /* \"contracts/projects/tweeter-smart-contract.sol\":1714:1735  operators[msg.sender] */\n      0xffffffffffffffffffffffffffffffffffffffff\n      and\n      0xffffffffffffffffffffffffffffffffffffffff\n      and\n      dup2\n      mstore\n      0x20\n      add\n      swap1\n      dup2\n      mstore\n      0x20\n      add\n      0x00\n      keccak256\n        /* \"contracts/projects/tweeter-smart-contract.sol\":1714:1746  operators[msg.sender][_operator] */\n      0x00\n        /* \"contracts/projects/tweeter-smart-contract.sol\":1736:1745  _operator */\n      dup4\n        /* \"contracts/projects/tweeter-smart-contract.sol\":1714:1746  operators[msg.sender][_operator] */\n      0xffffffffffffffffffffffffffffffffffffffff\n      and\n      0xffffffffffffffffffffffffffffffffffffffff\n      and\n      dup2\n      mstore\n      0x20\n      add\n      swap1\n      dup2\n      mstore\n      0x20\n      add\n      0x00\n      keccak256\n      0x00\n        /* \"contracts/projects/tweeter-smart-contract.sol\":1714:1753  operators[msg.sender][_operator] = true */\n      0x0100\n      exp\n      dup2\n      sload\n      dup2\n      0xff\n      mul\n      not\n      and\n      swap1\n      dup4\n      iszero\n      iszero\n      mul\n      or\n      swap1\n      sstore\n      pop\n        /* \"contracts/projects/tweeter-smart-contract.sol\":1662:1761  function allow(address _operator) public {... */\n      pop\n      jump\t// out\n        /* \"contracts/projects/tweeter-smart-contract.sol\":848:1064  function _sendMessage(address _from, address _to, string memory _content) internal {... */\n    tag_127:\n        /* \"contracts/projects/tweeter-smart-contract.sol\":942:955  conversations */\n      0x02\n        /* \"contracts/projects/tweeter-smart-contract.sol\":942:962  conversations[_from] */\n      0x00\n        /* \"contracts/projects/tweeter-smart-contract.sol\":956:961  _from */\n      dup5\n        /* \"contracts/projects/tweeter-smart-contract.sol\":942:962  conversations[_from] */\n      0xffffffffffffffffffffffffffffffffffffffff\n      and\n      0xffffffffffffffffffffffffffffffffffffffff\n      and\n      dup2\n      mstore\n      0x20\n      add\n      swap1\n      dup2\n      mstore\n      0x20\n      add\n      0x00\n      keccak256\n        /* \"contracts/projects/tweeter-smart-contract.sol\":968:1029  Message(nextMessageId, _content, _from, _to, block.timestamp) */\n      mload(0x40)\n      dup1\n      0xa0\n      add\n      0x40\n      mstore\n      dup1\n        /* \"contracts/projects/tweeter-smart-contract.sol\":976:989  nextMessageId */\n      sload(0x06)\n        /* \"contracts/projects/tweeter-smart-contract.sol\":968:1029  Message(nextMessageId, _content, _from, _to, block.timestamp) */\n      dup2\n      mstore\n      0x20\n      add\n        /* \"contracts/projects/tweeter-smart-contract.sol\":991:999  _content */\n      dup4\n        /* \"contracts/projects/tweeter-smart-contract.sol\":968:1029  Message(nextMessageId, _content, _from, _to, block.timestamp) */\n      dup2\n      mstore\n      0x20\n      add\n        /* \"contracts/projects/tweeter-smart-contract.sol\":1001:1006  _from */\n      dup6\n        /* \"contracts/projects/tweeter-smart-contract.sol\":968:1029  Message(nextMessageId, _content, _from, _to, block.timestamp) */\n      0xffffffffffffffffffffffffffffffffffffffff\n      and\n      dup2\n      mstore\n      0x20\n      add\n        /* \"contracts/projects/tweeter-smart-contract.sol\":1008:1011  _to */\n      dup5\n        /* \"contracts/projects/tweeter-smart-contract.sol\":968:1029  Message(nextMessageId, _content, _from, _to, block.timestamp) */\n      0xffffffffffffffffffffffffffffffffffffffff\n      and\n      dup2\n      mstore\n      0x20\n      add\n        /* \"contracts/projects/tweeter-smart-contract.sol\":1013:1028  block.timestamp */\n      timestamp\n        /* \"contracts/projects/tweeter-smart-contract.sol\":968:1029  Message(nextMessageId, _content, _from, _to, block.timestamp) */\n      dup2\n      mstore\n      pop\n        /* \"contracts/projects/tweeter-smart-contract.sol\":942:1030  conversations[_from].push(Message(nextMessageId, _content, _from, _to, block.timestamp)) */\n      swap1\n      dup1\n      0x01\n      dup2\n      sload\n      add\n      dup1\n      dup3\n      sstore\n      dup1\n      swap2\n      pop\n      pop\n      0x01\n      swap1\n      sub\n      swap1\n      0x00\n      mstore\n      keccak256(0x00, 0x20)\n      swap1\n      0x05\n      mul\n      add\n      0x00\n      swap1\n      swap2\n      swap1\n      swap2\n      swap1\n      swap2\n      pop\n      0x00\n      dup3\n      add\n      mload\n      dup2\n      0x00\n      add\n      sstore\n      0x20\n      dup3\n      add\n      mload\n      dup2\n      0x01\n      add\n      swap1\n      dup2\n      tag_169\n      swap2\n      swap1\n      tag_170\n      jump\t// in\n    tag_169:\n      pop\n      0x40\n      dup3\n      add\n      mload\n      dup2\n      0x02\n      add\n      exp(0x0100, 0x00)\n      dup2\n      sload\n      dup2\n      0xffffffffffffffffffffffffffffffffffffffff\n      mul\n      not\n      and\n      swap1\n      dup4\n      0xffffffffffffffffffffffffffffffffffffffff\n      and\n      mul\n      or\n      swap1\n      sstore\n      pop\n      0x60\n      dup3\n      add\n      mload\n      dup2\n      0x03\n      add\n      exp(0x0100, 0x00)\n      dup2\n      sload\n      dup2\n      0xffffffffffffffffffffffffffffffffffffffff\n      mul\n      not\n      and\n      swap1\n      dup4\n      0xffffffffffffffffffffffffffffffffffffffff\n      and\n      mul\n      or\n      swap1\n      sstore\n      pop\n      0x80\n      dup3\n      add\n      mload\n      dup2\n      0x04\n      add\n      sstore\n      pop\n      pop\n        /* \"contracts/projects/tweeter-smart-contract.sol\":1041:1054  nextMessageId */\n      0x06\n      0x00\n        /* \"contracts/projects/tweeter-smart-contract.sol\":1041:1056  nextMessageId++ */\n      dup2\n      sload\n      dup1\n      swap3\n      swap2\n      swap1\n      tag_171\n      swap1\n      tag_172\n      jump\t// in\n    tag_171:\n      swap2\n      swap1\n      pop\n      sstore\n      pop\n        /* \"contracts/projects/tweeter-smart-contract.sol\":848:1064  function _sendMessage(address _from, address _to, string memory _content) internal {... */\n      pop\n      pop\n      pop\n      jump\t// out\n        /* \"contracts/projects/tweeter-smart-contract.sol\":662:840  function _tweet(address _from, string memory _content) internal  {... */\n    tag_132:\n        /* \"contracts/projects/tweeter-smart-contract.sol\":755:802  Tweet(nextId, _from, _content, block.timestamp) */\n      mload(0x40)\n      dup1\n      0x80\n      add\n      0x40\n      mstore\n      dup1\n        /* \"contracts/projects/tweeter-smart-contract.sol\":761:767  nextId */\n      sload(0x05)\n        /* \"contracts/projects/tweeter-smart-contract.sol\":755:802  Tweet(nextId, _from, _content, block.timestamp) */\n      dup2\n      mstore\n      0x20\n      add\n        /* \"contracts/projects/tweeter-smart-contract.sol\":769:774  _from */\n      dup4\n        /* \"contracts/projects/tweeter-smart-contract.sol\":755:802  Tweet(nextId, _from, _content, block.timestamp) */\n      0xffffffffffffffffffffffffffffffffffffffff\n      and\n      dup2\n      mstore\n      0x20\n      add\n        /* \"contracts/projects/tweeter-smart-contract.sol\":776:784  _content */\n      dup3\n        /* \"contracts/projects/tweeter-smart-contract.sol\":755:802  Tweet(nextId, _from, _content, block.timestamp) */\n      dup2\n      mstore\n      0x20\n      add\n        /* \"contracts/projects/tweeter-smart-contract.sol\":786:801  block.timestamp */\n      timestamp\n        /* \"contracts/projects/tweeter-smart-contract.sol\":755:802  Tweet(nextId, _from, _content, block.timestamp) */\n      dup2\n      mstore\n      pop\n        /* \"contracts/projects/tweeter-smart-contract.sol\":738:744  tweets */\n      0x00\n        /* \"contracts/projects/tweeter-smart-contract.sol\":738:752  tweets[nextId] */\n      0x00\n        /* \"contracts/projects/tweeter-smart-contract.sol\":745:751  nextId */\n      sload(0x05)\n        /* \"contracts/projects/tweeter-smart-contract.sol\":738:752  tweets[nextId] */\n      dup2\n      mstore\n      0x20\n      add\n      swap1\n      dup2\n      mstore\n      0x20\n      add\n      0x00\n      keccak256\n        /* \"contracts/projects/tweeter-smart-contract.sol\":738:802  tweets[nextId] = Tweet(nextId, _from, _content, block.timestamp) */\n      0x00\n      dup3\n      add\n      mload\n      dup2\n      0x00\n      add\n      sstore\n      0x20\n      dup3\n      add\n      mload\n      dup2\n      0x01\n      add\n      exp(0x0100, 0x00)\n      dup2\n      sload\n      dup2\n      0xffffffffffffffffffffffffffffffffffffffff\n      mul\n      not\n      and\n      swap1\n      dup4\n      0xffffffffffffffffffffffffffffffffffffffff\n      and\n      mul\n      or\n      swap1\n      sstore\n      pop\n      0x40\n      dup3\n      add\n      mload\n      dup2\n      0x02\n      add\n      swap1\n      dup2\n      tag_174\n      swap2\n      swap1\n      tag_170\n      jump\t// in\n    tag_174:\n      pop\n      0x60\n      dup3\n      add\n      mload\n      dup2\n      0x03\n      add\n      sstore\n      swap1\n      pop\n      pop\n        /* \"contracts/projects/tweeter-smart-contract.sol\":831:832  1 */\n      0x01\n        /* \"contracts/projects/tweeter-smart-contract.sol\":822:828  nextId */\n      sload(0x05)\n        /* \"contracts/projects/tweeter-smart-contract.sol\":822:832  nextId + 1 */\n      tag_175\n      swap2\n      swap1\n      tag_119\n      jump\t// in\n    tag_175:\n        /* \"contracts/projects/tweeter-smart-contract.sol\":813:819  nextId */\n      0x05\n        /* \"contracts/projects/tweeter-smart-contract.sol\":813:832  nextId = nextId + 1 */\n      dup2\n      swap1\n      sstore\n      pop\n        /* \"contracts/projects/tweeter-smart-contract.sol\":662:840  function _tweet(address _from, string memory _content) internal  {... */\n      pop\n      pop\n      jump\t// out\n    tag_104:\n      mload(0x40)\n      dup1\n      0x80\n      add\n      0x40\n      mstore\n      dup1\n      0x00\n      dup2\n      mstore\n      0x20\n      add\n      and(0xffffffffffffffffffffffffffffffffffffffff, 0x00)\n      dup2\n      mstore\n      0x20\n      add\n      0x60\n      dup2\n      mstore\n      0x20\n      add\n      0x00\n      dup2\n      mstore\n      pop\n      swap1\n      jump\t// out\n        /* \"#utility.yul\":7:82   */\n    tag_176:\n        /* \"#utility.yul\":40:46   */\n      0x00\n        /* \"#utility.yul\":73:75   */\n      0x40\n        /* \"#utility.yul\":67:76   */\n      mload\n        /* \"#utility.yul\":57:76   */\n      swap1\n      pop\n        /* \"#utility.yul\":7:82   */\n      swap1\n      jump\t// out\n        /* \"#utility.yul\":88:205   */\n    tag_177:\n        /* \"#utility.yul\":197:198   */\n      0x00\n        /* \"#utility.yul\":194:195   */\n      0x00\n        /* \"#utility.yul\":187:199   */\n      revert\n        /* \"#utility.yul\":211:328   */\n    tag_178:\n        /* \"#utility.yul\":320:321   */\n      0x00\n        /* \"#utility.yul\":317:318   */\n      0x00\n        /* \"#utility.yul\":310:322   */\n      revert\n        /* \"#utility.yul\":334:460   */\n    tag_179:\n        /* \"#utility.yul\":371:378   */\n      0x00\n        /* \"#utility.yul\":411:453   */\n      0xffffffffffffffffffffffffffffffffffffffff\n        /* \"#utility.yul\":404:409   */\n      dup3\n        /* \"#utility.yul\":400:454   */\n      and\n        /* \"#utility.yul\":389:454   */\n      swap1\n      pop\n        /* \"#utility.yul\":334:460   */\n      swap2\n      swap1\n      pop\n      jump\t// out\n        /* \"#utility.yul\":466:562   */\n    tag_180:\n        /* \"#utility.yul\":503:510   */\n      0x00\n        /* \"#utility.yul\":532:556   */\n      tag_241\n        /* \"#utility.yul\":550:555   */\n      dup3\n        /* \"#utility.yul\":532:556   */\n      tag_179\n      jump\t// in\n    tag_241:\n        /* \"#utility.yul\":521:556   */\n      swap1\n      pop\n        /* \"#utility.yul\":466:562   */\n      swap2\n      swap1\n      pop\n      jump\t// out\n        /* \"#utility.yul\":568:690   */\n    tag_181:\n        /* \"#utility.yul\":641:665   */\n      tag_243\n        /* \"#utility.yul\":659:664   */\n      dup2\n        /* \"#utility.yul\":641:665   */\n      tag_180\n      jump\t// in\n    tag_243:\n        /* \"#utility.yul\":634:639   */\n      dup2\n        /* \"#utility.yul\":631:666   */\n      eq\n        /* \"#utility.yul\":621:684   */\n      tag_244\n      jumpi\n        /* \"#utility.yul\":680:681   */\n      0x00\n        /* \"#utility.yul\":677:678   */\n      0x00\n        /* \"#utility.yul\":670:682   */\n      revert\n        /* \"#utility.yul\":621:684   */\n    tag_244:\n        /* \"#utility.yul\":568:690   */\n      pop\n      jump\t// out\n        /* \"#utility.yul\":696:835   */\n    tag_182:\n        /* \"#utility.yul\":742:747   */\n      0x00\n        /* \"#utility.yul\":780:786   */\n      dup2\n        /* \"#utility.yul\":767:787   */\n      calldataload\n        /* \"#utility.yul\":758:787   */\n      swap1\n      pop\n        /* \"#utility.yul\":796:829   */\n      tag_246\n        /* \"#utility.yul\":823:828   */\n      dup2\n        /* \"#utility.yul\":796:829   */\n      tag_181\n      jump\t// in\n    tag_246:\n        /* \"#utility.yul\":696:835   */\n      swap3\n      swap2\n      pop\n      pop\n      jump\t// out\n        /* \"#utility.yul\":841:1315   */\n    tag_22:\n        /* \"#utility.yul\":909:915   */\n      0x00\n        /* \"#utility.yul\":917:923   */\n      0x00\n        /* \"#utility.yul\":966:968   */\n      0x40\n        /* \"#utility.yul\":954:963   */\n      dup4\n        /* \"#utility.yul\":945:952   */\n      dup6\n        /* \"#utility.yul\":941:964   */\n      sub\n        /* \"#utility.yul\":937:969   */\n      slt\n        /* \"#utility.yul\":934:1053   */\n      iszero\n      tag_248\n      jumpi\n        /* \"#utility.yul\":972:1051   */\n      tag_249\n      tag_177\n      jump\t// in\n    tag_249:\n        /* \"#utility.yul\":934:1053   */\n    tag_248:\n        /* \"#utility.yul\":1092:1093   */\n      0x00\n        /* \"#utility.yul\":1117:1170   */\n      tag_250\n        /* \"#utility.yul\":1162:1169   */\n      dup6\n        /* \"#utility.yul\":1153:1159   */\n      dup3\n        /* \"#utility.yul\":1142:1151   */\n      dup7\n        /* \"#utility.yul\":1138:1160   */\n      add\n        /* \"#utility.yul\":1117:1170   */\n      tag_182\n      jump\t// in\n    tag_250:\n        /* \"#utility.yul\":1107:1170   */\n      swap3\n      pop\n        /* \"#utility.yul\":1063:1180   */\n      pop\n        /* \"#utility.yul\":1219:1221   */\n      0x20\n        /* \"#utility.yul\":1245:1298   */\n      tag_251\n        /* \"#utility.yul\":1290:1297   */\n      dup6\n        /* \"#utility.yul\":1281:1287   */\n      dup3\n        /* \"#utility.yul\":1270:1279   */\n      dup7\n        /* \"#utility.yul\":1266:1288   */\n      add\n        /* \"#utility.yul\":1245:1298   */\n      tag_182\n      jump\t// in\n    tag_251:\n        /* \"#utility.yul\":1235:1298   */\n      swap2\n      pop\n        /* \"#utility.yul\":1190:1308   */\n      pop\n        /* \"#utility.yul\":841:1315   */\n      swap3\n      pop\n      swap3\n      swap1\n      pop\n      jump\t// out\n        /* \"#utility.yul\":1321:1411   */\n    tag_183:\n        /* \"#utility.yul\":1355:1362   */\n      0x00\n        /* \"#utility.yul\":1398:1403   */\n      dup2\n        /* \"#utility.yul\":1391:1404   */\n      iszero\n        /* \"#utility.yul\":1384:1405   */\n      iszero\n        /* \"#utility.yul\":1373:1405   */\n      swap1\n      pop\n        /* \"#utility.yul\":1321:1411   */\n      swap2\n      swap1\n      pop\n      jump\t// out\n        /* \"#utility.yul\":1417:1526   */\n    tag_184:\n        /* \"#utility.yul\":1498:1519   */\n      tag_254\n        /* \"#utility.yul\":1513:1518   */\n      dup2\n        /* \"#utility.yul\":1498:1519   */\n      tag_183\n      jump\t// in\n    tag_254:\n        /* \"#utility.yul\":1493:1496   */\n      dup3\n        /* \"#utility.yul\":1486:1520   */\n      mstore\n        /* \"#utility.yul\":1417:1526   */\n      pop\n      pop\n      jump\t// out\n        /* \"#utility.yul\":1532:1742   */\n    tag_25:\n        /* \"#utility.yul\":1619:1623   */\n      0x00\n        /* \"#utility.yul\":1657:1659   */\n      0x20\n        /* \"#utility.yul\":1646:1655   */\n      dup3\n        /* \"#utility.yul\":1642:1660   */\n      add\n        /* \"#utility.yul\":1634:1660   */\n      swap1\n      pop\n        /* \"#utility.yul\":1670:1735   */\n      tag_256\n        /* \"#utility.yul\":1732:1733   */\n      0x00\n        /* \"#utility.yul\":1721:1730   */\n      dup4\n        /* \"#utility.yul\":1717:1734   */\n      add\n        /* \"#utility.yul\":1708:1714   */\n      dup5\n        /* \"#utility.yul\":1670:1735   */\n      tag_184\n      jump\t// in\n    tag_256:\n        /* \"#utility.yul\":1532:1742   */\n      swap3\n      swap2\n      pop\n      pop\n      jump\t// out\n        /* \"#utility.yul\":1748:1825   */\n    tag_185:\n        /* \"#utility.yul\":1785:1792   */\n      0x00\n        /* \"#utility.yul\":1814:1819   */\n      dup2\n        /* \"#utility.yul\":1803:1819   */\n      swap1\n      pop\n        /* \"#utility.yul\":1748:1825   */\n      swap2\n      swap1\n      pop\n      jump\t// out\n        /* \"#utility.yul\":1831:1953   */\n    tag_186:\n        /* \"#utility.yul\":1904:1928   */\n      tag_259\n        /* \"#utility.yul\":1922:1927   */\n      dup2\n        /* \"#utility.yul\":1904:1928   */\n      tag_185\n      jump\t// in\n    tag_259:\n        /* \"#utility.yul\":1897:1902   */\n      dup2\n        /* \"#utility.yul\":1894:1929   */\n      eq\n        /* \"#utility.yul\":1884:1947   */\n      tag_260\n      jumpi\n        /* \"#utility.yul\":1943:1944   */\n      0x00\n        /* \"#utility.yul\":1940:1941   */\n      0x00\n        /* \"#utility.yul\":1933:1945   */\n      revert\n        /* \"#utility.yul\":1884:1947   */\n    tag_260:\n        /* \"#utility.yul\":1831:1953   */\n      pop\n      jump\t// out\n        /* \"#utility.yul\":1959:2098   */\n    tag_187:\n        /* \"#utility.yul\":2005:2010   */\n      0x00\n        /* \"#utility.yul\":2043:2049   */\n      dup2\n        /* \"#utility.yul\":2030:2050   */\n      calldataload\n        /* \"#utility.yul\":2021:2050   */\n      swap1\n      pop\n        /* \"#utility.yul\":2059:2092   */\n      tag_262\n        /* \"#utility.yul\":2086:2091   */\n      dup2\n        /* \"#utility.yul\":2059:2092   */\n      tag_186\n      jump\t// in\n    tag_262:\n        /* \"#utility.yul\":1959:2098   */\n      swap3\n      swap2\n      pop\n      pop\n      jump\t// out\n        /* \"#utility.yul\":2104:2578   */\n    tag_28:\n        /* \"#utility.yul\":2172:2178   */\n      0x00\n        /* \"#utility.yul\":2180:2186   */\n      0x00\n        /* \"#utility.yul\":2229:2231   */\n      0x40\n        /* \"#utility.yul\":2217:2226   */\n      dup4\n        /* \"#utility.yul\":2208:2215   */\n      dup6\n        /* \"#utility.yul\":2204:2227   */\n      sub\n        /* \"#utility.yul\":2200:2232   */\n      slt\n        /* \"#utility.yul\":2197:2316   */\n      iszero\n      tag_264\n      jumpi\n        /* \"#utility.yul\":2235:2314   */\n      tag_265\n      tag_177\n      jump\t// in\n    tag_265:\n        /* \"#utility.yul\":2197:2316   */\n    tag_264:\n        /* \"#utility.yul\":2355:2356   */\n      0x00\n        /* \"#utility.yul\":2380:2433   */\n      tag_266\n        /* \"#utility.yul\":2425:2432   */\n      dup6\n        /* \"#utility.yul\":2416:2422   */\n      dup3\n        /* \"#utility.yul\":2405:2414   */\n      dup7\n        /* \"#utility.yul\":2401:2423   */\n      add\n        /* \"#utility.yul\":2380:2433   */\n      tag_182\n      jump\t// in\n    tag_266:\n        /* \"#utility.yul\":2370:2433   */\n      swap3\n      pop\n        /* \"#utility.yul\":2326:2443   */\n      pop\n        /* \"#utility.yul\":2482:2484   */\n      0x20\n        /* \"#utility.yul\":2508:2561   */\n      tag_267\n        /* \"#utility.yul\":2553:2560   */\n      dup6\n        /* \"#utility.yul\":2544:2550   */\n      dup3\n        /* \"#utility.yul\":2533:2542   */\n      dup7\n        /* \"#utility.yul\":2529:2551   */\n      add\n        /* \"#utility.yul\":2508:2561   */\n      tag_187\n      jump\t// in\n    tag_267:\n        /* \"#utility.yul\":2498:2561   */\n      swap2\n      pop\n        /* \"#utility.yul\":2453:2571   */\n      pop\n        /* \"#utility.yul\":2104:2578   */\n      swap3\n      pop\n      swap3\n      swap1\n      pop\n      jump\t// out\n        /* \"#utility.yul\":2584:2702   */\n    tag_188:\n        /* \"#utility.yul\":2671:2695   */\n      tag_269\n        /* \"#utility.yul\":2689:2694   */\n      dup2\n        /* \"#utility.yul\":2671:2695   */\n      tag_185\n      jump\t// in\n    tag_269:\n        /* \"#utility.yul\":2666:2669   */\n      dup3\n        /* \"#utility.yul\":2659:2696   */\n      mstore\n        /* \"#utility.yul\":2584:2702   */\n      pop\n      pop\n      jump\t// out\n        /* \"#utility.yul\":2708:2807   */\n    tag_189:\n        /* \"#utility.yul\":2760:2766   */\n      0x00\n        /* \"#utility.yul\":2794:2799   */\n      dup2\n        /* \"#utility.yul\":2788:2800   */\n      mload\n        /* \"#utility.yul\":2778:2800   */\n      swap1\n      pop\n        /* \"#utility.yul\":2708:2807   */\n      swap2\n      swap1\n      pop\n      jump\t// out\n        /* \"#utility.yul\":2813:2982   */\n    tag_190:\n        /* \"#utility.yul\":2897:2908   */\n      0x00\n        /* \"#utility.yul\":2931:2937   */\n      dup3\n        /* \"#utility.yul\":2926:2929   */\n      dup3\n        /* \"#utility.yul\":2919:2938   */\n      mstore\n        /* \"#utility.yul\":2971:2975   */\n      0x20\n        /* \"#utility.yul\":2966:2969   */\n      dup3\n        /* \"#utility.yul\":2962:2976   */\n      add\n        /* \"#utility.yul\":2947:2976   */\n      swap1\n      pop\n        /* \"#utility.yul\":2813:2982   */\n      swap3\n      swap2\n      pop\n      pop\n      jump\t// out\n        /* \"#utility.yul\":2988:3127   */\n    tag_191:\n        /* \"#utility.yul\":3077:3083   */\n      dup3\n        /* \"#utility.yul\":3072:3075   */\n      dup2\n        /* \"#utility.yul\":3067:3070   */\n      dup4\n        /* \"#utility.yul\":3061:3084   */\n      mcopy\n        /* \"#utility.yul\":3118:3119   */\n      0x00\n        /* \"#utility.yul\":3109:3115   */\n      dup4\n        /* \"#utility.yul\":3104:3107   */\n      dup4\n        /* \"#utility.yul\":3100:3116   */\n      add\n        /* \"#utility.yul\":3093:3120   */\n      mstore\n        /* \"#utility.yul\":2988:3127   */\n      pop\n      pop\n      pop\n      jump\t// out\n        /* \"#utility.yul\":3133:3235   */\n    tag_192:\n        /* \"#utility.yul\":3174:3180   */\n      0x00\n        /* \"#utility.yul\":3225:3227   */\n      0x1f\n        /* \"#utility.yul\":3221:3228   */\n      not\n        /* \"#utility.yul\":3216:3218   */\n      0x1f\n        /* \"#utility.yul\":3209:3214   */\n      dup4\n        /* \"#utility.yul\":3205:3219   */\n      add\n        /* \"#utility.yul\":3201:3229   */\n      and\n        /* \"#utility.yul\":3191:3229   */\n      swap1\n      pop\n        /* \"#utility.yul\":3133:3235   */\n      swap2\n      swap1\n      pop\n      jump\t// out\n        /* \"#utility.yul\":3241:3618   */\n    tag_193:\n        /* \"#utility.yul\":3329:3332   */\n      0x00\n        /* \"#utility.yul\":3357:3396   */\n      tag_275\n        /* \"#utility.yul\":3390:3395   */\n      dup3\n        /* \"#utility.yul\":3357:3396   */\n      tag_189\n      jump\t// in\n    tag_275:\n        /* \"#utility.yul\":3412:3483   */\n      tag_276\n        /* \"#utility.yul\":3476:3482   */\n      dup2\n        /* \"#utility.yul\":3471:3474   */\n      dup6\n        /* \"#utility.yul\":3412:3483   */\n      tag_190\n      jump\t// in\n    tag_276:\n        /* \"#utility.yul\":3405:3483   */\n      swap4\n      pop\n        /* \"#utility.yul\":3492:3557   */\n      tag_277\n        /* \"#utility.yul\":3550:3556   */\n      dup2\n        /* \"#utility.yul\":3545:3548   */\n      dup6\n        /* \"#utility.yul\":3538:3542   */\n      0x20\n        /* \"#utility.yul\":3531:3536   */\n      dup7\n        /* \"#utility.yul\":3527:3543   */\n      add\n        /* \"#utility.yul\":3492:3557   */\n      tag_191\n      jump\t// in\n    tag_277:\n        /* \"#utility.yul\":3582:3611   */\n      tag_278\n        /* \"#utility.yul\":3604:3610   */\n      dup2\n        /* \"#utility.yul\":3582:3611   */\n      tag_192\n      jump\t// in\n    tag_278:\n        /* \"#utility.yul\":3577:3580   */\n      dup5\n        /* \"#utility.yul\":3573:3612   */\n      add\n        /* \"#utility.yul\":3566:3612   */\n      swap2\n      pop\n        /* \"#utility.yul\":3333:3618   */\n      pop\n        /* \"#utility.yul\":3241:3618   */\n      swap3\n      swap2\n      pop\n      pop\n      jump\t// out\n        /* \"#utility.yul\":3624:3742   */\n    tag_194:\n        /* \"#utility.yul\":3711:3735   */\n      tag_280\n        /* \"#utility.yul\":3729:3734   */\n      dup2\n        /* \"#utility.yul\":3711:3735   */\n      tag_180\n      jump\t// in\n    tag_280:\n        /* \"#utility.yul\":3706:3709   */\n      dup3\n        /* \"#utility.yul\":3699:3736   */\n      mstore\n        /* \"#utility.yul\":3624:3742   */\n      pop\n      pop\n      jump\t// out\n        /* \"#utility.yul\":3748:4503   */\n    tag_31:\n        /* \"#utility.yul\":3973:3977   */\n      0x00\n        /* \"#utility.yul\":4011:4014   */\n      0xa0\n        /* \"#utility.yul\":4000:4009   */\n      dup3\n        /* \"#utility.yul\":3996:4015   */\n      add\n        /* \"#utility.yul\":3988:4015   */\n      swap1\n      pop\n        /* \"#utility.yul\":4025:4096   */\n      tag_282\n        /* \"#utility.yul\":4093:4094   */\n      0x00\n        /* \"#utility.yul\":4082:4091   */\n      dup4\n        /* \"#utility.yul\":4078:4095   */\n      add\n        /* \"#utility.yul\":4069:4075   */\n      dup9\n        /* \"#utility.yul\":4025:4096   */\n      tag_188\n      jump\t// in\n    tag_282:\n        /* \"#utility.yul\":4143:4152   */\n      dup2\n        /* \"#utility.yul\":4137:4141   */\n      dup2\n        /* \"#utility.yul\":4133:4153   */\n      sub\n        /* \"#utility.yul\":4128:4130   */\n      0x20\n        /* \"#utility.yul\":4117:4126   */\n      dup4\n        /* \"#utility.yul\":4113:4131   */\n      add\n        /* \"#utility.yul\":4106:4154   */\n      mstore\n        /* \"#utility.yul\":4171:4249   */\n      tag_283\n        /* \"#utility.yul\":4244:4248   */\n      dup2\n        /* \"#utility.yul\":4235:4241   */\n      dup8\n        /* \"#utility.yul\":4171:4249   */\n      tag_193\n      jump\t// in\n    tag_283:\n        /* \"#utility.yul\":4163:4249   */\n      swap1\n      pop\n        /* \"#utility.yul\":4259:4331   */\n      tag_284\n        /* \"#utility.yul\":4327:4329   */\n      0x40\n        /* \"#utility.yul\":4316:4325   */\n      dup4\n        /* \"#utility.yul\":4312:4330   */\n      add\n        /* \"#utility.yul\":4303:4309   */\n      dup7\n        /* \"#utility.yul\":4259:4331   */\n      tag_194\n      jump\t// in\n    tag_284:\n        /* \"#utility.yul\":4341:4413   */\n      tag_285\n        /* \"#utility.yul\":4409:4411   */\n      0x60\n        /* \"#utility.yul\":4398:4407   */\n      dup4\n        /* \"#utility.yul\":4394:4412   */\n      add\n        /* \"#utility.yul\":4385:4391   */\n      dup6\n        /* \"#utility.yul\":4341:4413   */\n      tag_194\n      jump\t// in\n    tag_285:\n        /* \"#utility.yul\":4423:4496   */\n      tag_286\n        /* \"#utility.yul\":4491:4494   */\n      0x80\n        /* \"#utility.yul\":4480:4489   */\n      dup4\n        /* \"#utility.yul\":4476:4495   */\n      add\n        /* \"#utility.yul\":4467:4473   */\n      dup5\n        /* \"#utility.yul\":4423:4496   */\n      tag_188\n      jump\t// in\n    tag_286:\n        /* \"#utility.yul\":3748:4503   */\n      swap7\n      swap6\n      pop\n      pop\n      pop\n      pop\n      pop\n      pop\n      jump\t// out\n        /* \"#utility.yul\":4509:4838   */\n    tag_34:\n        /* \"#utility.yul\":4568:4574   */\n      0x00\n        /* \"#utility.yul\":4617:4619   */\n      0x20\n        /* \"#utility.yul\":4605:4614   */\n      dup3\n        /* \"#utility.yul\":4596:4603   */\n      dup5\n        /* \"#utility.yul\":4592:4615   */\n      sub\n        /* \"#utility.yul\":4588:4620   */\n      slt\n        /* \"#utility.yul\":4585:4704   */\n      iszero\n      tag_288\n      jumpi\n        /* \"#utility.yul\":4623:4702   */\n      tag_289\n      tag_177\n      jump\t// in\n    tag_289:\n        /* \"#utility.yul\":4585:4704   */\n    tag_288:\n        /* \"#utility.yul\":4743:4744   */\n      0x00\n        /* \"#utility.yul\":4768:4821   */\n      tag_290\n        /* \"#utility.yul\":4813:4820   */\n      dup5\n        /* \"#utility.yul\":4804:4810   */\n      dup3\n        /* \"#utility.yul\":4793:4802   */\n      dup6\n        /* \"#utility.yul\":4789:4811   */\n      add\n        /* \"#utility.yul\":4768:4821   */\n      tag_182\n      jump\t// in\n    tag_290:\n        /* \"#utility.yul\":4758:4821   */\n      swap2\n      pop\n        /* \"#utility.yul\":4714:4831   */\n      pop\n        /* \"#utility.yul\":4509:4838   */\n      swap3\n      swap2\n      pop\n      pop\n      jump\t// out\n        /* \"#utility.yul\":4844:5173   */\n    tag_38:\n        /* \"#utility.yul\":4903:4909   */\n      0x00\n        /* \"#utility.yul\":4952:4954   */\n      0x20\n        /* \"#utility.yul\":4940:4949   */\n      dup3\n        /* \"#utility.yul\":4931:4938   */\n      dup5\n        /* \"#utility.yul\":4927:4950   */\n      sub\n        /* \"#utility.yul\":4923:4955   */\n      slt\n        /* \"#utility.yul\":4920:5039   */\n      iszero\n      tag_292\n      jumpi\n        /* \"#utility.yul\":4958:5037   */\n      tag_293\n      tag_177\n      jump\t// in\n    tag_293:\n        /* \"#utility.yul\":4920:5039   */\n    tag_292:\n        /* \"#utility.yul\":5078:5079   */\n      0x00\n        /* \"#utility.yul\":5103:5156   */\n      tag_294\n        /* \"#utility.yul\":5148:5155   */\n      dup5\n        /* \"#utility.yul\":5139:5145   */\n      dup3\n        /* \"#utility.yul\":5128:5137   */\n      dup6\n        /* \"#utility.yul\":5124:5146   */\n      add\n        /* \"#utility.yul\":5103:5156   */\n      tag_187\n      jump\t// in\n    tag_294:\n        /* \"#utility.yul\":5093:5156   */\n      swap2\n      pop\n        /* \"#utility.yul\":5049:5166   */\n      pop\n        /* \"#utility.yul\":4844:5173   */\n      swap3\n      swap2\n      pop\n      pop\n      jump\t// out\n        /* \"#utility.yul\":5179:5314   */\n    tag_195:\n        /* \"#utility.yul\":5267:5273   */\n      0x00\n        /* \"#utility.yul\":5301:5306   */\n      dup2\n        /* \"#utility.yul\":5295:5307   */\n      mload\n        /* \"#utility.yul\":5285:5307   */\n      swap1\n      pop\n        /* \"#utility.yul\":5179:5314   */\n      swap2\n      swap1\n      pop\n      jump\t// out\n        /* \"#utility.yul\":5320:5525   */\n    tag_196:\n        /* \"#utility.yul\":5440:5451   */\n      0x00\n        /* \"#utility.yul\":5474:5480   */\n      dup3\n        /* \"#utility.yul\":5469:5472   */\n      dup3\n        /* \"#utility.yul\":5462:5481   */\n      mstore\n        /* \"#utility.yul\":5514:5518   */\n      0x20\n        /* \"#utility.yul\":5509:5512   */\n      dup3\n        /* \"#utility.yul\":5505:5519   */\n      add\n        /* \"#utility.yul\":5490:5519   */\n      swap1\n      pop\n        /* \"#utility.yul\":5320:5525   */\n      swap3\n      swap2\n      pop\n      pop\n      jump\t// out\n        /* \"#utility.yul\":5531:5684   */\n    tag_197:\n        /* \"#utility.yul\":5619:5623   */\n      0x00\n        /* \"#utility.yul\":5642:5645   */\n      dup2\n        /* \"#utility.yul\":5634:5645   */\n      swap1\n      pop\n        /* \"#utility.yul\":5672:5676   */\n      0x20\n        /* \"#utility.yul\":5667:5670   */\n      dup3\n        /* \"#utility.yul\":5663:5677   */\n      add\n        /* \"#utility.yul\":5655:5677   */\n      swap1\n      pop\n        /* \"#utility.yul\":5531:5684   */\n      swap2\n      swap1\n      pop\n      jump\t// out\n        /* \"#utility.yul\":5690:5798   */\n    tag_198:\n        /* \"#utility.yul\":5767:5791   */\n      tag_299\n        /* \"#utility.yul\":5785:5790   */\n      dup2\n        /* \"#utility.yul\":5767:5791   */\n      tag_185\n      jump\t// in\n    tag_299:\n        /* \"#utility.yul\":5762:5765   */\n      dup3\n        /* \"#utility.yul\":5755:5792   */\n      mstore\n        /* \"#utility.yul\":5690:5798   */\n      pop\n      pop\n      jump\t// out\n        /* \"#utility.yul\":5804:5912   */\n    tag_199:\n        /* \"#utility.yul\":5881:5905   */\n      tag_301\n        /* \"#utility.yul\":5899:5904   */\n      dup2\n        /* \"#utility.yul\":5881:5905   */\n      tag_180\n      jump\t// in\n    tag_301:\n        /* \"#utility.yul\":5876:5879   */\n      dup3\n        /* \"#utility.yul\":5869:5906   */\n      mstore\n        /* \"#utility.yul\":5804:5912   */\n      pop\n      pop\n      jump\t// out\n        /* \"#utility.yul\":5918:6077   */\n    tag_200:\n        /* \"#utility.yul\":5992:6003   */\n      0x00\n        /* \"#utility.yul\":6026:6032   */\n      dup3\n        /* \"#utility.yul\":6021:6024   */\n      dup3\n        /* \"#utility.yul\":6014:6033   */\n      mstore\n        /* \"#utility.yul\":6066:6070   */\n      0x20\n        /* \"#utility.yul\":6061:6064   */\n      dup3\n        /* \"#utility.yul\":6057:6071   */\n      add\n        /* \"#utility.yul\":6042:6071   */\n      swap1\n      pop\n        /* \"#utility.yul\":5918:6077   */\n      swap3\n      swap2\n      pop\n      pop\n      jump\t// out\n        /* \"#utility.yul\":6083:6440   */\n    tag_201:\n        /* \"#utility.yul\":6161:6164   */\n      0x00\n        /* \"#utility.yul\":6189:6228   */\n      tag_304\n        /* \"#utility.yul\":6222:6227   */\n      dup3\n        /* \"#utility.yul\":6189:6228   */\n      tag_189\n      jump\t// in\n    tag_304:\n        /* \"#utility.yul\":6244:6305   */\n      tag_305\n        /* \"#utility.yul\":6298:6304   */\n      dup2\n        /* \"#utility.yul\":6293:6296   */\n      dup6\n        /* \"#utility.yul\":6244:6305   */\n      tag_200\n      jump\t// in\n    tag_305:\n        /* \"#utility.yul\":6237:6305   */\n      swap4\n      pop\n        /* \"#utility.yul\":6314:6379   */\n      tag_306\n        /* \"#utility.yul\":6372:6378   */\n      dup2\n        /* \"#utility.yul\":6367:6370   */\n      dup6\n        /* \"#utility.yul\":6360:6364   */\n      0x20\n        /* \"#utility.yul\":6353:6358   */\n      dup7\n        /* \"#utility.yul\":6349:6365   */\n      add\n        /* \"#utility.yul\":6314:6379   */\n      tag_191\n      jump\t// in\n    tag_306:\n        /* \"#utility.yul\":6404:6433   */\n      tag_307\n        /* \"#utility.yul\":6426:6432   */\n      dup2\n        /* \"#utility.yul\":6404:6433   */\n      tag_192\n      jump\t// in\n    tag_307:\n        /* \"#utility.yul\":6399:6402   */\n      dup5\n        /* \"#utility.yul\":6395:6434   */\n      add\n        /* \"#utility.yul\":6388:6434   */\n      swap2\n      pop\n        /* \"#utility.yul\":6165:6440   */\n      pop\n        /* \"#utility.yul\":6083:6440   */\n      swap3\n      swap2\n      pop\n      pop\n      jump\t// out\n        /* \"#utility.yul\":6510:7454   */\n    tag_202:\n        /* \"#utility.yul\":6611:6614   */\n      0x00\n        /* \"#utility.yul\":6647:6651   */\n      0x80\n        /* \"#utility.yul\":6642:6645   */\n      dup4\n        /* \"#utility.yul\":6638:6652   */\n      add\n        /* \"#utility.yul\":6732:6736   */\n      0x00\n        /* \"#utility.yul\":6725:6730   */\n      dup4\n        /* \"#utility.yul\":6721:6737   */\n      add\n        /* \"#utility.yul\":6715:6738   */\n      mload\n        /* \"#utility.yul\":6751:6814   */\n      tag_309\n        /* \"#utility.yul\":6808:6812   */\n      0x00\n        /* \"#utility.yul\":6803:6806   */\n      dup7\n        /* \"#utility.yul\":6799:6813   */\n      add\n        /* \"#utility.yul\":6785:6797   */\n      dup3\n        /* \"#utility.yul\":6751:6814   */\n      tag_198\n      jump\t// in\n    tag_309:\n        /* \"#utility.yul\":6662:6824   */\n      pop\n        /* \"#utility.yul\":6908:6912   */\n      0x20\n        /* \"#utility.yul\":6901:6906   */\n      dup4\n        /* \"#utility.yul\":6897:6913   */\n      add\n        /* \"#utility.yul\":6891:6914   */\n      mload\n        /* \"#utility.yul\":6927:6990   */\n      tag_310\n        /* \"#utility.yul\":6984:6988   */\n      0x20\n        /* \"#utility.yul\":6979:6982   */\n      dup7\n        /* \"#utility.yul\":6975:6989   */\n      add\n        /* \"#utility.yul\":6961:6973   */\n      dup3\n        /* \"#utility.yul\":6927:6990   */\n      tag_199\n      jump\t// in\n    tag_310:\n        /* \"#utility.yul\":6834:7000   */\n      pop\n        /* \"#utility.yul\":7085:7089   */\n      0x40\n        /* \"#utility.yul\":7078:7083   */\n      dup4\n        /* \"#utility.yul\":7074:7090   */\n      add\n        /* \"#utility.yul\":7068:7091   */\n      mload\n        /* \"#utility.yul\":7138:7141   */\n      dup5\n        /* \"#utility.yul\":7132:7136   */\n      dup3\n        /* \"#utility.yul\":7128:7142   */\n      sub\n        /* \"#utility.yul\":7121:7125   */\n      0x40\n        /* \"#utility.yul\":7116:7119   */\n      dup7\n        /* \"#utility.yul\":7112:7126   */\n      add\n        /* \"#utility.yul\":7105:7143   */\n      mstore\n        /* \"#utility.yul\":7164:7237   */\n      tag_311\n        /* \"#utility.yul\":7232:7236   */\n      dup3\n        /* \"#utility.yul\":7218:7230   */\n      dup3\n        /* \"#utility.yul\":7164:7237   */\n      tag_201\n      jump\t// in\n    tag_311:\n        /* \"#utility.yul\":7156:7237   */\n      swap2\n      pop\n        /* \"#utility.yul\":7010:7248   */\n      pop\n        /* \"#utility.yul\":7335:7339   */\n      0x60\n        /* \"#utility.yul\":7328:7333   */\n      dup4\n        /* \"#utility.yul\":7324:7340   */\n      add\n        /* \"#utility.yul\":7318:7341   */\n      mload\n        /* \"#utility.yul\":7354:7417   */\n      tag_312\n        /* \"#utility.yul\":7411:7415   */\n      0x60\n        /* \"#utility.yul\":7406:7409   */\n      dup7\n        /* \"#utility.yul\":7402:7416   */\n      add\n        /* \"#utility.yul\":7388:7400   */\n      dup3\n        /* \"#utility.yul\":7354:7417   */\n      tag_198\n      jump\t// in\n    tag_312:\n        /* \"#utility.yul\":7258:7427   */\n      pop\n        /* \"#utility.yul\":7444:7448   */\n      dup1\n        /* \"#utility.yul\":7437:7448   */\n      swap2\n      pop\n        /* \"#utility.yul\":6616:7454   */\n      pop\n        /* \"#utility.yul\":6510:7454   */\n      swap3\n      swap2\n      pop\n      pop\n      jump\t// out\n        /* \"#utility.yul\":7460:7700   */\n    tag_203:\n        /* \"#utility.yul\":7571:7581   */\n      0x00\n        /* \"#utility.yul\":7606:7694   */\n      tag_314\n        /* \"#utility.yul\":7690:7693   */\n      dup4\n        /* \"#utility.yul\":7682:7688   */\n      dup4\n        /* \"#utility.yul\":7606:7694   */\n      tag_202\n      jump\t// in\n    tag_314:\n        /* \"#utility.yul\":7592:7694   */\n      swap1\n      pop\n        /* \"#utility.yul\":7460:7700   */\n      swap3\n      swap2\n      pop\n      pop\n      jump\t// out\n        /* \"#utility.yul\":7706:7840   */\n    tag_204:\n        /* \"#utility.yul\":7797:7801   */\n      0x00\n        /* \"#utility.yul\":7829:7833   */\n      0x20\n        /* \"#utility.yul\":7824:7827   */\n      dup3\n        /* \"#utility.yul\":7820:7834   */\n      add\n        /* \"#utility.yul\":7812:7834   */\n      swap1\n      pop\n        /* \"#utility.yul\":7706:7840   */\n      swap2\n      swap1\n      pop\n      jump\t// out\n        /* \"#utility.yul\":7914:8993   */\n    tag_205:\n        /* \"#utility.yul\":8075:8078   */\n      0x00\n        /* \"#utility.yul\":8104:8179   */\n      tag_317\n        /* \"#utility.yul\":8173:8178   */\n      dup3\n        /* \"#utility.yul\":8104:8179   */\n      tag_195\n      jump\t// in\n    tag_317:\n        /* \"#utility.yul\":8195:8302   */\n      tag_318\n        /* \"#utility.yul\":8295:8301   */\n      dup2\n        /* \"#utility.yul\":8290:8293   */\n      dup6\n        /* \"#utility.yul\":8195:8302   */\n      tag_196\n      jump\t// in\n    tag_318:\n        /* \"#utility.yul\":8188:8302   */\n      swap4\n      pop\n        /* \"#utility.yul\":8328:8331   */\n      dup4\n        /* \"#utility.yul\":8373:8377   */\n      0x20\n        /* \"#utility.yul\":8365:8371   */\n      dup3\n        /* \"#utility.yul\":8361:8378   */\n      mul\n        /* \"#utility.yul\":8356:8359   */\n      dup6\n        /* \"#utility.yul\":8352:8379   */\n      add\n        /* \"#utility.yul\":8403:8480   */\n      tag_319\n        /* \"#utility.yul\":8474:8479   */\n      dup6\n        /* \"#utility.yul\":8403:8480   */\n      tag_197\n      jump\t// in\n    tag_319:\n        /* \"#utility.yul\":8503:8510   */\n      dup1\n        /* \"#utility.yul\":8534:8535   */\n      0x00\n        /* \"#utility.yul\":8519:8948   */\n    tag_320:\n        /* \"#utility.yul\":8544:8550   */\n      dup6\n        /* \"#utility.yul\":8541:8542   */\n      dup2\n        /* \"#utility.yul\":8538:8551   */\n      lt\n        /* \"#utility.yul\":8519:8948   */\n      iszero\n      tag_322\n      jumpi\n        /* \"#utility.yul\":8615:8624   */\n      dup5\n        /* \"#utility.yul\":8609:8613   */\n      dup5\n        /* \"#utility.yul\":8605:8625   */\n      sub\n        /* \"#utility.yul\":8600:8603   */\n      dup10\n        /* \"#utility.yul\":8593:8626   */\n      mstore\n        /* \"#utility.yul\":8666:8672   */\n      dup2\n        /* \"#utility.yul\":8660:8673   */\n      mload\n        /* \"#utility.yul\":8694:8800   */\n      tag_323\n        /* \"#utility.yul\":8795:8799   */\n      dup6\n        /* \"#utility.yul\":8780:8793   */\n      dup3\n        /* \"#utility.yul\":8694:8800   */\n      tag_203\n      jump\t// in\n    tag_323:\n        /* \"#utility.yul\":8686:8800   */\n      swap5\n      pop\n        /* \"#utility.yul\":8823:8904   */\n      tag_324\n        /* \"#utility.yul\":8897:8903   */\n      dup4\n        /* \"#utility.yul\":8823:8904   */\n      tag_204\n      jump\t// in\n    tag_324:\n        /* \"#utility.yul\":8813:8904   */\n      swap3\n      pop\n        /* \"#utility.yul\":8933:8937   */\n      0x20\n        /* \"#utility.yul\":8928:8931   */\n      dup11\n        /* \"#utility.yul\":8924:8938   */\n      add\n        /* \"#utility.yul\":8917:8938   */\n      swap10\n      pop\n        /* \"#utility.yul\":8579:8948   */\n      pop\n        /* \"#utility.yul\":8566:8567   */\n      0x01\n        /* \"#utility.yul\":8563:8564   */\n      dup2\n        /* \"#utility.yul\":8559:8568   */\n      add\n        /* \"#utility.yul\":8554:8568   */\n      swap1\n      pop\n        /* \"#utility.yul\":8519:8948   */\n      jump(tag_320)\n    tag_322:\n        /* \"#utility.yul\":8523:8537   */\n      pop\n        /* \"#utility.yul\":8964:8968   */\n      dup3\n        /* \"#utility.yul\":8957:8968   */\n      swap8\n      pop\n        /* \"#utility.yul\":8984:8987   */\n      dup8\n        /* \"#utility.yul\":8977:8987   */\n      swap6\n      pop\n        /* \"#utility.yul\":8080:8993   */\n      pop\n      pop\n      pop\n      pop\n      pop\n        /* \"#utility.yul\":7914:8993   */\n      swap3\n      swap2\n      pop\n      pop\n      jump\t// out\n        /* \"#utility.yul\":8999:9456   */\n    tag_41:\n        /* \"#utility.yul\":9184:9188   */\n      0x00\n        /* \"#utility.yul\":9222:9224   */\n      0x20\n        /* \"#utility.yul\":9211:9220   */\n      dup3\n        /* \"#utility.yul\":9207:9225   */\n      add\n        /* \"#utility.yul\":9199:9225   */\n      swap1\n      pop\n        /* \"#utility.yul\":9271:9280   */\n      dup2\n        /* \"#utility.yul\":9265:9269   */\n      dup2\n        /* \"#utility.yul\":9261:9281   */\n      sub\n        /* \"#utility.yul\":9257:9258   */\n      0x00\n        /* \"#utility.yul\":9246:9255   */\n      dup4\n        /* \"#utility.yul\":9242:9259   */\n      add\n        /* \"#utility.yul\":9235:9282   */\n      mstore\n        /* \"#utility.yul\":9299:9449   */\n      tag_326\n        /* \"#utility.yul\":9444:9448   */\n      dup2\n        /* \"#utility.yul\":9435:9441   */\n      dup5\n        /* \"#utility.yul\":9299:9449   */\n      tag_205\n      jump\t// in\n    tag_326:\n        /* \"#utility.yul\":9291:9449   */\n      swap1\n      pop\n        /* \"#utility.yul\":8999:9456   */\n      swap3\n      swap2\n      pop\n      pop\n      jump\t// out\n        /* \"#utility.yul\":9462:9684   */\n    tag_46:\n        /* \"#utility.yul\":9555:9559   */\n      0x00\n        /* \"#utility.yul\":9593:9595   */\n      0x20\n        /* \"#utility.yul\":9582:9591   */\n      dup3\n        /* \"#utility.yul\":9578:9596   */\n      add\n        /* \"#utility.yul\":9570:9596   */\n      swap1\n      pop\n        /* \"#utility.yul\":9606:9677   */\n      tag_328\n        /* \"#utility.yul\":9674:9675   */\n      0x00\n        /* \"#utility.yul\":9663:9672   */\n      dup4\n        /* \"#utility.yul\":9659:9676   */\n      add\n        /* \"#utility.yul\":9650:9656   */\n      dup5\n        /* \"#utility.yul\":9606:9677   */\n      tag_194\n      jump\t// in\n    tag_328:\n        /* \"#utility.yul\":9462:9684   */\n      swap3\n      swap2\n      pop\n      pop\n      jump\t// out\n        /* \"#utility.yul\":9690:9912   */\n    tag_54:\n        /* \"#utility.yul\":9783:9787   */\n      0x00\n        /* \"#utility.yul\":9821:9823   */\n      0x20\n        /* \"#utility.yul\":9810:9819   */\n      dup3\n        /* \"#utility.yul\":9806:9824   */\n      add\n        /* \"#utility.yul\":9798:9824   */\n      swap1\n      pop\n        /* \"#utility.yul\":9834:9905   */\n      tag_330\n        /* \"#utility.yul\":9902:9903   */\n      0x00\n        /* \"#utility.yul\":9891:9900   */\n      dup4\n        /* \"#utility.yul\":9887:9904   */\n      add\n        /* \"#utility.yul\":9878:9884   */\n      dup5\n        /* \"#utility.yul\":9834:9905   */\n      tag_188\n      jump\t// in\n    tag_330:\n        /* \"#utility.yul\":9690:9912   */\n      swap3\n      swap2\n      pop\n      pop\n      jump\t// out\n        /* \"#utility.yul\":9918:10035   */\n    tag_206:\n        /* \"#utility.yul\":10027:10028   */\n      0x00\n        /* \"#utility.yul\":10024:10025   */\n      0x00\n        /* \"#utility.yul\":10017:10029   */\n      revert\n        /* \"#utility.yul\":10041:10158   */\n    tag_207:\n        /* \"#utility.yul\":10150:10151   */\n      0x00\n        /* \"#utility.yul\":10147:10148   */\n      0x00\n        /* \"#utility.yul\":10140:10152   */\n      revert\n        /* \"#utility.yul\":10164:10344   */\n    tag_100:\n        /* \"#utility.yul\":10212:10289   */\n      0x4e487b7100000000000000000000000000000000000000000000000000000000\n        /* \"#utility.yul\":10209:10210   */\n      0x00\n        /* \"#utility.yul\":10202:10290   */\n      mstore\n        /* \"#utility.yul\":10309:10313   */\n      0x41\n        /* \"#utility.yul\":10306:10307   */\n      0x04\n        /* \"#utility.yul\":10299:10314   */\n      mstore\n        /* \"#utility.yul\":10333:10337   */\n      0x24\n        /* \"#utility.yul\":10330:10331   */\n      0x00\n        /* \"#utility.yul\":10323:10338   */\n      revert\n        /* \"#utility.yul\":10350:10631   */\n    tag_208:\n        /* \"#utility.yul\":10433:10460   */\n      tag_335\n        /* \"#utility.yul\":10455:10459   */\n      dup3\n        /* \"#utility.yul\":10433:10460   */\n      tag_192\n      jump\t// in\n    tag_335:\n        /* \"#utility.yul\":10425:10431   */\n      dup2\n        /* \"#utility.yul\":10421:10461   */\n      add\n        /* \"#utility.yul\":10563:10569   */\n      dup2\n        /* \"#utility.yul\":10551:10561   */\n      dup2\n        /* \"#utility.yul\":10548:10570   */\n      lt\n        /* \"#utility.yul\":10527:10545   */\n      0xffffffffffffffff\n        /* \"#utility.yul\":10515:10525   */\n      dup3\n        /* \"#utility.yul\":10512:10546   */\n      gt\n        /* \"#utility.yul\":10509:10571   */\n      or\n        /* \"#utility.yul\":10506:10594   */\n      iszero\n      tag_336\n      jumpi\n        /* \"#utility.yul\":10574:10592   */\n      tag_337\n      tag_100\n      jump\t// in\n    tag_337:\n        /* \"#utility.yul\":10506:10594   */\n    tag_336:\n        /* \"#utility.yul\":10614:10624   */\n      dup1\n        /* \"#utility.yul\":10610:10612   */\n      0x40\n        /* \"#utility.yul\":10603:10625   */\n      mstore\n        /* \"#utility.yul\":10393:10631   */\n      pop\n        /* \"#utility.yul\":10350:10631   */\n      pop\n      pop\n      jump\t// out\n        /* \"#utility.yul\":10637:10766   */\n    tag_209:\n        /* \"#utility.yul\":10671:10677   */\n      0x00\n        /* \"#utility.yul\":10698:10718   */\n      tag_339\n      tag_176\n      jump\t// in\n    tag_339:\n        /* \"#utility.yul\":10688:10718   */\n      swap1\n      pop\n        /* \"#utility.yul\":10727:10760   */\n      tag_340\n        /* \"#utility.yul\":10755:10759   */\n      dup3\n        /* \"#utility.yul\":10747:10753   */\n      dup3\n        /* \"#utility.yul\":10727:10760   */\n      tag_208\n      jump\t// in\n    tag_340:\n        /* \"#utility.yul\":10637:10766   */\n      swap2\n      swap1\n      pop\n      jump\t// out\n        /* \"#utility.yul\":10772:11080   */\n    tag_210:\n        /* \"#utility.yul\":10834:10838   */\n      0x00\n        /* \"#utility.yul\":10924:10942   */\n      0xffffffffffffffff\n        /* \"#utility.yul\":10916:10922   */\n      dup3\n        /* \"#utility.yul\":10913:10943   */\n      gt\n        /* \"#utility.yul\":10910:10966   */\n      iszero\n      tag_342\n      jumpi\n        /* \"#utility.yul\":10946:10964   */\n      tag_343\n      tag_100\n      jump\t// in\n    tag_343:\n        /* \"#utility.yul\":10910:10966   */\n    tag_342:\n        /* \"#utility.yul\":10984:11013   */\n      tag_344\n        /* \"#utility.yul\":11006:11012   */\n      dup3\n        /* \"#utility.yul\":10984:11013   */\n      tag_192\n      jump\t// in\n    tag_344:\n        /* \"#utility.yul\":10976:11013   */\n      swap1\n      pop\n        /* \"#utility.yul\":11068:11072   */\n      0x20\n        /* \"#utility.yul\":11062:11066   */\n      dup2\n        /* \"#utility.yul\":11058:11073   */\n      add\n        /* \"#utility.yul\":11050:11073   */\n      swap1\n      pop\n        /* \"#utility.yul\":10772:11080   */\n      swap2\n      swap1\n      pop\n      jump\t// out\n        /* \"#utility.yul\":11086:11234   */\n    tag_211:\n        /* \"#utility.yul\":11184:11190   */\n      dup3\n        /* \"#utility.yul\":11179:11182   */\n      dup2\n        /* \"#utility.yul\":11174:11177   */\n      dup4\n        /* \"#utility.yul\":11161:11191   */\n      calldatacopy\n        /* \"#utility.yul\":11225:11226   */\n      0x00\n        /* \"#utility.yul\":11216:11222   */\n      dup4\n        /* \"#utility.yul\":11211:11214   */\n      dup4\n        /* \"#utility.yul\":11207:11223   */\n      add\n        /* \"#utility.yul\":11200:11227   */\n      mstore\n        /* \"#utility.yul\":11086:11234   */\n      pop\n      pop\n      pop\n      jump\t// out\n        /* \"#utility.yul\":11240:11665   */\n    tag_212:\n        /* \"#utility.yul\":11318:11323   */\n      0x00\n        /* \"#utility.yul\":11343:11409   */\n      tag_347\n        /* \"#utility.yul\":11359:11408   */\n      tag_348\n        /* \"#utility.yul\":11401:11407   */\n      dup5\n        /* \"#utility.yul\":11359:11408   */\n      tag_210\n      jump\t// in\n    tag_348:\n        /* \"#utility.yul\":11343:11409   */\n      tag_209\n      jump\t// in\n    tag_347:\n        /* \"#utility.yul\":11334:11409   */\n      swap1\n      pop\n        /* \"#utility.yul\":11432:11438   */\n      dup3\n        /* \"#utility.yul\":11425:11430   */\n      dup2\n        /* \"#utility.yul\":11418:11439   */\n      mstore\n        /* \"#utility.yul\":11470:11474   */\n      0x20\n        /* \"#utility.yul\":11463:11468   */\n      dup2\n        /* \"#utility.yul\":11459:11475   */\n      add\n        /* \"#utility.yul\":11508:11511   */\n      dup5\n        /* \"#utility.yul\":11499:11505   */\n      dup5\n        /* \"#utility.yul\":11494:11497   */\n      dup5\n        /* \"#utility.yul\":11490:11506   */\n      add\n        /* \"#utility.yul\":11487:11512   */\n      gt\n        /* \"#utility.yul\":11484:11596   */\n      iszero\n      tag_349\n      jumpi\n        /* \"#utility.yul\":11515:11594   */\n      tag_350\n      tag_207\n      jump\t// in\n    tag_350:\n        /* \"#utility.yul\":11484:11596   */\n    tag_349:\n        /* \"#utility.yul\":11605:11659   */\n      tag_351\n        /* \"#utility.yul\":11652:11658   */\n      dup5\n        /* \"#utility.yul\":11647:11650   */\n      dup3\n        /* \"#utility.yul\":11642:11645   */\n      dup6\n        /* \"#utility.yul\":11605:11659   */\n      tag_211\n      jump\t// in\n    tag_351:\n        /* \"#utility.yul\":11324:11665   */\n      pop\n        /* \"#utility.yul\":11240:11665   */\n      swap4\n      swap3\n      pop\n      pop\n      pop\n      jump\t// out\n        /* \"#utility.yul\":11685:12025   */\n    tag_213:\n        /* \"#utility.yul\":11741:11746   */\n      0x00\n        /* \"#utility.yul\":11790:11793   */\n      dup3\n        /* \"#utility.yul\":11783:11787   */\n      0x1f\n        /* \"#utility.yul\":11775:11781   */\n      dup4\n        /* \"#utility.yul\":11771:11788   */\n      add\n        /* \"#utility.yul\":11767:11794   */\n      slt\n        /* \"#utility.yul\":11757:11879   */\n      tag_353\n      jumpi\n        /* \"#utility.yul\":11798:11877   */\n      tag_354\n      tag_206\n      jump\t// in\n    tag_354:\n        /* \"#utility.yul\":11757:11879   */\n    tag_353:\n        /* \"#utility.yul\":11915:11921   */\n      dup2\n        /* \"#utility.yul\":11902:11922   */\n      calldataload\n        /* \"#utility.yul\":11940:12019   */\n      tag_355\n        /* \"#utility.yul\":12015:12018   */\n      dup5\n        /* \"#utility.yul\":12007:12013   */\n      dup3\n        /* \"#utility.yul\":12000:12004   */\n      0x20\n        /* \"#utility.yul\":11992:11998   */\n      dup7\n        /* \"#utility.yul\":11988:12005   */\n      add\n        /* \"#utility.yul\":11940:12019   */\n      tag_212\n      jump\t// in\n    tag_355:\n        /* \"#utility.yul\":11931:12019   */\n      swap2\n      pop\n        /* \"#utility.yul\":11747:12025   */\n      pop\n        /* \"#utility.yul\":11685:12025   */\n      swap3\n      swap2\n      pop\n      pop\n      jump\t// out\n        /* \"#utility.yul\":12031:12830   */\n    tag_57:\n        /* \"#utility.yul\":12118:12124   */\n      0x00\n        /* \"#utility.yul\":12126:12132   */\n      0x00\n        /* \"#utility.yul\":12134:12140   */\n      0x00\n        /* \"#utility.yul\":12183:12185   */\n      0x60\n        /* \"#utility.yul\":12171:12180   */\n      dup5\n        /* \"#utility.yul\":12162:12169   */\n      dup7\n        /* \"#utility.yul\":12158:12181   */\n      sub\n        /* \"#utility.yul\":12154:12186   */\n      slt\n        /* \"#utility.yul\":12151:12270   */\n      iszero\n      tag_357\n      jumpi\n        /* \"#utility.yul\":12189:12268   */\n      tag_358\n      tag_177\n      jump\t// in\n    tag_358:\n        /* \"#utility.yul\":12151:12270   */\n    tag_357:\n        /* \"#utility.yul\":12309:12310   */\n      0x00\n        /* \"#utility.yul\":12334:12387   */\n      tag_359\n        /* \"#utility.yul\":12379:12386   */\n      dup7\n        /* \"#utility.yul\":12370:12376   */\n      dup3\n        /* \"#utility.yul\":12359:12368   */\n      dup8\n        /* \"#utility.yul\":12355:12377   */\n      add\n        /* \"#utility.yul\":12334:12387   */\n      tag_182\n      jump\t// in\n    tag_359:\n        /* \"#utility.yul\":12324:12387   */\n      swap4\n      pop\n        /* \"#utility.yul\":12280:12397   */\n      pop\n        /* \"#utility.yul\":12436:12438   */\n      0x20\n        /* \"#utility.yul\":12462:12515   */\n      tag_360\n        /* \"#utility.yul\":12507:12514   */\n      dup7\n        /* \"#utility.yul\":12498:12504   */\n      dup3\n        /* \"#utility.yul\":12487:12496   */\n      dup8\n        /* \"#utility.yul\":12483:12505   */\n      add\n        /* \"#utility.yul\":12462:12515   */\n      tag_182\n      jump\t// in\n    tag_360:\n        /* \"#utility.yul\":12452:12515   */\n      swap3\n      pop\n        /* \"#utility.yul\":12407:12525   */\n      pop\n        /* \"#utility.yul\":12592:12594   */\n      0x40\n        /* \"#utility.yul\":12581:12590   */\n      dup5\n        /* \"#utility.yul\":12577:12595   */\n      add\n        /* \"#utility.yul\":12564:12596   */\n      calldataload\n        /* \"#utility.yul\":12623:12641   */\n      0xffffffffffffffff\n        /* \"#utility.yul\":12615:12621   */\n      dup2\n        /* \"#utility.yul\":12612:12642   */\n      gt\n        /* \"#utility.yul\":12609:12726   */\n      iszero\n      tag_361\n      jumpi\n        /* \"#utility.yul\":12645:12724   */\n      tag_362\n      tag_178\n      jump\t// in\n    tag_362:\n        /* \"#utility.yul\":12609:12726   */\n    tag_361:\n        /* \"#utility.yul\":12750:12813   */\n      tag_363\n        /* \"#utility.yul\":12805:12812   */\n      dup7\n        /* \"#utility.yul\":12796:12802   */\n      dup3\n        /* \"#utility.yul\":12785:12794   */\n      dup8\n        /* \"#utility.yul\":12781:12803   */\n      add\n        /* \"#utility.yul\":12750:12813   */\n      tag_213\n      jump\t// in\n    tag_363:\n        /* \"#utility.yul\":12740:12813   */\n      swap2\n      pop\n        /* \"#utility.yul\":12535:12823   */\n      pop\n        /* \"#utility.yul\":12031:12830   */\n      swap3\n      pop\n      swap3\n      pop\n      swap3\n      jump\t// out\n        /* \"#utility.yul\":12836:13490   */\n    tag_61:\n        /* \"#utility.yul\":12914:12920   */\n      0x00\n        /* \"#utility.yul\":12922:12928   */\n      0x00\n        /* \"#utility.yul\":12971:12973   */\n      0x40\n        /* \"#utility.yul\":12959:12968   */\n      dup4\n        /* \"#utility.yul\":12950:12957   */\n      dup6\n        /* \"#utility.yul\":12946:12969   */\n      sub\n        /* \"#utility.yul\":12942:12974   */\n      slt\n        /* \"#utility.yul\":12939:13058   */\n      iszero\n      tag_365\n      jumpi\n        /* \"#utility.yul\":12977:13056   */\n      tag_366\n      tag_177\n      jump\t// in\n    tag_366:\n        /* \"#utility.yul\":12939:13058   */\n    tag_365:\n        /* \"#utility.yul\":13125:13126   */\n      0x00\n        /* \"#utility.yul\":13114:13123   */\n      dup4\n        /* \"#utility.yul\":13110:13127   */\n      add\n        /* \"#utility.yul\":13097:13128   */\n      calldataload\n        /* \"#utility.yul\":13155:13173   */\n      0xffffffffffffffff\n        /* \"#utility.yul\":13147:13153   */\n      dup2\n        /* \"#utility.yul\":13144:13174   */\n      gt\n        /* \"#utility.yul\":13141:13258   */\n      iszero\n      tag_367\n      jumpi\n        /* \"#utility.yul\":13177:13256   */\n      tag_368\n      tag_178\n      jump\t// in\n    tag_368:\n        /* \"#utility.yul\":13141:13258   */\n    tag_367:\n        /* \"#utility.yul\":13282:13345   */\n      tag_369\n        /* \"#utility.yul\":13337:13344   */\n      dup6\n        /* \"#utility.yul\":13328:13334   */\n      dup3\n        /* \"#utility.yul\":13317:13326   */\n      dup7\n        /* \"#utility.yul\":13313:13335   */\n      add\n        /* \"#utility.yul\":13282:13345   */\n      tag_213\n      jump\t// in\n    tag_369:\n        /* \"#utility.yul\":13272:13345   */\n      swap3\n      pop\n        /* \"#utility.yul\":13068:13355   */\n      pop\n        /* \"#utility.yul\":13394:13396   */\n      0x20\n        /* \"#utility.yul\":13420:13473   */\n      tag_370\n        /* \"#utility.yul\":13465:13472   */\n      dup6\n        /* \"#utility.yul\":13456:13462   */\n      dup3\n        /* \"#utility.yul\":13445:13454   */\n      dup7\n        /* \"#utility.yul\":13441:13463   */\n      add\n        /* \"#utility.yul\":13420:13473   */\n      tag_182\n      jump\t// in\n    tag_370:\n        /* \"#utility.yul\":13410:13473   */\n      swap2\n      pop\n        /* \"#utility.yul\":13365:13483   */\n      pop\n        /* \"#utility.yul\":12836:13490   */\n      swap3\n      pop\n      swap3\n      swap1\n      pop\n      jump\t// out\n        /* \"#utility.yul\":13496:14150   */\n    tag_65:\n        /* \"#utility.yul\":13574:13580   */\n      0x00\n        /* \"#utility.yul\":13582:13588   */\n      0x00\n        /* \"#utility.yul\":13631:13633   */\n      0x40\n        /* \"#utility.yul\":13619:13628   */\n      dup4\n        /* \"#utility.yul\":13610:13617   */\n      dup6\n        /* \"#utility.yul\":13606:13629   */\n      sub\n        /* \"#utility.yul\":13602:13634   */\n      slt\n        /* \"#utility.yul\":13599:13718   */\n      iszero\n      tag_372\n      jumpi\n        /* \"#utility.yul\":13637:13716   */\n      tag_373\n      tag_177\n      jump\t// in\n    tag_373:\n        /* \"#utility.yul\":13599:13718   */\n    tag_372:\n        /* \"#utility.yul\":13757:13758   */\n      0x00\n        /* \"#utility.yul\":13782:13835   */\n      tag_374\n        /* \"#utility.yul\":13827:13834   */\n      dup6\n        /* \"#utility.yul\":13818:13824   */\n      dup3\n        /* \"#utility.yul\":13807:13816   */\n      dup7\n        /* \"#utility.yul\":13803:13825   */\n      add\n        /* \"#utility.yul\":13782:13835   */\n      tag_182\n      jump\t// in\n    tag_374:\n        /* \"#utility.yul\":13772:13835   */\n      swap3\n      pop\n        /* \"#utility.yul\":13728:13845   */\n      pop\n        /* \"#utility.yul\":13912:13914   */\n      0x20\n        /* \"#utility.yul\":13901:13910   */\n      dup4\n        /* \"#utility.yul\":13897:13915   */\n      add\n        /* \"#utility.yul\":13884:13916   */\n      calldataload\n        /* \"#utility.yul\":13943:13961   */\n      0xffffffffffffffff\n        /* \"#utility.yul\":13935:13941   */\n      dup2\n        /* \"#utility.yul\":13932:13962   */\n      gt\n        /* \"#utility.yul\":13929:14046   */\n      iszero\n      tag_375\n      jumpi\n        /* \"#utility.yul\":13965:14044   */\n      tag_376\n      tag_178\n      jump\t// in\n    tag_376:\n        /* \"#utility.yul\":13929:14046   */\n    tag_375:\n        /* \"#utility.yul\":14070:14133   */\n      tag_377\n        /* \"#utility.yul\":14125:14132   */\n      dup6\n        /* \"#utility.yul\":14116:14122   */\n      dup3\n        /* \"#utility.yul\":14105:14114   */\n      dup7\n        /* \"#utility.yul\":14101:14123   */\n      add\n        /* \"#utility.yul\":14070:14133   */\n      tag_213\n      jump\t// in\n    tag_377:\n        /* \"#utility.yul\":14060:14133   */\n      swap2\n      pop\n        /* \"#utility.yul\":13855:14143   */\n      pop\n        /* \"#utility.yul\":13496:14150   */\n      swap3\n      pop\n      swap3\n      swap1\n      pop\n      jump\t// out\n        /* \"#utility.yul\":14156:14800   */\n    tag_75:\n        /* \"#utility.yul\":14353:14357   */\n      0x00\n        /* \"#utility.yul\":14391:14394   */\n      0x80\n        /* \"#utility.yul\":14380:14389   */\n      dup3\n        /* \"#utility.yul\":14376:14395   */\n      add\n        /* \"#utility.yul\":14368:14395   */\n      swap1\n      pop\n        /* \"#utility.yul\":14405:14476   */\n      tag_379\n        /* \"#utility.yul\":14473:14474   */\n      0x00\n        /* \"#utility.yul\":14462:14471   */\n      dup4\n        /* \"#utility.yul\":14458:14475   */\n      add\n        /* \"#utility.yul\":14449:14455   */\n      dup8\n        /* \"#utility.yul\":14405:14476   */\n      tag_188\n      jump\t// in\n    tag_379:\n        /* \"#utility.yul\":14486:14558   */\n      tag_380\n        /* \"#utility.yul\":14554:14556   */\n      0x20\n        /* \"#utility.yul\":14543:14552   */\n      dup4\n        /* \"#utility.yul\":14539:14557   */\n      add\n        /* \"#utility.yul\":14530:14536   */\n      dup7\n        /* \"#utility.yul\":14486:14558   */\n      tag_194\n      jump\t// in\n    tag_380:\n        /* \"#utility.yul\":14605:14614   */\n      dup2\n        /* \"#utility.yul\":14599:14603   */\n      dup2\n        /* \"#utility.yul\":14595:14615   */\n      sub\n        /* \"#utility.yul\":14590:14592   */\n      0x40\n        /* \"#utility.yul\":14579:14588   */\n      dup4\n        /* \"#utility.yul\":14575:14593   */\n      add\n        /* \"#utility.yul\":14568:14616   */\n      mstore\n        /* \"#utility.yul\":14633:14711   */\n      tag_381\n        /* \"#utility.yul\":14706:14710   */\n      dup2\n        /* \"#utility.yul\":14697:14703   */\n      dup6\n        /* \"#utility.yul\":14633:14711   */\n      tag_193\n      jump\t// in\n    tag_381:\n        /* \"#utility.yul\":14625:14711   */\n      swap1\n      pop\n        /* \"#utility.yul\":14721:14793   */\n      tag_382\n        /* \"#utility.yul\":14789:14791   */\n      0x60\n        /* \"#utility.yul\":14778:14787   */\n      dup4\n        /* \"#utility.yul\":14774:14792   */\n      add\n        /* \"#utility.yul\":14765:14771   */\n      dup5\n        /* \"#utility.yul\":14721:14793   */\n      tag_188\n      jump\t// in\n    tag_382:\n        /* \"#utility.yul\":14156:14800   */\n      swap6\n      swap5\n      pop\n      pop\n      pop\n      pop\n      pop\n      jump\t// out\n        /* \"#utility.yul\":14806:15315   */\n    tag_78:\n        /* \"#utility.yul\":14875:14881   */\n      0x00\n        /* \"#utility.yul\":14924:14926   */\n      0x20\n        /* \"#utility.yul\":14912:14921   */\n      dup3\n        /* \"#utility.yul\":14903:14910   */\n      dup5\n        /* \"#utility.yul\":14899:14922   */\n      sub\n        /* \"#utility.yul\":14895:14927   */\n      slt\n        /* \"#utility.yul\":14892:15011   */\n      iszero\n      tag_384\n      jumpi\n        /* \"#utility.yul\":14930:15009   */\n      tag_385\n      tag_177\n      jump\t// in\n    tag_385:\n        /* \"#utility.yul\":14892:15011   */\n    tag_384:\n        /* \"#utility.yul\":15078:15079   */\n      0x00\n        /* \"#utility.yul\":15067:15076   */\n      dup3\n        /* \"#utility.yul\":15063:15080   */\n      add\n        /* \"#utility.yul\":15050:15081   */\n      calldataload\n        /* \"#utility.yul\":15108:15126   */\n      0xffffffffffffffff\n        /* \"#utility.yul\":15100:15106   */\n      dup2\n        /* \"#utility.yul\":15097:15127   */\n      gt\n        /* \"#utility.yul\":15094:15211   */\n      iszero\n      tag_386\n      jumpi\n        /* \"#utility.yul\":15130:15209   */\n      tag_387\n      tag_178\n      jump\t// in\n    tag_387:\n        /* \"#utility.yul\":15094:15211   */\n    tag_386:\n        /* \"#utility.yul\":15235:15298   */\n      tag_388\n        /* \"#utility.yul\":15290:15297   */\n      dup5\n        /* \"#utility.yul\":15281:15287   */\n      dup3\n        /* \"#utility.yul\":15270:15279   */\n      dup6\n        /* \"#utility.yul\":15266:15288   */\n      add\n        /* \"#utility.yul\":15235:15298   */\n      tag_213\n      jump\t// in\n    tag_388:\n        /* \"#utility.yul\":15225:15298   */\n      swap2\n      pop\n        /* \"#utility.yul\":15021:15308   */\n      pop\n        /* \"#utility.yul\":14806:15315   */\n      swap3\n      swap2\n      pop\n      pop\n      jump\t// out\n        /* \"#utility.yul\":15321:15501   */\n    tag_214:\n        /* \"#utility.yul\":15369:15446   */\n      0x4e487b7100000000000000000000000000000000000000000000000000000000\n        /* \"#utility.yul\":15366:15367   */\n      0x00\n        /* \"#utility.yul\":15359:15447   */\n      mstore\n        /* \"#utility.yul\":15466:15470   */\n      0x22\n        /* \"#utility.yul\":15463:15464   */\n      0x04\n        /* \"#utility.yul\":15456:15471   */\n      mstore\n        /* \"#utility.yul\":15490:15494   */\n      0x24\n        /* \"#utility.yul\":15487:15488   */\n      0x00\n        /* \"#utility.yul\":15480:15495   */\n      revert\n        /* \"#utility.yul\":15507:15827   */\n    tag_86:\n        /* \"#utility.yul\":15551:15557   */\n      0x00\n        /* \"#utility.yul\":15588:15589   */\n      0x02\n        /* \"#utility.yul\":15582:15586   */\n      dup3\n        /* \"#utility.yul\":15578:15590   */\n      div\n        /* \"#utility.yul\":15568:15590   */\n      swap1\n      pop\n        /* \"#utility.yul\":15635:15636   */\n      0x01\n        /* \"#utility.yul\":15629:15633   */\n      dup3\n        /* \"#utility.yul\":15625:15637   */\n      and\n        /* \"#utility.yul\":15656:15674   */\n      dup1\n        /* \"#utility.yul\":15646:15727   */\n      tag_391\n      jumpi\n        /* \"#utility.yul\":15712:15716   */\n      0x7f\n        /* \"#utility.yul\":15704:15710   */\n      dup3\n        /* \"#utility.yul\":15700:15717   */\n      and\n        /* \"#utility.yul\":15690:15717   */\n      swap2\n      pop\n        /* \"#utility.yul\":15646:15727   */\n    tag_391:\n        /* \"#utility.yul\":15774:15776   */\n      0x20\n        /* \"#utility.yul\":15766:15772   */\n      dup3\n        /* \"#utility.yul\":15763:15777   */\n      lt\n        /* \"#utility.yul\":15743:15761   */\n      dup2\n        /* \"#utility.yul\":15740:15778   */\n      sub\n        /* \"#utility.yul\":15737:15821   */\n      tag_392\n      jumpi\n        /* \"#utility.yul\":15793:15811   */\n      tag_393\n      tag_214\n      jump\t// in\n    tag_393:\n        /* \"#utility.yul\":15737:15821   */\n    tag_392:\n        /* \"#utility.yul\":15558:15827   */\n      pop\n        /* \"#utility.yul\":15507:15827   */\n      swap2\n      swap1\n      pop\n      jump\t// out\n        /* \"#utility.yul\":15833:16002   */\n    tag_215:\n        /* \"#utility.yul\":15973:15994   */\n      0x436f756e74206973206e6f742070726f70657200000000000000000000000000\n        /* \"#utility.yul\":15969:15970   */\n      0x00\n        /* \"#utility.yul\":15961:15967   */\n      dup3\n        /* \"#utility.yul\":15957:15971   */\n      add\n        /* \"#utility.yul\":15950:15995   */\n      mstore\n        /* \"#utility.yul\":15833:16002   */\n      pop\n      jump\t// out\n        /* \"#utility.yul\":16008:16374   */\n    tag_216:\n        /* \"#utility.yul\":16150:16153   */\n      0x00\n        /* \"#utility.yul\":16171:16238   */\n      tag_396\n        /* \"#utility.yul\":16235:16237   */\n      0x13\n        /* \"#utility.yul\":16230:16233   */\n      dup4\n        /* \"#utility.yul\":16171:16238   */\n      tag_190\n      jump\t// in\n    tag_396:\n        /* \"#utility.yul\":16164:16238   */\n      swap2\n      pop\n        /* \"#utility.yul\":16247:16340   */\n      tag_397\n        /* \"#utility.yul\":16336:16339   */\n      dup3\n        /* \"#utility.yul\":16247:16340   */\n      tag_215\n      jump\t// in\n    tag_397:\n        /* \"#utility.yul\":16365:16367   */\n      0x20\n        /* \"#utility.yul\":16360:16363   */\n      dup3\n        /* \"#utility.yul\":16356:16368   */\n      add\n        /* \"#utility.yul\":16349:16368   */\n      swap1\n      pop\n        /* \"#utility.yul\":16008:16374   */\n      swap2\n      swap1\n      pop\n      jump\t// out\n        /* \"#utility.yul\":16380:16799   */\n    tag_97:\n        /* \"#utility.yul\":16546:16550   */\n      0x00\n        /* \"#utility.yul\":16584:16586   */\n      0x20\n        /* \"#utility.yul\":16573:16582   */\n      dup3\n        /* \"#utility.yul\":16569:16587   */\n      add\n        /* \"#utility.yul\":16561:16587   */\n      swap1\n      pop\n        /* \"#utility.yul\":16633:16642   */\n      dup2\n        /* \"#utility.yul\":16627:16631   */\n      dup2\n        /* \"#utility.yul\":16623:16643   */\n      sub\n        /* \"#utility.yul\":16619:16620   */\n      0x00\n        /* \"#utility.yul\":16608:16617   */\n      dup4\n        /* \"#utility.yul\":16604:16621   */\n      add\n        /* \"#utility.yul\":16597:16644   */\n      mstore\n        /* \"#utility.yul\":16661:16792   */\n      tag_399\n        /* \"#utility.yul\":16787:16791   */\n      dup2\n        /* \"#utility.yul\":16661:16792   */\n      tag_216\n      jump\t// in\n    tag_399:\n        /* \"#utility.yul\":16653:16792   */\n      swap1\n      pop\n        /* \"#utility.yul\":16380:16799   */\n      swap2\n      swap1\n      pop\n      jump\t// out\n        /* \"#utility.yul\":16805:16985   */\n    tag_217:\n        /* \"#utility.yul\":16853:16930   */\n      0x4e487b7100000000000000000000000000000000000000000000000000000000\n        /* \"#utility.yul\":16850:16851   */\n      0x00\n        /* \"#utility.yul\":16843:16931   */\n      mstore\n        /* \"#utility.yul\":16950:16954   */\n      0x11\n        /* \"#utility.yul\":16947:16948   */\n      0x04\n        /* \"#utility.yul\":16940:16955   */\n      mstore\n        /* \"#utility.yul\":16974:16978   */\n      0x24\n        /* \"#utility.yul\":16971:16972   */\n      0x00\n        /* \"#utility.yul\":16964:16979   */\n      revert\n        /* \"#utility.yul\":16991:17185   */\n    tag_109:\n        /* \"#utility.yul\":17031:17035   */\n      0x00\n        /* \"#utility.yul\":17051:17071   */\n      tag_402\n        /* \"#utility.yul\":17069:17070   */\n      dup3\n        /* \"#utility.yul\":17051:17071   */\n      tag_185\n      jump\t// in\n    tag_402:\n        /* \"#utility.yul\":17046:17071   */\n      swap2\n      pop\n        /* \"#utility.yul\":17085:17105   */\n      tag_403\n        /* \"#utility.yul\":17103:17104   */\n      dup4\n        /* \"#utility.yul\":17085:17105   */\n      tag_185\n      jump\t// in\n    tag_403:\n        /* \"#utility.yul\":17080:17105   */\n      swap3\n      pop\n        /* \"#utility.yul\":17129:17130   */\n      dup3\n        /* \"#utility.yul\":17126:17127   */\n      dup3\n        /* \"#utility.yul\":17122:17131   */\n      sub\n        /* \"#utility.yul\":17114:17131   */\n      swap1\n      pop\n        /* \"#utility.yul\":17153:17154   */\n      dup2\n        /* \"#utility.yul\":17147:17151   */\n      dup2\n        /* \"#utility.yul\":17144:17155   */\n      gt\n        /* \"#utility.yul\":17141:17178   */\n      iszero\n      tag_404\n      jumpi\n        /* \"#utility.yul\":17158:17176   */\n      tag_405\n      tag_217\n      jump\t// in\n    tag_405:\n        /* \"#utility.yul\":17141:17178   */\n    tag_404:\n        /* \"#utility.yul\":16991:17185   */\n      swap3\n      swap2\n      pop\n      pop\n      jump\t// out\n        /* \"#utility.yul\":17191:17371   */\n    tag_117:\n        /* \"#utility.yul\":17239:17316   */\n      0x4e487b7100000000000000000000000000000000000000000000000000000000\n        /* \"#utility.yul\":17236:17237   */\n      0x00\n        /* \"#utility.yul\":17229:17317   */\n      mstore\n        /* \"#utility.yul\":17336:17340   */\n      0x32\n        /* \"#utility.yul\":17333:17334   */\n      0x04\n        /* \"#utility.yul\":17326:17341   */\n      mstore\n        /* \"#utility.yul\":17360:17364   */\n      0x24\n        /* \"#utility.yul\":17357:17358   */\n      0x00\n        /* \"#utility.yul\":17350:17365   */\n      revert\n        /* \"#utility.yul\":17377:17568   */\n    tag_119:\n        /* \"#utility.yul\":17417:17420   */\n      0x00\n        /* \"#utility.yul\":17436:17456   */\n      tag_408\n        /* \"#utility.yul\":17454:17455   */\n      dup3\n        /* \"#utility.yul\":17436:17456   */\n      tag_185\n      jump\t// in\n    tag_408:\n        /* \"#utility.yul\":17431:17456   */\n      swap2\n      pop\n        /* \"#utility.yul\":17470:17490   */\n      tag_409\n        /* \"#utility.yul\":17488:17489   */\n      dup4\n        /* \"#utility.yul\":17470:17490   */\n      tag_185\n      jump\t// in\n    tag_409:\n        /* \"#utility.yul\":17465:17490   */\n      swap3\n      pop\n        /* \"#utility.yul\":17513:17514   */\n      dup3\n        /* \"#utility.yul\":17510:17511   */\n      dup3\n        /* \"#utility.yul\":17506:17515   */\n      add\n        /* \"#utility.yul\":17499:17515   */\n      swap1\n      pop\n        /* \"#utility.yul\":17534:17537   */\n      dup1\n        /* \"#utility.yul\":17531:17532   */\n      dup3\n        /* \"#utility.yul\":17528:17538   */\n      gt\n        /* \"#utility.yul\":17525:17561   */\n      iszero\n      tag_410\n      jumpi\n        /* \"#utility.yul\":17541:17559   */\n      tag_411\n      tag_217\n      jump\t// in\n    tag_411:\n        /* \"#utility.yul\":17525:17561   */\n    tag_410:\n        /* \"#utility.yul\":17377:17568   */\n      swap3\n      swap2\n      pop\n      pop\n      jump\t// out\n        /* \"#utility.yul\":17574:17744   */\n    tag_218:\n        /* \"#utility.yul\":17714:17736   */\n      0x636f756e74206973206e6f7420646566696e6564000000000000000000000000\n        /* \"#utility.yul\":17710:17711   */\n      0x00\n        /* \"#utility.yul\":17702:17708   */\n      dup3\n        /* \"#utility.yul\":17698:17712   */\n      add\n        /* \"#utility.yul\":17691:17737   */\n      mstore\n        /* \"#utility.yul\":17574:17744   */\n      pop\n      jump\t// out\n        /* \"#utility.yul\":17750:18116   */\n    tag_219:\n        /* \"#utility.yul\":17892:17895   */\n      0x00\n        /* \"#utility.yul\":17913:17980   */\n      tag_414\n        /* \"#utility.yul\":17977:17979   */\n      0x14\n        /* \"#utility.yul\":17972:17975   */\n      dup4\n        /* \"#utility.yul\":17913:17980   */\n      tag_190\n      jump\t// in\n    tag_414:\n        /* \"#utility.yul\":17906:17980   */\n      swap2\n      pop\n        /* \"#utility.yul\":17989:18082   */\n      tag_415\n        /* \"#utility.yul\":18078:18081   */\n      dup3\n        /* \"#utility.yul\":17989:18082   */\n      tag_218\n      jump\t// in\n    tag_415:\n        /* \"#utility.yul\":18107:18109   */\n      0x20\n        /* \"#utility.yul\":18102:18105   */\n      dup3\n        /* \"#utility.yul\":18098:18110   */\n      add\n        /* \"#utility.yul\":18091:18110   */\n      swap1\n      pop\n        /* \"#utility.yul\":17750:18116   */\n      swap2\n      swap1\n      pop\n      jump\t// out\n        /* \"#utility.yul\":18122:18541   */\n    tag_144:\n        /* \"#utility.yul\":18288:18292   */\n      0x00\n        /* \"#utility.yul\":18326:18328   */\n      0x20\n        /* \"#utility.yul\":18315:18324   */\n      dup3\n        /* \"#utility.yul\":18311:18329   */\n      add\n        /* \"#utility.yul\":18303:18329   */\n      swap1\n      pop\n        /* \"#utility.yul\":18375:18384   */\n      dup2\n        /* \"#utility.yul\":18369:18373   */\n      dup2\n        /* \"#utility.yul\":18365:18385   */\n      sub\n        /* \"#utility.yul\":18361:18362   */\n      0x00\n        /* \"#utility.yul\":18350:18359   */\n      dup4\n        /* \"#utility.yul\":18346:18363   */\n      add\n        /* \"#utility.yul\":18339:18386   */\n      mstore\n        /* \"#utility.yul\":18403:18534   */\n      tag_417\n        /* \"#utility.yul\":18529:18533   */\n      dup2\n        /* \"#utility.yul\":18403:18534   */\n      tag_219\n      jump\t// in\n    tag_417:\n        /* \"#utility.yul\":18395:18534   */\n      swap1\n      pop\n        /* \"#utility.yul\":18122:18541   */\n      swap2\n      swap1\n      pop\n      jump\t// out\n        /* \"#utility.yul\":18547:18688   */\n    tag_220:\n        /* \"#utility.yul\":18596:18600   */\n      0x00\n        /* \"#utility.yul\":18619:18622   */\n      dup2\n        /* \"#utility.yul\":18611:18622   */\n      swap1\n      pop\n        /* \"#utility.yul\":18642:18645   */\n      dup2\n        /* \"#utility.yul\":18639:18640   */\n      0x00\n        /* \"#utility.yul\":18632:18646   */\n      mstore\n        /* \"#utility.yul\":18676:18680   */\n      0x20\n        /* \"#utility.yul\":18673:18674   */\n      0x00\n        /* \"#utility.yul\":18663:18681   */\n      keccak256\n        /* \"#utility.yul\":18655:18681   */\n      swap1\n      pop\n        /* \"#utility.yul\":18547:18688   */\n      swap2\n      swap1\n      pop\n      jump\t// out\n        /* \"#utility.yul\":18694:18787   */\n    tag_221:\n        /* \"#utility.yul\":18731:18737   */\n      0x00\n        /* \"#utility.yul\":18778:18780   */\n      0x20\n        /* \"#utility.yul\":18773:18775   */\n      0x1f\n        /* \"#utility.yul\":18766:18771   */\n      dup4\n        /* \"#utility.yul\":18762:18776   */\n      add\n        /* \"#utility.yul\":18758:18781   */\n      div\n        /* \"#utility.yul\":18748:18781   */\n      swap1\n      pop\n        /* \"#utility.yul\":18694:18787   */\n      swap2\n      swap1\n      pop\n      jump\t// out\n        /* \"#utility.yul\":18793:18900   */\n    tag_222:\n        /* \"#utility.yul\":18837:18845   */\n      0x00\n        /* \"#utility.yul\":18887:18892   */\n      dup3\n        /* \"#utility.yul\":18881:18885   */\n      dup3\n        /* \"#utility.yul\":18877:18893   */\n      shl\n        /* \"#utility.yul\":18856:18893   */\n      swap1\n      pop\n        /* \"#utility.yul\":18793:18900   */\n      swap3\n      swap2\n      pop\n      pop\n      jump\t// out\n        /* \"#utility.yul\":18906:19299   */\n    tag_223:\n        /* \"#utility.yul\":18975:18981   */\n      0x00\n        /* \"#utility.yul\":19025:19026   */\n      0x08\n        /* \"#utility.yul\":19013:19023   */\n      dup4\n        /* \"#utility.yul\":19009:19027   */\n      mul\n        /* \"#utility.yul\":19048:19145   */\n      tag_422\n        /* \"#utility.yul\":19078:19144   */\n      0xffffffffffffffffffffffffffffffffffffffffffffffffffffffffffffffff\n        /* \"#utility.yul\":19067:19076   */\n      dup3\n        /* \"#utility.yul\":19048:19145   */\n      tag_222\n      jump\t// in\n    tag_422:\n        /* \"#utility.yul\":19166:19205   */\n      tag_423\n        /* \"#utility.yul\":19196:19204   */\n      dup7\n        /* \"#utility.yul\":19185:19194   */\n      dup4\n        /* \"#utility.yul\":19166:19205   */\n      tag_222\n      jump\t// in\n    tag_423:\n        /* \"#utility.yul\":19154:19205   */\n      swap6\n      pop\n        /* \"#utility.yul\":19238:19242   */\n      dup1\n        /* \"#utility.yul\":19234:19243   */\n      not\n        /* \"#utility.yul\":19227:19232   */\n      dup5\n        /* \"#utility.yul\":19223:19244   */\n      and\n        /* \"#utility.yul\":19214:19244   */\n      swap4\n      pop\n        /* \"#utility.yul\":19287:19291   */\n      dup1\n        /* \"#utility.yul\":19277:19285   */\n      dup7\n        /* \"#utility.yul\":19273:19292   */\n      and\n        /* \"#utility.yul\":19266:19271   */\n      dup5\n        /* \"#utility.yul\":19263:19293   */\n      or\n        /* \"#utility.yul\":19253:19293   */\n      swap3\n      pop\n        /* \"#utility.yul\":18982:19299   */\n      pop\n      pop\n        /* \"#utility.yul\":18906:19299   */\n      swap4\n      swap3\n      pop\n      pop\n      pop\n      jump\t// out\n        /* \"#utility.yul\":19305:19365   */\n    tag_224:\n        /* \"#utility.yul\":19333:19336   */\n      0x00\n        /* \"#utility.yul\":19354:19359   */\n      dup2\n        /* \"#utility.yul\":19347:19359   */\n      swap1\n      pop\n        /* \"#utility.yul\":19305:19365   */\n      swap2\n      swap1\n      pop\n      jump\t// out\n        /* \"#utility.yul\":19371:19513   */\n    tag_225:\n        /* \"#utility.yul\":19421:19430   */\n      0x00\n        /* \"#utility.yul\":19454:19507   */\n      tag_426\n        /* \"#utility.yul\":19472:19506   */\n      tag_427\n        /* \"#utility.yul\":19481:19505   */\n      tag_428\n        /* \"#utility.yul\":19499:19504   */\n      dup5\n        /* \"#utility.yul\":19481:19505   */\n      tag_185\n      jump\t// in\n    tag_428:\n        /* \"#utility.yul\":19472:19506   */\n      tag_224\n      jump\t// in\n    tag_427:\n        /* \"#utility.yul\":19454:19507   */\n      tag_185\n      jump\t// in\n    tag_426:\n        /* \"#utility.yul\":19441:19507   */\n      swap1\n      pop\n        /* \"#utility.yul\":19371:19513   */\n      swap2\n      swap1\n      pop\n      jump\t// out\n        /* \"#utility.yul\":19519:19594   */\n    tag_226:\n        /* \"#utility.yul\":19562:19565   */\n      0x00\n        /* \"#utility.yul\":19583:19588   */\n      dup2\n        /* \"#utility.yul\":19576:19588   */\n      swap1\n      pop\n        /* \"#utility.yul\":19519:19594   */\n      swap2\n      swap1\n      pop\n      jump\t// out\n        /* \"#utility.yul\":19600:19869   */\n    tag_227:\n        /* \"#utility.yul\":19710:19749   */\n      tag_431\n        /* \"#utility.yul\":19741:19748   */\n      dup4\n        /* \"#utility.yul\":19710:19749   */\n      tag_225\n      jump\t// in\n    tag_431:\n        /* \"#utility.yul\":19771:19862   */\n      tag_432\n        /* \"#utility.yul\":19820:19861   */\n      tag_433\n        /* \"#utility.yul\":19844:19860   */\n      dup3\n        /* \"#utility.yul\":19820:19861   */\n      tag_226\n      jump\t// in\n    tag_433:\n        /* \"#utility.yul\":19812:19818   */\n      dup5\n        /* \"#utility.yul\":19805:19809   */\n      dup5\n        /* \"#utility.yul\":19799:19810   */\n      sload\n        /* \"#utility.yul\":19771:19862   */\n      tag_223\n      jump\t// in\n    tag_432:\n        /* \"#utility.yul\":19765:19769   */\n      dup3\n        /* \"#utility.yul\":19758:19863   */\n      sstore\n        /* \"#utility.yul\":19676:19869   */\n      pop\n        /* \"#utility.yul\":19600:19869   */\n      pop\n      pop\n      pop\n      jump\t// out\n        /* \"#utility.yul\":19875:19948   */\n    tag_228:\n        /* \"#utility.yul\":19920:19923   */\n      0x00\n        /* \"#utility.yul\":19941:19942   */\n      0x00\n        /* \"#utility.yul\":19934:19942   */\n      swap1\n      pop\n        /* \"#utility.yul\":19875:19948   */\n      swap1\n      jump\t// out\n        /* \"#utility.yul\":19954:20143   */\n    tag_229:\n        /* \"#utility.yul\":20031:20063   */\n      tag_436\n      tag_228\n      jump\t// in\n    tag_436:\n        /* \"#utility.yul\":20072:20137   */\n      tag_437\n        /* \"#utility.yul\":20130:20136   */\n      dup2\n        /* \"#utility.yul\":20122:20128   */\n      dup5\n        /* \"#utility.yul\":20116:20120   */\n      dup5\n        /* \"#utility.yul\":20072:20137   */\n      tag_227\n      jump\t// in\n    tag_437:\n        /* \"#utility.yul\":20007:20143   */\n      pop\n        /* \"#utility.yul\":19954:20143   */\n      pop\n      pop\n      jump\t// out\n        /* \"#utility.yul\":20149:20335   */\n    tag_230:\n        /* \"#utility.yul\":20209:20329   */\n    tag_439:\n        /* \"#utility.yul\":20226:20229   */\n      dup2\n        /* \"#utility.yul\":20219:20224   */\n      dup2\n        /* \"#utility.yul\":20216:20230   */\n      lt\n        /* \"#utility.yul\":20209:20329   */\n      iszero\n      tag_441\n      jumpi\n        /* \"#utility.yul\":20280:20319   */\n      tag_442\n        /* \"#utility.yul\":20317:20318   */\n      0x00\n        /* \"#utility.yul\":20310:20315   */\n      dup3\n        /* \"#utility.yul\":20280:20319   */\n      tag_229\n      jump\t// in\n    tag_442:\n        /* \"#utility.yul\":20253:20254   */\n      0x01\n        /* \"#utility.yul\":20246:20251   */\n      dup2\n        /* \"#utility.yul\":20242:20255   */\n      add\n        /* \"#utility.yul\":20233:20255   */\n      swap1\n      pop\n        /* \"#utility.yul\":20209:20329   */\n      jump(tag_439)\n    tag_441:\n        /* \"#utility.yul\":20149:20335   */\n      pop\n      pop\n      jump\t// out\n        /* \"#utility.yul\":20341:20884   */\n    tag_231:\n        /* \"#utility.yul\":20442:20444   */\n      0x1f\n        /* \"#utility.yul\":20437:20440   */\n      dup3\n        /* \"#utility.yul\":20434:20445   */\n      gt\n        /* \"#utility.yul\":20431:20877   */\n      iszero\n      tag_444\n      jumpi\n        /* \"#utility.yul\":20476:20514   */\n      tag_445\n        /* \"#utility.yul\":20508:20513   */\n      dup2\n        /* \"#utility.yul\":20476:20514   */\n      tag_220\n      jump\t// in\n    tag_445:\n        /* \"#utility.yul\":20560:20589   */\n      tag_446\n        /* \"#utility.yul\":20578:20588   */\n      dup5\n        /* \"#utility.yul\":20560:20589   */\n      tag_221\n      jump\t// in\n    tag_446:\n        /* \"#utility.yul\":20550:20558   */\n      dup2\n        /* \"#utility.yul\":20546:20590   */\n      add\n        /* \"#utility.yul\":20743:20745   */\n      0x20\n        /* \"#utility.yul\":20731:20741   */\n      dup6\n        /* \"#utility.yul\":20728:20746   */\n      lt\n        /* \"#utility.yul\":20725:20774   */\n      iszero\n      tag_447\n      jumpi\n        /* \"#utility.yul\":20764:20772   */\n      dup2\n        /* \"#utility.yul\":20749:20772   */\n      swap1\n      pop\n        /* \"#utility.yul\":20725:20774   */\n    tag_447:\n        /* \"#utility.yul\":20787:20867   */\n      tag_448\n        /* \"#utility.yul\":20843:20865   */\n      tag_449\n        /* \"#utility.yul\":20861:20864   */\n      dup6\n        /* \"#utility.yul\":20843:20865   */\n      tag_221\n      jump\t// in\n    tag_449:\n        /* \"#utility.yul\":20833:20841   */\n      dup4\n        /* \"#utility.yul\":20829:20866   */\n      add\n        /* \"#utility.yul\":20816:20827   */\n      dup3\n        /* \"#utility.yul\":20787:20867   */\n      tag_230\n      jump\t// in\n    tag_448:\n        /* \"#utility.yul\":20446:20877   */\n      pop\n      pop\n        /* \"#utility.yul\":20431:20877   */\n    tag_444:\n        /* \"#utility.yul\":20341:20884   */\n      pop\n      pop\n      pop\n      jump\t// out\n        /* \"#utility.yul\":20890:21007   */\n    tag_232:\n        /* \"#utility.yul\":20944:20952   */\n      0x00\n        /* \"#utility.yul\":20994:20999   */\n      dup3\n        /* \"#utility.yul\":20988:20992   */\n      dup3\n        /* \"#utility.yul\":20984:21000   */\n      shr\n        /* \"#utility.yul\":20963:21000   */\n      swap1\n      pop\n        /* \"#utility.yul\":20890:21007   */\n      swap3\n      swap2\n      pop\n      pop\n      jump\t// out\n        /* \"#utility.yul\":21013:21182   */\n    tag_233:\n        /* \"#utility.yul\":21057:21063   */\n      0x00\n        /* \"#utility.yul\":21090:21141   */\n      tag_452\n        /* \"#utility.yul\":21138:21139   */\n      0x00\n        /* \"#utility.yul\":21134:21140   */\n      not\n        /* \"#utility.yul\":21126:21131   */\n      dup5\n        /* \"#utility.yul\":21123:21124   */\n      0x08\n        /* \"#utility.yul\":21119:21132   */\n      mul\n        /* \"#utility.yul\":21090:21141   */\n      tag_232\n      jump\t// in\n    tag_452:\n        /* \"#utility.yul\":21086:21142   */\n      not\n        /* \"#utility.yul\":21171:21175   */\n      dup1\n        /* \"#utility.yul\":21165:21169   */\n      dup4\n        /* \"#utility.yul\":21161:21176   */\n      and\n        /* \"#utility.yul\":21151:21176   */\n      swap2\n      pop\n        /* \"#utility.yul\":21064:21182   */\n      pop\n        /* \"#utility.yul\":21013:21182   */\n      swap3\n      swap2\n      pop\n      pop\n      jump\t// out\n        /* \"#utility.yul\":21187:21482   */\n    tag_234:\n        /* \"#utility.yul\":21263:21267   */\n      0x00\n        /* \"#utility.yul\":21409:21438   */\n      tag_454\n        /* \"#utility.yul\":21434:21437   */\n      dup4\n        /* \"#utility.yul\":21428:21432   */\n      dup4\n        /* \"#utility.yul\":21409:21438   */\n      tag_233\n      jump\t// in\n    tag_454:\n        /* \"#utility.yul\":21401:21438   */\n      swap2\n      pop\n        /* \"#utility.yul\":21471:21474   */\n      dup3\n        /* \"#utility.yul\":21468:21469   */\n      0x02\n        /* \"#utility.yul\":21464:21475   */\n      mul\n        /* \"#utility.yul\":21458:21462   */\n      dup3\n        /* \"#utility.yul\":21455:21476   */\n      or\n        /* \"#utility.yul\":21447:21476   */\n      swap1\n      pop\n        /* \"#utility.yul\":21187:21482   */\n      swap3\n      swap2\n      pop\n      pop\n      jump\t// out\n        /* \"#utility.yul\":21487:22882   */\n    tag_170:\n        /* \"#utility.yul\":21604:21641   */\n      tag_456\n        /* \"#utility.yul\":21637:21640   */\n      dup3\n        /* \"#utility.yul\":21604:21641   */\n      tag_189\n      jump\t// in\n    tag_456:\n        /* \"#utility.yul\":21706:21724   */\n      0xffffffffffffffff\n        /* \"#utility.yul\":21698:21704   */\n      dup2\n        /* \"#utility.yul\":21695:21725   */\n      gt\n        /* \"#utility.yul\":21692:21748   */\n      iszero\n      tag_457\n      jumpi\n        /* \"#utility.yul\":21728:21746   */\n      tag_458\n      tag_100\n      jump\t// in\n    tag_458:\n        /* \"#utility.yul\":21692:21748   */\n    tag_457:\n        /* \"#utility.yul\":21772:21810   */\n      tag_459\n        /* \"#utility.yul\":21804:21808   */\n      dup3\n        /* \"#utility.yul\":21798:21809   */\n      sload\n        /* \"#utility.yul\":21772:21810   */\n      tag_86\n      jump\t// in\n    tag_459:\n        /* \"#utility.yul\":21857:21924   */\n      tag_460\n        /* \"#utility.yul\":21917:21923   */\n      dup3\n        /* \"#utility.yul\":21909:21915   */\n      dup3\n        /* \"#utility.yul\":21903:21907   */\n      dup6\n        /* \"#utility.yul\":21857:21924   */\n      tag_231\n      jump\t// in\n    tag_460:\n        /* \"#utility.yul\":21951:21952   */\n      0x00\n        /* \"#utility.yul\":21975:21979   */\n      0x20\n        /* \"#utility.yul\":21962:21979   */\n      swap1\n      pop\n        /* \"#utility.yul\":22007:22009   */\n      0x1f\n        /* \"#utility.yul\":21999:22005   */\n      dup4\n        /* \"#utility.yul\":21996:22010   */\n      gt\n        /* \"#utility.yul\":22024:22025   */\n      0x01\n        /* \"#utility.yul\":22019:22637   */\n      dup2\n      eq\n      tag_462\n      jumpi\n        /* \"#utility.yul\":22681:22682   */\n      0x00\n        /* \"#utility.yul\":22698:22704   */\n      dup5\n        /* \"#utility.yul\":22695:22772   */\n      iszero\n      tag_463\n      jumpi\n        /* \"#utility.yul\":22747:22756   */\n      dup3\n        /* \"#utility.yul\":22742:22745   */\n      dup8\n        /* \"#utility.yul\":22738:22757   */\n      add\n        /* \"#utility.yul\":22732:22758   */\n      mload\n        /* \"#utility.yul\":22723:22758   */\n      swap1\n      pop\n        /* \"#utility.yul\":22695:22772   */\n    tag_463:\n        /* \"#utility.yul\":22798:22865   */\n      tag_464\n        /* \"#utility.yul\":22858:22864   */\n      dup6\n        /* \"#utility.yul\":22851:22856   */\n      dup3\n        /* \"#utility.yul\":22798:22865   */\n      tag_234\n      jump\t// in\n    tag_464:\n        /* \"#utility.yul\":22792:22796   */\n      dup7\n        /* \"#utility.yul\":22785:22866   */\n      sstore\n        /* \"#utility.yul\":22654:22876   */\n      pop\n        /* \"#utility.yul\":21989:22876   */\n      jump(tag_461)\n        /* \"#utility.yul\":22019:22637   */\n    tag_462:\n        /* \"#utility.yul\":22071:22075   */\n      0x1f\n        /* \"#utility.yul\":22067:22076   */\n      not\n        /* \"#utility.yul\":22059:22065   */\n      dup5\n        /* \"#utility.yul\":22055:22077   */\n      and\n        /* \"#utility.yul\":22105:22142   */\n      tag_465\n        /* \"#utility.yul\":22137:22141   */\n      dup7\n        /* \"#utility.yul\":22105:22142   */\n      tag_220\n      jump\t// in\n    tag_465:\n        /* \"#utility.yul\":22164:22165   */\n      0x00\n        /* \"#utility.yul\":22178:22386   */\n    tag_466:\n        /* \"#utility.yul\":22192:22199   */\n      dup3\n        /* \"#utility.yul\":22189:22190   */\n      dup2\n        /* \"#utility.yul\":22186:22200   */\n      lt\n        /* \"#utility.yul\":22178:22386   */\n      iszero\n      tag_468\n      jumpi\n        /* \"#utility.yul\":22271:22280   */\n      dup5\n        /* \"#utility.yul\":22266:22269   */\n      dup10\n        /* \"#utility.yul\":22262:22281   */\n      add\n        /* \"#utility.yul\":22256:22282   */\n      mload\n        /* \"#utility.yul\":22248:22254   */\n      dup3\n        /* \"#utility.yul\":22241:22283   */\n      sstore\n        /* \"#utility.yul\":22322:22323   */\n      0x01\n        /* \"#utility.yul\":22314:22320   */\n      dup3\n        /* \"#utility.yul\":22310:22324   */\n      add\n        /* \"#utility.yul\":22300:22324   */\n      swap2\n      pop\n        /* \"#utility.yul\":22369:22371   */\n      0x20\n        /* \"#utility.yul\":22358:22367   */\n      dup6\n        /* \"#utility.yul\":22354:22372   */\n      add\n        /* \"#utility.yul\":22341:22372   */\n      swap5\n      pop\n        /* \"#utility.yul\":22215:22219   */\n      0x20\n        /* \"#utility.yul\":22212:22213   */\n      dup2\n        /* \"#utility.yul\":22208:22220   */\n      add\n        /* \"#utility.yul\":22203:22220   */\n      swap1\n      pop\n        /* \"#utility.yul\":22178:22386   */\n      jump(tag_466)\n    tag_468:\n        /* \"#utility.yul\":22414:22420   */\n      dup7\n        /* \"#utility.yul\":22405:22412   */\n      dup4\n        /* \"#utility.yul\":22402:22421   */\n      lt\n        /* \"#utility.yul\":22399:22578   */\n      iszero\n      tag_469\n      jumpi\n        /* \"#utility.yul\":22472:22481   */\n      dup5\n        /* \"#utility.yul\":22467:22470   */\n      dup10\n        /* \"#utility.yul\":22463:22482   */\n      add\n        /* \"#utility.yul\":22457:22483   */\n      mload\n        /* \"#utility.yul\":22515:22563   */\n      tag_470\n        /* \"#utility.yul\":22557:22561   */\n      0x1f\n        /* \"#utility.yul\":22549:22555   */\n      dup10\n        /* \"#utility.yul\":22545:22562   */\n      and\n        /* \"#utility.yul\":22534:22543   */\n      dup3\n        /* \"#utility.yul\":22515:22563   */\n      tag_233\n      jump\t// in\n    tag_470:\n        /* \"#utility.yul\":22507:22513   */\n      dup4\n        /* \"#utility.yul\":22500:22564   */\n      sstore\n        /* \"#utility.yul\":22422:22578   */\n      pop\n        /* \"#utility.yul\":22399:22578   */\n    tag_469:\n        /* \"#utility.yul\":22624:22625   */\n      0x01\n        /* \"#utility.yul\":22620:22621   */\n      0x02\n        /* \"#utility.yul\":22612:22618   */\n      dup9\n        /* \"#utility.yul\":22608:22622   */\n      mul\n        /* \"#utility.yul\":22604:22626   */\n      add\n        /* \"#utility.yul\":22598:22602   */\n      dup9\n        /* \"#utility.yul\":22591:22627   */\n      sstore\n        /* \"#utility.yul\":22026:22637   */\n      pop\n      pop\n      pop\n        /* \"#utility.yul\":21989:22876   */\n    tag_461:\n      pop\n        /* \"#utility.yul\":21579:22882   */\n      pop\n      pop\n      pop\n        /* \"#utility.yul\":21487:22882   */\n      pop\n      pop\n      jump\t// out\n        /* \"#utility.yul\":22888:23121   */\n    tag_172:\n        /* \"#utility.yul\":22927:22930   */\n      0x00\n        /* \"#utility.yul\":22950:22974   */\n      tag_472\n        /* \"#utility.yul\":22968:22973   */\n      dup3\n        /* \"#utility.yul\":22950:22974   */\n      tag_185\n      jump\t// in\n    tag_472:\n        /* \"#utility.yul\":22941:22974   */\n      swap2\n      pop\n        /* \"#utility.yul\":22996:23062   */\n      0xffffffffffffffffffffffffffffffffffffffffffffffffffffffffffffffff\n        /* \"#utility.yul\":22989:22994   */\n      dup3\n        /* \"#utility.yul\":22986:23063   */\n      sub\n        /* \"#utility.yul\":22983:23086   */\n      tag_473\n      jumpi\n        /* \"#utility.yul\":23066:23084   */\n      tag_474\n      tag_217\n      jump\t// in\n    tag_474:\n        /* \"#utility.yul\":22983:23086   */\n    tag_473:\n        /* \"#utility.yul\":23113:23114   */\n      0x01\n        /* \"#utility.yul\":23106:23111   */\n      dup3\n        /* \"#utility.yul\":23102:23115   */\n      add\n        /* \"#utility.yul\":23095:23115   */\n      swap1\n      pop\n        /* \"#utility.yul\":22888:23121   */\n      swap2\n      swap1\n      pop\n      jump\t// out\n\n    auxdata: 0xa2646970667358221220f9b55aa331b5a61f244ca15d77531803e8eaa6b4686ba87b441ca233302ee69f64736f6c634300081e0033\n}\n",
				"bytecode": {
					"linkReferences": {},
					"object": "6080604052348015600e575f5ffd5b50611ae78061001c5f395ff3fe608060405234801561000f575f5ffd5b50600436106100e8575f3560e01c8063b88e318d1161008a578063d3ee001d11610064578063d3ee001d1461026c578063e8d857b01461029c578063fb46d4c5146102cf578063ff9913e8146102eb576100e8565b8063b88e318d14610218578063c48d6d5e14610234578063d21d159614610250576100e8565b80634dc0a687116100c65780634dc0a6871461016c5780639139cda51461019c578063a9ed9cb8146101cc578063af22bf94146101e8576100e8565b80632637588e146100ec5780633befea091461011c5780634dbf27cc14610150575b5f5ffd5b61010660048036038101906101019190610f40565b610307565b6040516101139190610f98565b60405180910390f35b61013660048036038101906101319190610fe4565b610331565b6040516101479594939291906110b0565b60405180910390f35b61016a60048036038101906101659190611108565b610441565b005b61018660048036038101906101819190611133565b6104df565b60405161019391906112df565b60405180910390f35b6101b660048036038101906101b19190610fe4565b6106e9565b6040516101c391906112ff565b60405180910390f35b6101e660048036038101906101e19190611108565b610731565b005b61020260048036038101906101fd9190610fe4565b6107c3565b60405161020f9190611318565b60405180910390f35b610232600480360381019061022d919061145d565b6107ee565b005b61024e600480360381019061024991906114c9565b6107fe565b005b61026a60048036038101906102659190611523565b61080d565b005b61028660048036038101906102819190610fe4565b61081b565b60405161029391906112df565b60405180910390f35b6102b660048036038101906102b19190611133565b610acb565b6040516102c6949392919061157d565b60405180910390f35b6102e960048036038101906102e491906115c7565b610b9b565b005b61030560048036038101906103009190611108565b610ba8565b005b6003602052815f5260405f20602052805f5260405f205f915091509054906101000a900460ff1681565b6002602052815f5260405f20818154811061034a575f80fd5b905f5260205f2090600502015f9150915050805f0154908060010180546103709061163b565b80601f016020809104026020016040519081016040528092919081815260200182805461039c9061163b565b80156103e75780601f106103be576101008083540402835291602001916103e7565b820191905f5260205f20905b8154815290600101906020018083116103ca57829003601f168201915b505050505090806002015f9054906101000a900473ffffffffffffffffffffffffffffffffffffffff1690806003015f9054906101000a900473ffffffffffffffffffffffffffffffffffffffff16908060040154905085565b60045f3373ffffffffffffffffffffffffffffffffffffffff1673ffffffffffffffffffffffffffffffffffffffff1681526020019081526020015f2081908060018154018082558091505060019003905f5260205f20015f9091909190916101000a81548173ffffffffffffffffffffffffffffffffffffffff021916908373ffffffffffffffffffffffffffffffffffffffff16021790555050565b60605f821180156104f257506005548211155b610531576040517f08c379a0000000000000000000000000000000000000000000000000000000008152600401610528906116b5565b60405180910390fd5b5f8267ffffffffffffffff81111561054c5761054b611339565b5b60405190808252806020026020018201604052801561058557816020015b610572610e9a565b81526020019060019003908161056a5790505b5090505f5f846005546105989190611700565b90505b6005548110156106de575f5f5f8381526020019081526020015f2090506040518060800160405280825f01548152602001826001015f9054906101000a900473ffffffffffffffffffffffffffffffffffffffff1673ffffffffffffffffffffffffffffffffffffffff16815260200182600201805461061a9061163b565b80601f01602080910402602001604051908101604052809291908181526020018280546106469061163b565b80156106915780601f1061066857610100808354040283529160200191610691565b820191905f5260205f20905b81548152906001019060200180831161067457829003601f168201915b5050505050815260200182600301548152508484815181106106b6576106b5611733565b5b60200260200101819052506001836106ce9190611760565b925050808060010191505061059b565b508192505050919050565b6004602052815f5260405f208181548110610702575f80fd5b905f5260205f20015f915091509054906101000a900473ffffffffffffffffffffffffffffffffffffffff1681565b5f60035f3373ffffffffffffffffffffffffffffffffffffffff1673ffffffffffffffffffffffffffffffffffffffff1681526020019081526020015f205f8373ffffffffffffffffffffffffffffffffffffffff1673ffffffffffffffffffffffffffffffffffffffff1681526020019081526020015f205f6101000a81548160ff02191690831515021790555050565b6001602052815f5260405f2081815481106107dc575f80fd5b905f5260205f20015f91509150505481565b6107f9838383610c3b565b505050565b610809338284610c3b565b5050565b6108178282610dc5565b5050565b60605f8267ffffffffffffffff81111561083857610837611339565b5b60405190808252806020026020018201604052801561087157816020015b61085e610e9a565b8152602001906001900390816108565790505b5090505f60015f8673ffffffffffffffffffffffffffffffffffffffff1673ffffffffffffffffffffffffffffffffffffffff1681526020019081526020015f208054806020026020016040519081016040528092919081815260200182805480156108fa57602002820191905f5260205f20905b8154815260200190600101908083116108e6575b505050505090505f84118015610911575080518411155b610950576040517f08c379a0000000000000000000000000000000000000000000000000000000008152600401610947906117dd565b60405180910390fd5b5f5f85835161095f9190611700565b90505b8251811015610abe575f5f5f85848151811061098157610980611733565b5b602002602001015181526020019081526020015f2090506040518060800160405280825f01548152602001826001015f9054906101000a900473ffffffffffffffffffffffffffffffffffffffff1673ffffffffffffffffffffffffffffffffffffffff1681526020018260020180546109fa9061163b565b80601f0160208091040260200160405190810160405280929190818152602001828054610a269061163b565b8015610a715780601f10610a4857610100808354040283529160200191610a71565b820191905f5260205f20905b815481529060010190602001808311610a5457829003601f168201915b505050505081526020018260030154815250858481518110610a9657610a95611733565b5b6020026020010181905250600183610aae9190611760565b9250508080600101915050610962565b5082935050505092915050565b5f602052805f5260405f205f91509050805f015490806001015f9054906101000a900473ffffffffffffffffffffffffffffffffffffffff1690806002018054610b149061163b565b80601f0160208091040260200160405190810160405280929190818152602001828054610b409061163b565b8015610b8b5780601f10610b6257610100808354040283529160200191610b8b565b820191905f5260205f20905b815481529060010190602001808311610b6e57829003601f168201915b5050505050908060030154905084565b610ba53382610dc5565b50565b600160035f3373ffffffffffffffffffffffffffffffffffffffff1673ffffffffffffffffffffffffffffffffffffffff1681526020019081526020015f205f8373ffffffffffffffffffffffffffffffffffffffff1673ffffffffffffffffffffffffffffffffffffffff1681526020019081526020015f205f6101000a81548160ff02191690831515021790555050565b60025f8473ffffffffffffffffffffffffffffffffffffffff1673ffffffffffffffffffffffffffffffffffffffff1681526020019081526020015f206040518060a0016040528060065481526020018381526020018573ffffffffffffffffffffffffffffffffffffffff1681526020018473ffffffffffffffffffffffffffffffffffffffff16815260200142815250908060018154018082558091505060019003905f5260205f2090600502015f909190919091505f820151815f01556020820151816001019081610d10919061199b565b506040820151816002015f6101000a81548173ffffffffffffffffffffffffffffffffffffffff021916908373ffffffffffffffffffffffffffffffffffffffff1602179055506060820151816003015f6101000a81548173ffffffffffffffffffffffffffffffffffffffff021916908373ffffffffffffffffffffffffffffffffffffffff16021790555060808201518160040155505060065f815480929190610dbb90611a6a565b9190505550505050565b604051806080016040528060055481526020018373ffffffffffffffffffffffffffffffffffffffff168152602001828152602001428152505f5f60055481526020019081526020015f205f820151815f01556020820151816001015f6101000a81548173ffffffffffffffffffffffffffffffffffffffff021916908373ffffffffffffffffffffffffffffffffffffffff1602179055506040820151816002019081610e73919061199b565b50606082015181600301559050506001600554610e909190611760565b6005819055505050565b60405180608001604052805f81526020015f73ffffffffffffffffffffffffffffffffffffffff168152602001606081526020015f81525090565b5f604051905090565b5f5ffd5b5f5ffd5b5f73ffffffffffffffffffffffffffffffffffffffff82169050919050565b5f610f0f82610ee6565b9050919050565b610f1f81610f05565b8114610f29575f5ffd5b50565b5f81359050610f3a81610f16565b92915050565b5f5f60408385031215610f5657610f55610ede565b5b5f610f6385828601610f2c565b9250506020610f7485828601610f2c565b9150509250929050565b5f8115159050919050565b610f9281610f7e565b82525050565b5f602082019050610fab5f830184610f89565b92915050565b5f819050919050565b610fc381610fb1565b8114610fcd575f5ffd5b50565b5f81359050610fde81610fba565b92915050565b5f5f60408385031215610ffa57610ff9610ede565b5b5f61100785828601610f2c565b925050602061101885828601610fd0565b9150509250929050565b61102b81610fb1565b82525050565b5f81519050919050565b5f82825260208201905092915050565b8281835e5f83830152505050565b5f601f19601f8301169050919050565b5f61107382611031565b61107d818561103b565b935061108d81856020860161104b565b61109681611059565b840191505092915050565b6110aa81610f05565b82525050565b5f60a0820190506110c35f830188611022565b81810360208301526110d58187611069565b90506110e460408301866110a1565b6110f160608301856110a1565b6110fe6080830184611022565b9695505050505050565b5f6020828403121561111d5761111c610ede565b5b5f61112a84828501610f2c565b91505092915050565b5f6020828403121561114857611147610ede565b5b5f61115584828501610fd0565b91505092915050565b5f81519050919050565b5f82825260208201905092915050565b5f819050602082019050919050565b61119081610fb1565b82525050565b61119f81610f05565b82525050565b5f82825260208201905092915050565b5f6111bf82611031565b6111c981856111a5565b93506111d981856020860161104b565b6111e281611059565b840191505092915050565b5f608083015f8301516112025f860182611187565b5060208301516112156020860182611196565b506040830151848203604086015261122d82826111b5565b91505060608301516112426060860182611187565b508091505092915050565b5f61125883836111ed565b905092915050565b5f602082019050919050565b5f6112768261115e565b6112808185611168565b93508360208202850161129285611178565b805f5b858110156112cd57848403895281516112ae858261124d565b94506112b983611260565b925060208a01995050600181019050611295565b50829750879550505050505092915050565b5f6020820190508181035f8301526112f7818461126c565b905092915050565b5f6020820190506113125f8301846110a1565b92915050565b5f60208201905061132b5f830184611022565b92915050565b5f5ffd5b5f5ffd5b7f4e487b71000000000000000000000000000000000000000000000000000000005f52604160045260245ffd5b61136f82611059565b810181811067ffffffffffffffff8211171561138e5761138d611339565b5b80604052505050565b5f6113a0610ed5565b90506113ac8282611366565b919050565b5f67ffffffffffffffff8211156113cb576113ca611339565b5b6113d482611059565b9050602081019050919050565b828183375f83830152505050565b5f6114016113fc846113b1565b611397565b90508281526020810184848401111561141d5761141c611335565b5b6114288482856113e1565b509392505050565b5f82601f83011261144457611443611331565b5b81356114548482602086016113ef565b91505092915050565b5f5f5f6060848603121561147457611473610ede565b5b5f61148186828701610f2c565b935050602061149286828701610f2c565b925050604084013567ffffffffffffffff8111156114b3576114b2610ee2565b5b6114bf86828701611430565b9150509250925092565b5f5f604083850312156114df576114de610ede565b5b5f83013567ffffffffffffffff8111156114fc576114fb610ee2565b5b61150885828601611430565b925050602061151985828601610f2c565b9150509250929050565b5f5f6040838503121561153957611538610ede565b5b5f61154685828601610f2c565b925050602083013567ffffffffffffffff81111561156757611566610ee2565b5b61157385828601611430565b9150509250929050565b5f6080820190506115905f830187611022565b61159d60208301866110a1565b81810360408301526115af8185611069565b90506115be6060830184611022565b95945050505050565b5f602082840312156115dc576115db610ede565b5b5f82013567ffffffffffffffff8111156115f9576115f8610ee2565b5b61160584828501611430565b91505092915050565b7f4e487b71000000000000000000000000000000000000000000000000000000005f52602260045260245ffd5b5f600282049050600182168061165257607f821691505b6020821081036116655761166461160e565b5b50919050565b7f436f756e74206973206e6f742070726f706572000000000000000000000000005f82015250565b5f61169f60138361103b565b91506116aa8261166b565b602082019050919050565b5f6020820190508181035f8301526116cc81611693565b9050919050565b7f4e487b71000000000000000000000000000000000000000000000000000000005f52601160045260245ffd5b5f61170a82610fb1565b915061171583610fb1565b925082820390508181111561172d5761172c6116d3565b5b92915050565b7f4e487b71000000000000000000000000000000000000000000000000000000005f52603260045260245ffd5b5f61176a82610fb1565b915061177583610fb1565b925082820190508082111561178d5761178c6116d3565b5b92915050565b7f636f756e74206973206e6f7420646566696e65640000000000000000000000005f82015250565b5f6117c760148361103b565b91506117d282611793565b602082019050919050565b5f6020820190508181035f8301526117f4816117bb565b9050919050565b5f819050815f5260205f209050919050565b5f6020601f8301049050919050565b5f82821b905092915050565b5f600883026118577fffffffffffffffffffffffffffffffffffffffffffffffffffffffffffffffff8261181c565b611861868361181c565b95508019841693508086168417925050509392505050565b5f819050919050565b5f61189c61189761189284610fb1565b611879565b610fb1565b9050919050565b5f819050919050565b6118b583611882565b6118c96118c1826118a3565b848454611828565b825550505050565b5f5f905090565b6118e06118d1565b6118eb8184846118ac565b505050565b5b8181101561190e576119035f826118d8565b6001810190506118f1565b5050565b601f82111561195357611924816117fb565b61192d8461180d565b8101602085101561193c578190505b6119506119488561180d565b8301826118f0565b50505b505050565b5f82821c905092915050565b5f6119735f1984600802611958565b1980831691505092915050565b5f61198b8383611964565b9150826002028217905092915050565b6119a482611031565b67ffffffffffffffff8111156119bd576119bc611339565b5b6119c7825461163b565b6119d2828285611912565b5f60209050601f831160018114611a03575f84156119f1578287015190505b6119fb8582611980565b865550611a62565b601f198416611a11866117fb565b5f5b82811015611a3857848901518255600182019150602085019450602081019050611a13565b86831015611a555784890151611a51601f891682611964565b8355505b6001600288020188555050505b505050505050565b5f611a7482610fb1565b91507fffffffffffffffffffffffffffffffffffffffffffffffffffffffffffffffff8203611aa657611aa56116d3565b5b60018201905091905056fea2646970667358221220f9b55aa331b5a61f244ca15d77531803e8eaa6b4686ba87b441ca233302ee69f64736f6c634300081e0033",
					"opcodes": "PUSH1 0x80 PUSH1 0x40 MSTORE CALLVALUE DUP1 ISZERO PUSH1 0xE JUMPI PUSH0 PUSH0 REVERT JUMPDEST POP PUSH2 0x1AE7 DUP1 PUSH2 0x1C PUSH0 CODECOPY PUSH0 RETURN INVALID PUSH1 0x80 PUSH1 0x40 MSTORE CALLVALUE DUP1 ISZERO PUSH2 0xF JUMPI PUSH0 PUSH0 REVERT JUMPDEST POP PUSH1 0x4 CALLDATASIZE LT PUSH2 0xE8 JUMPI PUSH0 CALLDATALOAD PUSH1 0xE0 SHR DUP1 PUSH4 0xB88E318D GT PUSH2 0x8A JUMPI DUP1 PUSH4 0xD3EE001D GT PUSH2 0x64 JUMPI DUP1 PUSH4 0xD3EE001D EQ PUSH2 0x26C JUMPI DUP1 PUSH4 0xE8D857B0 EQ PUSH2 0x29C JUMPI DUP1 PUSH4 0xFB46D4C5 EQ PUSH2 0x2CF JUMPI DUP1 PUSH4 0xFF9913E8 EQ PUSH2 0x2EB JUMPI PUSH2 0xE8 JUMP JUMPDEST DUP1 PUSH4 0xB88E318D EQ PUSH2 0x218 JUMPI DUP1 PUSH4 0xC48D6D5E EQ PUSH2 0x234 JUMPI DUP1 PUSH4 0xD21D1596 EQ PUSH2 0x250 JUMPI PUSH2 0xE8 JUMP JUMPDEST DUP1 PUSH4 0x4DC0A687 GT PUSH2 0xC6 JUMPI DUP1 PUSH4 0x4DC0A687 EQ PUSH2 0x16C JUMPI DUP1 PUSH4 0x9139CDA5 EQ PUSH2 0x19C JUMPI DUP1 PUSH4 0xA9ED9CB8 EQ PUSH2 0x1CC JUMPI DUP1 PUSH4 0xAF22BF94 EQ PUSH2 0x1E8 JUMPI PUSH2 0xE8 JUMP JUMPDEST DUP1 PUSH4 0x2637588E EQ PUSH2 0xEC JUMPI DUP1 PUSH4 0x3BEFEA09 EQ PUSH2 0x11C JUMPI DUP1 PUSH4 0x4DBF27CC EQ PUSH2 0x150 JUMPI JUMPDEST PUSH0 PUSH0 REVERT JUMPDEST PUSH2 0x106 PUSH1 0x4 DUP1 CALLDATASIZE SUB DUP2 ADD SWAP1 PUSH2 0x101 SWAP2 SWAP1 PUSH2 0xF40 JUMP JUMPDEST PUSH2 0x307 JUMP JUMPDEST PUSH1 0x40 MLOAD PUSH2 0x113 SWAP2 SWAP1 PUSH2 0xF98 JUMP JUMPDEST PUSH1 0x40 MLOAD DUP1 SWAP2 SUB SWAP1 RETURN JUMPDEST PUSH2 0x136 PUSH1 0x4 DUP1 CALLDATASIZE SUB DUP2 ADD SWAP1 PUSH2 0x131 SWAP2 SWAP1 PUSH2 0xFE4 JUMP JUMPDEST PUSH2 0x331 JUMP JUMPDEST PUSH1 0x40 MLOAD PUSH2 0x147 SWAP6 SWAP5 SWAP4 SWAP3 SWAP2 SWAP1 PUSH2 0x10B0 JUMP JUMPDEST PUSH1 0x40 MLOAD DUP1 SWAP2 SUB SWAP1 RETURN JUMPDEST PUSH2 0x16A PUSH1 0x4 DUP1 CALLDATASIZE SUB DUP2 ADD SWAP1 PUSH2 0x165 SWAP2 SWAP1 PUSH2 0x1108 JUMP JUMPDEST PUSH2 0x441 JUMP JUMPDEST STOP JUMPDEST PUSH2 0x186 PUSH1 0x4 DUP1 CALLDATASIZE SUB DUP2 ADD SWAP1 PUSH2 0x181 SWAP2 SWAP1 PUSH2 0x1133 JUMP JUMPDEST PUSH2 0x4DF JUMP JUMPDEST PUSH1 0x40 MLOAD PUSH2 0x193 SWAP2 SWAP1 PUSH2 0x12DF JUMP JUMPDEST PUSH1 0x40 MLOAD DUP1 SWAP2 SUB SWAP1 RETURN JUMPDEST PUSH2 0x1B6 PUSH1 0x4 DUP1 CALLDATASIZE SUB DUP2 ADD SWAP1 PUSH2 0x1B1 SWAP2 SWAP1 PUSH2 0xFE4 JUMP JUMPDEST PUSH2 0x6E9 JUMP JUMPDEST PUSH1 0x40 MLOAD PUSH2 0x1C3 SWAP2 SWAP1 PUSH2 0x12FF JUMP JUMPDEST PUSH1 0x40 MLOAD DUP1 SWAP2 SUB SWAP1 RETURN JUMPDEST PUSH2 0x1E6 PUSH1 0x4 DUP1 CALLDATASIZE SUB DUP2 ADD SWAP1 PUSH2 0x1E1 SWAP2 SWAP1 PUSH2 0x1108 JUMP JUMPDEST PUSH2 0x731 JUMP JUMPDEST STOP JUMPDEST PUSH2 0x202 PUSH1 0x4 DUP1 CALLDATASIZE SUB DUP2 ADD SWAP1 PUSH2 0x1FD SWAP2 SWAP1 PUSH2 0xFE4 JUMP JUMPDEST PUSH2 0x7C3 JUMP JUMPDEST PUSH1 0x40 MLOAD PUSH2 0x20F SWAP2 SWAP1 PUSH2 0x1318 JUMP JUMPDEST PUSH1 0x40 MLOAD DUP1 SWAP2 SUB SWAP1 RETURN JUMPDEST PUSH2 0x232 PUSH1 0x4 DUP1 CALLDATASIZE SUB DUP2 ADD SWAP1 PUSH2 0x22D SWAP2 SWAP1 PUSH2 0x145D JUMP JUMPDEST PUSH2 0x7EE JUMP JUMPDEST STOP JUMPDEST PUSH2 0x24E PUSH1 0x4 DUP1 CALLDATASIZE SUB DUP2 ADD SWAP1 PUSH2 0x249 SWAP2 SWAP1 PUSH2 0x14C9 JUMP JUMPDEST PUSH2 0x7FE JUMP JUMPDEST STOP JUMPDEST PUSH2 0x26A PUSH1 0x4 DUP1 CALLDATASIZE SUB DUP2 ADD SWAP1 PUSH2 0x265 SWAP2 SWAP1 PUSH2 0x1523 JUMP JUMPDEST PUSH2 0x80D JUMP JUMPDEST STOP JUMPDEST PUSH2 0x286 PUSH1 0x4 DUP1 CALLDATASIZE SUB DUP2 ADD SWAP1 PUSH2 0x281 SWAP2 SWAP1 PUSH2 0xFE4 JUMP JUMPDEST PUSH2 0x81B JUMP JUMPDEST PUSH1 0x40 MLOAD PUSH2 0x293 SWAP2 SWAP1 PUSH2 0x12DF JUMP JUMPDEST PUSH1 0x40 MLOAD DUP1 SWAP2 SUB SWAP1 RETURN JUMPDEST PUSH2 0x2B6 PUSH1 0x4 DUP1 CALLDATASIZE SUB DUP2 ADD SWAP1 PUSH2 0x2B1 SWAP2 SWAP1 PUSH2 0x1133 JUMP JUMPDEST PUSH2 0xACB JUMP JUMPDEST PUSH1 0x40 MLOAD PUSH2 0x2C6 SWAP5 SWAP4 SWAP3 SWAP2 SWAP1 PUSH2 0x157D JUMP JUMPDEST PUSH1 0x40 MLOAD DUP1 SWAP2 SUB SWAP1 RETURN JUMPDEST PUSH2 0x2E9 PUSH1 0x4 DUP1 CALLDATASIZE SUB DUP2 ADD SWAP1 PUSH2 0x2E4 SWAP2 SWAP1 PUSH2 0x15C7 JUMP JUMPDEST PUSH2 0xB9B JUMP JUMPDEST STOP JUMPDEST PUSH2 0x305 PUSH1 0x4 DUP1 CALLDATASIZE SUB DUP2 ADD SWAP1 PUSH2 0x300 SWAP2 SWAP1 PUSH2 0x1108 JUMP JUMPDEST PUSH2 0xBA8 JUMP JUMPDEST STOP JUMPDEST PUSH1 0x3 PUSH1 0x20 MSTORE DUP2 PUSH0 MSTORE PUSH1 0x40 PUSH0 KECCAK256 PUSH1 0x20 MSTORE DUP1 PUSH0 MSTORE PUSH1 0x40 PUSH0 KECCAK256 PUSH0 SWAP2 POP SWAP2 POP SWAP1 SLOAD SWAP1 PUSH2 0x100 EXP SWAP1 DIV PUSH1 0xFF AND DUP2 JUMP JUMPDEST PUSH1 0x2 PUSH1 0x20 MSTORE DUP2 PUSH0 MSTORE PUSH1 0x40 PUSH0 KECCAK256 DUP2 DUP2 SLOAD DUP2 LT PUSH2 0x34A JUMPI PUSH0 DUP1 REVERT JUMPDEST SWAP1 PUSH0 MSTORE PUSH1 0x20 PUSH0 KECCAK256 SWAP1 PUSH1 0x5 MUL ADD PUSH0 SWAP2 POP SWAP2 POP POP DUP1 PUSH0 ADD SLOAD SWAP1 DUP1 PUSH1 0x1 ADD DUP1 SLOAD PUSH2 0x370 SWAP1 PUSH2 0x163B JUMP JUMPDEST DUP1 PUSH1 0x1F ADD PUSH1 0x20 DUP1 SWAP2 DIV MUL PUSH1 0x20 ADD PUSH1 0x40 MLOAD SWAP1 DUP2 ADD PUSH1 0x40 MSTORE DUP1 SWAP3 SWAP2 SWAP1 DUP2 DUP2 MSTORE PUSH1 0x20 ADD DUP3 DUP1 SLOAD PUSH2 0x39C SWAP1 PUSH2 0x163B JUMP JUMPDEST DUP1 ISZERO PUSH2 0x3E7 JUMPI DUP1 PUSH1 0x1F LT PUSH2 0x3BE JUMPI PUSH2 0x100 DUP1 DUP4 SLOAD DIV MUL DUP4 MSTORE SWAP2 PUSH1 0x20 ADD SWAP2 PUSH2 0x3E7 JUMP JUMPDEST DUP3 ADD SWAP2 SWAP1 PUSH0 MSTORE PUSH1 0x20 PUSH0 KECCAK256 SWAP1 JUMPDEST DUP2 SLOAD DUP2 MSTORE SWAP1 PUSH1 0x1 ADD SWAP1 PUSH1 0x20 ADD DUP1 DUP4 GT PUSH2 0x3CA JUMPI DUP3 SWAP1 SUB PUSH1 0x1F AND DUP3 ADD SWAP2 JUMPDEST POP POP POP POP POP SWAP1 DUP1 PUSH1 0x2 ADD PUSH0 SWAP1 SLOAD SWAP1 PUSH2 0x100 EXP SWAP1 DIV PUSH20 0xFFFFFFFFFFFFFFFFFFFFFFFFFFFFFFFFFFFFFFFF AND SWAP1 DUP1 PUSH1 0x3 ADD PUSH0 SWAP1 SLOAD SWAP1 PUSH2 0x100 EXP SWAP1 DIV PUSH20 0xFFFFFFFFFFFFFFFFFFFFFFFFFFFFFFFFFFFFFFFF AND SWAP1 DUP1 PUSH1 0x4 ADD SLOAD SWAP1 POP DUP6 JUMP JUMPDEST PUSH1 0x4 PUSH0 CALLER PUSH20 0xFFFFFFFFFFFFFFFFFFFFFFFFFFFFFFFFFFFFFFFF AND PUSH20 0xFFFFFFFFFFFFFFFFFFFFFFFFFFFFFFFFFFFFFFFF AND DUP2 MSTORE PUSH1 0x20 ADD SWAP1 DUP2 MSTORE PUSH1 0x20 ADD PUSH0 KECCAK256 DUP2 SWAP1 DUP1 PUSH1 0x1 DUP2 SLOAD ADD DUP1 DUP3 SSTORE DUP1 SWAP2 POP POP PUSH1 0x1 SWAP1 SUB SWAP1 PUSH0 MSTORE PUSH1 0x20 PUSH0 KECCAK256 ADD PUSH0 SWAP1 SWAP2 SWAP1 SWAP2 SWAP1 SWAP2 PUSH2 0x100 EXP DUP2 SLOAD DUP2 PUSH20 0xFFFFFFFFFFFFFFFFFFFFFFFFFFFFFFFFFFFFFFFF MUL NOT AND SWAP1 DUP4 PUSH20 0xFFFFFFFFFFFFFFFFFFFFFFFFFFFFFFFFFFFFFFFF AND MUL OR SWAP1 SSTORE POP POP JUMP JUMPDEST PUSH1 0x60 PUSH0 DUP3 GT DUP1 ISZERO PUSH2 0x4F2 JUMPI POP PUSH1 0x5 SLOAD DUP3 GT ISZERO JUMPDEST PUSH2 0x531 JUMPI PUSH1 0x40 MLOAD PUSH32 0x8C379A000000000000000000000000000000000000000000000000000000000 DUP2 MSTORE PUSH1 0x4 ADD PUSH2 0x528 SWAP1 PUSH2 0x16B5 JUMP JUMPDEST PUSH1 0x40 MLOAD DUP1 SWAP2 SUB SWAP1 REVERT JUMPDEST PUSH0 DUP3 PUSH8 0xFFFFFFFFFFFFFFFF DUP2 GT ISZERO PUSH2 0x54C JUMPI PUSH2 0x54B PUSH2 0x1339 JUMP JUMPDEST JUMPDEST PUSH1 0x40 MLOAD SWAP1 DUP1 DUP3 MSTORE DUP1 PUSH1 0x20 MUL PUSH1 0x20 ADD DUP3 ADD PUSH1 0x40 MSTORE DUP1 ISZERO PUSH2 0x585 JUMPI DUP2 PUSH1 0x20 ADD JUMPDEST PUSH2 0x572 PUSH2 0xE9A JUMP JUMPDEST DUP2 MSTORE PUSH1 0x20 ADD SWAP1 PUSH1 0x1 SWAP1 SUB SWAP1 DUP2 PUSH2 0x56A JUMPI SWAP1 POP JUMPDEST POP SWAP1 POP PUSH0 PUSH0 DUP5 PUSH1 0x5 SLOAD PUSH2 0x598 SWAP2 SWAP1 PUSH2 0x1700 JUMP JUMPDEST SWAP1 POP JUMPDEST PUSH1 0x5 SLOAD DUP2 LT ISZERO PUSH2 0x6DE JUMPI PUSH0 PUSH0 PUSH0 DUP4 DUP2 MSTORE PUSH1 0x20 ADD SWAP1 DUP2 MSTORE PUSH1 0x20 ADD PUSH0 KECCAK256 SWAP1 POP PUSH1 0x40 MLOAD DUP1 PUSH1 0x80 ADD PUSH1 0x40 MSTORE DUP1 DUP3 PUSH0 ADD SLOAD DUP2 MSTORE PUSH1 0x20 ADD DUP3 PUSH1 0x1 ADD PUSH0 SWAP1 SLOAD SWAP1 PUSH2 0x100 EXP SWAP1 DIV PUSH20 0xFFFFFFFFFFFFFFFFFFFFFFFFFFFFFFFFFFFFFFFF AND PUSH20 0xFFFFFFFFFFFFFFFFFFFFFFFFFFFFFFFFFFFFFFFF AND DUP2 MSTORE PUSH1 0x20 ADD DUP3 PUSH1 0x2 ADD DUP1 SLOAD PUSH2 0x61A SWAP1 PUSH2 0x163B JUMP JUMPDEST DUP1 PUSH1 0x1F ADD PUSH1 0x20 DUP1 SWAP2 DIV MUL PUSH1 0x20 ADD PUSH1 0x40 MLOAD SWAP1 DUP2 ADD PUSH1 0x40 MSTORE DUP1 SWAP3 SWAP2 SWAP1 DUP2 DUP2 MSTORE PUSH1 0x20 ADD DUP3 DUP1 SLOAD PUSH2 0x646 SWAP1 PUSH2 0x163B JUMP JUMPDEST DUP1 ISZERO PUSH2 0x691 JUMPI DUP1 PUSH1 0x1F LT PUSH2 0x668 JUMPI PUSH2 0x100 DUP1 DUP4 SLOAD DIV MUL DUP4 MSTORE SWAP2 PUSH1 0x20 ADD SWAP2 PUSH2 0x691 JUMP JUMPDEST DUP3 ADD SWAP2 SWAP1 PUSH0 MSTORE PUSH1 0x20 PUSH0 KECCAK256 SWAP1 JUMPDEST DUP2 SLOAD DUP2 MSTORE SWAP1 PUSH1 0x1 ADD SWAP1 PUSH1 0x20 ADD DUP1 DUP4 GT PUSH2 0x674 JUMPI DUP3 SWAP1 SUB PUSH1 0x1F AND DUP3 ADD SWAP2 JUMPDEST POP POP POP POP POP DUP2 MSTORE PUSH1 0x20 ADD DUP3 PUSH1 0x3 ADD SLOAD DUP2 MSTORE POP DUP5 DUP5 DUP2 MLOAD DUP2 LT PUSH2 0x6B6 JUMPI PUSH2 0x6B5 PUSH2 0x1733 JUMP JUMPDEST JUMPDEST PUSH1 0x20 MUL PUSH1 0x20 ADD ADD DUP2 SWAP1 MSTORE POP PUSH1 0x1 DUP4 PUSH2 0x6CE SWAP2 SWAP1 PUSH2 0x1760 JUMP JUMPDEST SWAP3 POP POP DUP1 DUP1 PUSH1 0x1 ADD SWAP2 POP POP PUSH2 0x59B JUMP JUMPDEST POP DUP2 SWAP3 POP POP POP SWAP2 SWAP1 POP JUMP JUMPDEST PUSH1 0x4 PUSH1 0x20 MSTORE DUP2 PUSH0 MSTORE PUSH1 0x40 PUSH0 KECCAK256 DUP2 DUP2 SLOAD DUP2 LT PUSH2 0x702 JUMPI PUSH0 DUP1 REVERT JUMPDEST SWAP1 PUSH0 MSTORE PUSH1 0x20 PUSH0 KECCAK256 ADD PUSH0 SWAP2 POP SWAP2 POP SWAP1 SLOAD SWAP1 PUSH2 0x100 EXP SWAP1 DIV PUSH20 0xFFFFFFFFFFFFFFFFFFFFFFFFFFFFFFFFFFFFFFFF AND DUP2 JUMP JUMPDEST PUSH0 PUSH1 0x3 PUSH0 CALLER PUSH20 0xFFFFFFFFFFFFFFFFFFFFFFFFFFFFFFFFFFFFFFFF AND PUSH20 0xFFFFFFFFFFFFFFFFFFFFFFFFFFFFFFFFFFFFFFFF AND DUP2 MSTORE PUSH1 0x20 ADD SWAP1 DUP2 MSTORE PUSH1 0x20 ADD PUSH0 KECCAK256 PUSH0 DUP4 PUSH20 0xFFFFFFFFFFFFFFFFFFFFFFFFFFFFFFFFFFFFFFFF AND PUSH20 0xFFFFFFFFFFFFFFFFFFFFFFFFFFFFFFFFFFFFFFFF AND DUP2 MSTORE PUSH1 0x20 ADD SWAP1 DUP2 MSTORE PUSH1 0x20 ADD PUSH0 KECCAK256 PUSH0 PUSH2 0x100 EXP DUP2 SLOAD DUP2 PUSH1 0xFF MUL NOT AND SWAP1 DUP4 ISZERO ISZERO MUL OR SWAP1 SSTORE POP POP JUMP JUMPDEST PUSH1 0x1 PUSH1 0x20 MSTORE DUP2 PUSH0 MSTORE PUSH1 0x40 PUSH0 KECCAK256 DUP2 DUP2 SLOAD DUP2 LT PUSH2 0x7DC JUMPI PUSH0 DUP1 REVERT JUMPDEST SWAP1 PUSH0 MSTORE PUSH1 0x20 PUSH0 KECCAK256 ADD PUSH0 SWAP2 POP SWAP2 POP POP SLOAD DUP2 JUMP JUMPDEST PUSH2 0x7F9 DUP4 DUP4 DUP4 PUSH2 0xC3B JUMP JUMPDEST POP POP POP JUMP JUMPDEST PUSH2 0x809 CALLER DUP3 DUP5 PUSH2 0xC3B JUMP JUMPDEST POP POP JUMP JUMPDEST PUSH2 0x817 DUP3 DUP3 PUSH2 0xDC5 JUMP JUMPDEST POP POP JUMP JUMPDEST PUSH1 0x60 PUSH0 DUP3 PUSH8 0xFFFFFFFFFFFFFFFF DUP2 GT ISZERO PUSH2 0x838 JUMPI PUSH2 0x837 PUSH2 0x1339 JUMP JUMPDEST JUMPDEST PUSH1 0x40 MLOAD SWAP1 DUP1 DUP3 MSTORE DUP1 PUSH1 0x20 MUL PUSH1 0x20 ADD DUP3 ADD PUSH1 0x40 MSTORE DUP1 ISZERO PUSH2 0x871 JUMPI DUP2 PUSH1 0x20 ADD JUMPDEST PUSH2 0x85E PUSH2 0xE9A JUMP JUMPDEST DUP2 MSTORE PUSH1 0x20 ADD SWAP1 PUSH1 0x1 SWAP1 SUB SWAP1 DUP2 PUSH2 0x856 JUMPI SWAP1 POP JUMPDEST POP SWAP1 POP PUSH0 PUSH1 0x1 PUSH0 DUP7 PUSH20 0xFFFFFFFFFFFFFFFFFFFFFFFFFFFFFFFFFFFFFFFF AND PUSH20 0xFFFFFFFFFFFFFFFFFFFFFFFFFFFFFFFFFFFFFFFF AND DUP2 MSTORE PUSH1 0x20 ADD SWAP1 DUP2 MSTORE PUSH1 0x20 ADD PUSH0 KECCAK256 DUP1 SLOAD DUP1 PUSH1 0x20 MUL PUSH1 0x20 ADD PUSH1 0x40 MLOAD SWAP1 DUP2 ADD PUSH1 0x40 MSTORE DUP1 SWAP3 SWAP2 SWAP1 DUP2 DUP2 MSTORE PUSH1 0x20 ADD DUP3 DUP1 SLOAD DUP1 ISZERO PUSH2 0x8FA JUMPI PUSH1 0x20 MUL DUP3 ADD SWAP2 SWAP1 PUSH0 MSTORE PUSH1 0x20 PUSH0 KECCAK256 SWAP1 JUMPDEST DUP2 SLOAD DUP2 MSTORE PUSH1 0x20 ADD SWAP1 PUSH1 0x1 ADD SWAP1 DUP1 DUP4 GT PUSH2 0x8E6 JUMPI JUMPDEST POP POP POP POP POP SWAP1 POP PUSH0 DUP5 GT DUP1 ISZERO PUSH2 0x911 JUMPI POP DUP1 MLOAD DUP5 GT ISZERO JUMPDEST PUSH2 0x950 JUMPI PUSH1 0x40 MLOAD PUSH32 0x8C379A000000000000000000000000000000000000000000000000000000000 DUP2 MSTORE PUSH1 0x4 ADD PUSH2 0x947 SWAP1 PUSH2 0x17DD JUMP JUMPDEST PUSH1 0x40 MLOAD DUP1 SWAP2 SUB SWAP1 REVERT JUMPDEST PUSH0 PUSH0 DUP6 DUP4 MLOAD PUSH2 0x95F SWAP2 SWAP1 PUSH2 0x1700 JUMP JUMPDEST SWAP1 POP JUMPDEST DUP3 MLOAD DUP2 LT ISZERO PUSH2 0xABE JUMPI PUSH0 PUSH0 PUSH0 DUP6 DUP5 DUP2 MLOAD DUP2 LT PUSH2 0x981 JUMPI PUSH2 0x980 PUSH2 0x1733 JUMP JUMPDEST JUMPDEST PUSH1 0x20 MUL PUSH1 0x20 ADD ADD MLOAD DUP2 MSTORE PUSH1 0x20 ADD SWAP1 DUP2 MSTORE PUSH1 0x20 ADD PUSH0 KECCAK256 SWAP1 POP PUSH1 0x40 MLOAD DUP1 PUSH1 0x80 ADD PUSH1 0x40 MSTORE DUP1 DUP3 PUSH0 ADD SLOAD DUP2 MSTORE PUSH1 0x20 ADD DUP3 PUSH1 0x1 ADD PUSH0 SWAP1 SLOAD SWAP1 PUSH2 0x100 EXP SWAP1 DIV PUSH20 0xFFFFFFFFFFFFFFFFFFFFFFFFFFFFFFFFFFFFFFFF AND PUSH20 0xFFFFFFFFFFFFFFFFFFFFFFFFFFFFFFFFFFFFFFFF AND DUP2 MSTORE PUSH1 0x20 ADD DUP3 PUSH1 0x2 ADD DUP1 SLOAD PUSH2 0x9FA SWAP1 PUSH2 0x163B JUMP JUMPDEST DUP1 PUSH1 0x1F ADD PUSH1 0x20 DUP1 SWAP2 DIV MUL PUSH1 0x20 ADD PUSH1 0x40 MLOAD SWAP1 DUP2 ADD PUSH1 0x40 MSTORE DUP1 SWAP3 SWAP2 SWAP1 DUP2 DUP2 MSTORE PUSH1 0x20 ADD DUP3 DUP1 SLOAD PUSH2 0xA26 SWAP1 PUSH2 0x163B JUMP JUMPDEST DUP1 ISZERO PUSH2 0xA71 JUMPI DUP1 PUSH1 0x1F LT PUSH2 0xA48 JUMPI PUSH2 0x100 DUP1 DUP4 SLOAD DIV MUL DUP4 MSTORE SWAP2 PUSH1 0x20 ADD SWAP2 PUSH2 0xA71 JUMP JUMPDEST DUP3 ADD SWAP2 SWAP1 PUSH0 MSTORE PUSH1 0x20 PUSH0 KECCAK256 SWAP1 JUMPDEST DUP2 SLOAD DUP2 MSTORE SWAP1 PUSH1 0x1 ADD SWAP1 PUSH1 0x20 ADD DUP1 DUP4 GT PUSH2 0xA54 JUMPI DUP3 SWAP1 SUB PUSH1 0x1F AND DUP3 ADD SWAP2 JUMPDEST POP POP POP POP POP DUP2 MSTORE PUSH1 0x20 ADD DUP3 PUSH1 0x3 ADD SLOAD DUP2 MSTORE POP DUP6 DUP5 DUP2 MLOAD DUP2 LT PUSH2 0xA96 JUMPI PUSH2 0xA95 PUSH2 0x1733 JUMP JUMPDEST JUMPDEST PUSH1 0x20 MUL PUSH1 0x20 ADD ADD DUP2 SWAP1 MSTORE POP PUSH1 0x1 DUP4 PUSH2 0xAAE SWAP2 SWAP1 PUSH2 0x1760 JUMP JUMPDEST SWAP3 POP POP DUP1 DUP1 PUSH1 0x1 ADD SWAP2 POP POP PUSH2 0x962 JUMP JUMPDEST POP DUP3 SWAP4 POP POP POP POP SWAP3 SWAP2 POP POP JUMP JUMPDEST PUSH0 PUSH1 0x20 MSTORE DUP1 PUSH0 MSTORE PUSH1 0x40 PUSH0 KECCAK256 PUSH0 SWAP2 POP SWAP1 POP DUP1 PUSH0 ADD SLOAD SWAP1 DUP1 PUSH1 0x1 ADD PUSH0 SWAP1 SLOAD SWAP1 PUSH2 0x100 EXP SWAP1 DIV PUSH20 0xFFFFFFFFFFFFFFFFFFFFFFFFFFFFFFFFFFFFFFFF AND SWAP1 DUP1 PUSH1 0x2 ADD DUP1 SLOAD PUSH2 0xB14 SWAP1 PUSH2 0x163B JUMP JUMPDEST DUP1 PUSH1 0x1F ADD PUSH1 0x20 DUP1 SWAP2 DIV MUL PUSH1 0x20 ADD PUSH1 0x40 MLOAD SWAP1 DUP2 ADD PUSH1 0x40 MSTORE DUP1 SWAP3 SWAP2 SWAP1 DUP2 DUP2 MSTORE PUSH1 0x20 ADD DUP3 DUP1 SLOAD PUSH2 0xB40 SWAP1 PUSH2 0x163B JUMP JUMPDEST DUP1 ISZERO PUSH2 0xB8B JUMPI DUP1 PUSH1 0x1F LT PUSH2 0xB62 JUMPI PUSH2 0x100 DUP1 DUP4 SLOAD DIV MUL DUP4 MSTORE SWAP2 PUSH1 0x20 ADD SWAP2 PUSH2 0xB8B JUMP JUMPDEST DUP3 ADD SWAP2 SWAP1 PUSH0 MSTORE PUSH1 0x20 PUSH0 KECCAK256 SWAP1 JUMPDEST DUP2 SLOAD DUP2 MSTORE SWAP1 PUSH1 0x1 ADD SWAP1 PUSH1 0x20 ADD DUP1 DUP4 GT PUSH2 0xB6E JUMPI DUP3 SWAP1 SUB PUSH1 0x1F AND DUP3 ADD SWAP2 JUMPDEST POP POP POP POP POP SWAP1 DUP1 PUSH1 0x3 ADD SLOAD SWAP1 POP DUP5 JUMP JUMPDEST PUSH2 0xBA5 CALLER DUP3 PUSH2 0xDC5 JUMP JUMPDEST POP JUMP JUMPDEST PUSH1 0x1 PUSH1 0x3 PUSH0 CALLER PUSH20 0xFFFFFFFFFFFFFFFFFFFFFFFFFFFFFFFFFFFFFFFF AND PUSH20 0xFFFFFFFFFFFFFFFFFFFFFFFFFFFFFFFFFFFFFFFF AND DUP2 MSTORE PUSH1 0x20 ADD SWAP1 DUP2 MSTORE PUSH1 0x20 ADD PUSH0 KECCAK256 PUSH0 DUP4 PUSH20 0xFFFFFFFFFFFFFFFFFFFFFFFFFFFFFFFFFFFFFFFF AND PUSH20 0xFFFFFFFFFFFFFFFFFFFFFFFFFFFFFFFFFFFFFFFF AND DUP2 MSTORE PUSH1 0x20 ADD SWAP1 DUP2 MSTORE PUSH1 0x20 ADD PUSH0 KECCAK256 PUSH0 PUSH2 0x100 EXP DUP2 SLOAD DUP2 PUSH1 0xFF MUL NOT AND SWAP1 DUP4 ISZERO ISZERO MUL OR SWAP1 SSTORE POP POP JUMP JUMPDEST PUSH1 0x2 PUSH0 DUP5 PUSH20 0xFFFFFFFFFFFFFFFFFFFFFFFFFFFFFFFFFFFFFFFF AND PUSH20 0xFFFFFFFFFFFFFFFFFFFFFFFFFFFFFFFFFFFFFFFF AND DUP2 MSTORE PUSH1 0x20 ADD SWAP1 DUP2 MSTORE PUSH1 0x20 ADD PUSH0 KECCAK256 PUSH1 0x40 MLOAD DUP1 PUSH1 0xA0 ADD PUSH1 0x40 MSTORE DUP1 PUSH1 0x6 SLOAD DUP2 MSTORE PUSH1 0x20 ADD DUP4 DUP2 MSTORE PUSH1 0x20 ADD DUP6 PUSH20 0xFFFFFFFFFFFFFFFFFFFFFFFFFFFFFFFFFFFFFFFF AND DUP2 MSTORE PUSH1 0x20 ADD DUP5 PUSH20 0xFFFFFFFFFFFFFFFFFFFFFFFFFFFFFFFFFFFFFFFF AND DUP2 MSTORE PUSH1 0x20 ADD TIMESTAMP DUP2 MSTORE POP SWAP1 DUP1 PUSH1 0x1 DUP2 SLOAD ADD DUP1 DUP3 SSTORE DUP1 SWAP2 POP POP PUSH1 0x1 SWAP1 SUB SWAP1 PUSH0 MSTORE PUSH1 0x20 PUSH0 KECCAK256 SWAP1 PUSH1 0x5 MUL ADD PUSH0 SWAP1 SWAP2 SWAP1 SWAP2 SWAP1 SWAP2 POP PUSH0 DUP3 ADD MLOAD DUP2 PUSH0 ADD SSTORE PUSH1 0x20 DUP3 ADD MLOAD DUP2 PUSH1 0x1 ADD SWAP1 DUP2 PUSH2 0xD10 SWAP2 SWAP1 PUSH2 0x199B JUMP JUMPDEST POP PUSH1 0x40 DUP3 ADD MLOAD DUP2 PUSH1 0x2 ADD PUSH0 PUSH2 0x100 EXP DUP2 SLOAD DUP2 PUSH20 0xFFFFFFFFFFFFFFFFFFFFFFFFFFFFFFFFFFFFFFFF MUL NOT AND SWAP1 DUP4 PUSH20 0xFFFFFFFFFFFFFFFFFFFFFFFFFFFFFFFFFFFFFFFF AND MUL OR SWAP1 SSTORE POP PUSH1 0x60 DUP3 ADD MLOAD DUP2 PUSH1 0x3 ADD PUSH0 PUSH2 0x100 EXP DUP2 SLOAD DUP2 PUSH20 0xFFFFFFFFFFFFFFFFFFFFFFFFFFFFFFFFFFFFFFFF MUL NOT AND SWAP1 DUP4 PUSH20 0xFFFFFFFFFFFFFFFFFFFFFFFFFFFFFFFFFFFFFFFF AND MUL OR SWAP1 SSTORE POP PUSH1 0x80 DUP3 ADD MLOAD DUP2 PUSH1 0x4 ADD SSTORE POP POP PUSH1 0x6 PUSH0 DUP2 SLOAD DUP1 SWAP3 SWAP2 SWAP1 PUSH2 0xDBB SWAP1 PUSH2 0x1A6A JUMP JUMPDEST SWAP2 SWAP1 POP SSTORE POP POP POP POP JUMP JUMPDEST PUSH1 0x40 MLOAD DUP1 PUSH1 0x80 ADD PUSH1 0x40 MSTORE DUP1 PUSH1 0x5 SLOAD DUP2 MSTORE PUSH1 0x20 ADD DUP4 PUSH20 0xFFFFFFFFFFFFFFFFFFFFFFFFFFFFFFFFFFFFFFFF AND DUP2 MSTORE PUSH1 0x20 ADD DUP3 DUP2 MSTORE PUSH1 0x20 ADD TIMESTAMP DUP2 MSTORE POP PUSH0 PUSH0 PUSH1 0x5 SLOAD DUP2 MSTORE PUSH1 0x20 ADD SWAP1 DUP2 MSTORE PUSH1 0x20 ADD PUSH0 KECCAK256 PUSH0 DUP3 ADD MLOAD DUP2 PUSH0 ADD SSTORE PUSH1 0x20 DUP3 ADD MLOAD DUP2 PUSH1 0x1 ADD PUSH0 PUSH2 0x100 EXP DUP2 SLOAD DUP2 PUSH20 0xFFFFFFFFFFFFFFFFFFFFFFFFFFFFFFFFFFFFFFFF MUL NOT AND SWAP1 DUP4 PUSH20 0xFFFFFFFFFFFFFFFFFFFFFFFFFFFFFFFFFFFFFFFF AND MUL OR SWAP1 SSTORE POP PUSH1 0x40 DUP3 ADD MLOAD DUP2 PUSH1 0x2 ADD SWAP1 DUP2 PUSH2 0xE73 SWAP2 SWAP1 PUSH2 0x199B JUMP JUMPDEST POP PUSH1 0x60 DUP3 ADD MLOAD DUP2 PUSH1 0x3 ADD SSTORE SWAP1 POP POP PUSH1 0x1 PUSH1 0x5 SLOAD PUSH2 0xE90 SWAP2 SWAP1 PUSH2 0x1760 JUMP JUMPDEST PUSH1 0x5 DUP2 SWAP1 SSTORE POP POP POP JUMP JUMPDEST PUSH1 0x40 MLOAD DUP1 PUSH1 0x80 ADD PUSH1 0x40 MSTORE DUP1 PUSH0 DUP2 MSTORE PUSH1 0x20 ADD PUSH0 PUSH20 0xFFFFFFFFFFFFFFFFFFFFFFFFFFFFFFFFFFFFFFFF AND DUP2 MSTORE PUSH1 0x20 ADD PUSH1 0x60 DUP2 MSTORE PUSH1 0x20 ADD PUSH0 DUP2 MSTORE POP SWAP1 JUMP JUMPDEST PUSH0 PUSH1 0x40 MLOAD SWAP1 POP SWAP1 JUMP JUMPDEST PUSH0 PUSH0 REVERT JUMPDEST PUSH0 PUSH0 REVERT JUMPDEST PUSH0 PUSH20 0xFFFFFFFFFFFFFFFFFFFFFFFFFFFFFFFFFFFFFFFF DUP3 AND SWAP1 POP SWAP2 SWAP1 POP JUMP JUMPDEST PUSH0 PUSH2 0xF0F DUP3 PUSH2 0xEE6 JUMP JUMPDEST SWAP1 POP SWAP2 SWAP1 POP JUMP JUMPDEST PUSH2 0xF1F DUP2 PUSH2 0xF05 JUMP JUMPDEST DUP2 EQ PUSH2 0xF29 JUMPI PUSH0 PUSH0 REVERT JUMPDEST POP JUMP JUMPDEST PUSH0 DUP2 CALLDATALOAD SWAP1 POP PUSH2 0xF3A DUP2 PUSH2 0xF16 JUMP JUMPDEST SWAP3 SWAP2 POP POP JUMP JUMPDEST PUSH0 PUSH0 PUSH1 0x40 DUP4 DUP6 SUB SLT ISZERO PUSH2 0xF56 JUMPI PUSH2 0xF55 PUSH2 0xEDE JUMP JUMPDEST JUMPDEST PUSH0 PUSH2 0xF63 DUP6 DUP3 DUP7 ADD PUSH2 0xF2C JUMP JUMPDEST SWAP3 POP POP PUSH1 0x20 PUSH2 0xF74 DUP6 DUP3 DUP7 ADD PUSH2 0xF2C JUMP JUMPDEST SWAP2 POP POP SWAP3 POP SWAP3 SWAP1 POP JUMP JUMPDEST PUSH0 DUP2 ISZERO ISZERO SWAP1 POP SWAP2 SWAP1 POP JUMP JUMPDEST PUSH2 0xF92 DUP2 PUSH2 0xF7E JUMP JUMPDEST DUP3 MSTORE POP POP JUMP JUMPDEST PUSH0 PUSH1 0x20 DUP3 ADD SWAP1 POP PUSH2 0xFAB PUSH0 DUP4 ADD DUP5 PUSH2 0xF89 JUMP JUMPDEST SWAP3 SWAP2 POP POP JUMP JUMPDEST PUSH0 DUP2 SWAP1 POP SWAP2 SWAP1 POP JUMP JUMPDEST PUSH2 0xFC3 DUP2 PUSH2 0xFB1 JUMP JUMPDEST DUP2 EQ PUSH2 0xFCD JUMPI PUSH0 PUSH0 REVERT JUMPDEST POP JUMP JUMPDEST PUSH0 DUP2 CALLDATALOAD SWAP1 POP PUSH2 0xFDE DUP2 PUSH2 0xFBA JUMP JUMPDEST SWAP3 SWAP2 POP POP JUMP JUMPDEST PUSH0 PUSH0 PUSH1 0x40 DUP4 DUP6 SUB SLT ISZERO PUSH2 0xFFA JUMPI PUSH2 0xFF9 PUSH2 0xEDE JUMP JUMPDEST JUMPDEST PUSH0 PUSH2 0x1007 DUP6 DUP3 DUP7 ADD PUSH2 0xF2C JUMP JUMPDEST SWAP3 POP POP PUSH1 0x20 PUSH2 0x1018 DUP6 DUP3 DUP7 ADD PUSH2 0xFD0 JUMP JUMPDEST SWAP2 POP POP SWAP3 POP SWAP3 SWAP1 POP JUMP JUMPDEST PUSH2 0x102B DUP2 PUSH2 0xFB1 JUMP JUMPDEST DUP3 MSTORE POP POP JUMP JUMPDEST PUSH0 DUP2 MLOAD SWAP1 POP SWAP2 SWAP1 POP JUMP JUMPDEST PUSH0 DUP3 DUP3 MSTORE PUSH1 0x20 DUP3 ADD SWAP1 POP SWAP3 SWAP2 POP POP JUMP JUMPDEST DUP3 DUP2 DUP4 MCOPY PUSH0 DUP4 DUP4 ADD MSTORE POP POP POP JUMP JUMPDEST PUSH0 PUSH1 0x1F NOT PUSH1 0x1F DUP4 ADD AND SWAP1 POP SWAP2 SWAP1 POP JUMP JUMPDEST PUSH0 PUSH2 0x1073 DUP3 PUSH2 0x1031 JUMP JUMPDEST PUSH2 0x107D DUP2 DUP6 PUSH2 0x103B JUMP JUMPDEST SWAP4 POP PUSH2 0x108D DUP2 DUP6 PUSH1 0x20 DUP7 ADD PUSH2 0x104B JUMP JUMPDEST PUSH2 0x1096 DUP2 PUSH2 0x1059 JUMP JUMPDEST DUP5 ADD SWAP2 POP POP SWAP3 SWAP2 POP POP JUMP JUMPDEST PUSH2 0x10AA DUP2 PUSH2 0xF05 JUMP JUMPDEST DUP3 MSTORE POP POP JUMP JUMPDEST PUSH0 PUSH1 0xA0 DUP3 ADD SWAP1 POP PUSH2 0x10C3 PUSH0 DUP4 ADD DUP9 PUSH2 0x1022 JUMP JUMPDEST DUP2 DUP2 SUB PUSH1 0x20 DUP4 ADD MSTORE PUSH2 0x10D5 DUP2 DUP8 PUSH2 0x1069 JUMP JUMPDEST SWAP1 POP PUSH2 0x10E4 PUSH1 0x40 DUP4 ADD DUP7 PUSH2 0x10A1 JUMP JUMPDEST PUSH2 0x10F1 PUSH1 0x60 DUP4 ADD DUP6 PUSH2 0x10A1 JUMP JUMPDEST PUSH2 0x10FE PUSH1 0x80 DUP4 ADD DUP5 PUSH2 0x1022 JUMP JUMPDEST SWAP7 SWAP6 POP POP POP POP POP POP JUMP JUMPDEST PUSH0 PUSH1 0x20 DUP3 DUP5 SUB SLT ISZERO PUSH2 0x111D JUMPI PUSH2 0x111C PUSH2 0xEDE JUMP JUMPDEST JUMPDEST PUSH0 PUSH2 0x112A DUP5 DUP3 DUP6 ADD PUSH2 0xF2C JUMP JUMPDEST SWAP2 POP POP SWAP3 SWAP2 POP POP JUMP JUMPDEST PUSH0 PUSH1 0x20 DUP3 DUP5 SUB SLT ISZERO PUSH2 0x1148 JUMPI PUSH2 0x1147 PUSH2 0xEDE JUMP JUMPDEST JUMPDEST PUSH0 PUSH2 0x1155 DUP5 DUP3 DUP6 ADD PUSH2 0xFD0 JUMP JUMPDEST SWAP2 POP POP SWAP3 SWAP2 POP POP JUMP JUMPDEST PUSH0 DUP2 MLOAD SWAP1 POP SWAP2 SWAP1 POP JUMP JUMPDEST PUSH0 DUP3 DUP3 MSTORE PUSH1 0x20 DUP3 ADD SWAP1 POP SWAP3 SWAP2 POP POP JUMP JUMPDEST PUSH0 DUP2 SWAP1 POP PUSH1 0x20 DUP3 ADD SWAP1 POP SWAP2 SWAP1 POP JUMP JUMPDEST PUSH2 0x1190 DUP2 PUSH2 0xFB1 JUMP JUMPDEST DUP3 MSTORE POP POP JUMP JUMPDEST PUSH2 0x119F DUP2 PUSH2 0xF05 JUMP JUMPDEST DUP3 MSTORE POP POP JUMP JUMPDEST PUSH0 DUP3 DUP3 MSTORE PUSH1 0x20 DUP3 ADD SWAP1 POP SWAP3 SWAP2 POP POP JUMP JUMPDEST PUSH0 PUSH2 0x11BF DUP3 PUSH2 0x1031 JUMP JUMPDEST PUSH2 0x11C9 DUP2 DUP6 PUSH2 0x11A5 JUMP JUMPDEST SWAP4 POP PUSH2 0x11D9 DUP2 DUP6 PUSH1 0x20 DUP7 ADD PUSH2 0x104B JUMP JUMPDEST PUSH2 0x11E2 DUP2 PUSH2 0x1059 JUMP JUMPDEST DUP5 ADD SWAP2 POP POP SWAP3 SWAP2 POP POP JUMP JUMPDEST PUSH0 PUSH1 0x80 DUP4 ADD PUSH0 DUP4 ADD MLOAD PUSH2 0x1202 PUSH0 DUP7 ADD DUP3 PUSH2 0x1187 JUMP JUMPDEST POP PUSH1 0x20 DUP4 ADD MLOAD PUSH2 0x1215 PUSH1 0x20 DUP7 ADD DUP3 PUSH2 0x1196 JUMP JUMPDEST POP PUSH1 0x40 DUP4 ADD MLOAD DUP5 DUP3 SUB PUSH1 0x40 DUP7 ADD MSTORE PUSH2 0x122D DUP3 DUP3 PUSH2 0x11B5 JUMP JUMPDEST SWAP2 POP POP PUSH1 0x60 DUP4 ADD MLOAD PUSH2 0x1242 PUSH1 0x60 DUP7 ADD DUP3 PUSH2 0x1187 JUMP JUMPDEST POP DUP1 SWAP2 POP POP SWAP3 SWAP2 POP POP JUMP JUMPDEST PUSH0 PUSH2 0x1258 DUP4 DUP4 PUSH2 0x11ED JUMP JUMPDEST SWAP1 POP SWAP3 SWAP2 POP POP JUMP JUMPDEST PUSH0 PUSH1 0x20 DUP3 ADD SWAP1 POP SWAP2 SWAP1 POP JUMP JUMPDEST PUSH0 PUSH2 0x1276 DUP3 PUSH2 0x115E JUMP JUMPDEST PUSH2 0x1280 DUP2 DUP6 PUSH2 0x1168 JUMP JUMPDEST SWAP4 POP DUP4 PUSH1 0x20 DUP3 MUL DUP6 ADD PUSH2 0x1292 DUP6 PUSH2 0x1178 JUMP JUMPDEST DUP1 PUSH0 JUMPDEST DUP6 DUP2 LT ISZERO PUSH2 0x12CD JUMPI DUP5 DUP5 SUB DUP10 MSTORE DUP2 MLOAD PUSH2 0x12AE DUP6 DUP3 PUSH2 0x124D JUMP JUMPDEST SWAP5 POP PUSH2 0x12B9 DUP4 PUSH2 0x1260 JUMP JUMPDEST SWAP3 POP PUSH1 0x20 DUP11 ADD SWAP10 POP POP PUSH1 0x1 DUP2 ADD SWAP1 POP PUSH2 0x1295 JUMP JUMPDEST POP DUP3 SWAP8 POP DUP8 SWAP6 POP POP POP POP POP POP SWAP3 SWAP2 POP POP JUMP JUMPDEST PUSH0 PUSH1 0x20 DUP3 ADD SWAP1 POP DUP2 DUP2 SUB PUSH0 DUP4 ADD MSTORE PUSH2 0x12F7 DUP2 DUP5 PUSH2 0x126C JUMP JUMPDEST SWAP1 POP SWAP3 SWAP2 POP POP JUMP JUMPDEST PUSH0 PUSH1 0x20 DUP3 ADD SWAP1 POP PUSH2 0x1312 PUSH0 DUP4 ADD DUP5 PUSH2 0x10A1 JUMP JUMPDEST SWAP3 SWAP2 POP POP JUMP JUMPDEST PUSH0 PUSH1 0x20 DUP3 ADD SWAP1 POP PUSH2 0x132B PUSH0 DUP4 ADD DUP5 PUSH2 0x1022 JUMP JUMPDEST SWAP3 SWAP2 POP POP JUMP JUMPDEST PUSH0 PUSH0 REVERT JUMPDEST PUSH0 PUSH0 REVERT JUMPDEST PUSH32 0x4E487B7100000000000000000000000000000000000000000000000000000000 PUSH0 MSTORE PUSH1 0x41 PUSH1 0x4 MSTORE PUSH1 0x24 PUSH0 REVERT JUMPDEST PUSH2 0x136F DUP3 PUSH2 0x1059 JUMP JUMPDEST DUP2 ADD DUP2 DUP2 LT PUSH8 0xFFFFFFFFFFFFFFFF DUP3 GT OR ISZERO PUSH2 0x138E JUMPI PUSH2 0x138D PUSH2 0x1339 JUMP JUMPDEST JUMPDEST DUP1 PUSH1 0x40 MSTORE POP POP POP JUMP JUMPDEST PUSH0 PUSH2 0x13A0 PUSH2 0xED5 JUMP JUMPDEST SWAP1 POP PUSH2 0x13AC DUP3 DUP3 PUSH2 0x1366 JUMP JUMPDEST SWAP2 SWAP1 POP JUMP JUMPDEST PUSH0 PUSH8 0xFFFFFFFFFFFFFFFF DUP3 GT ISZERO PUSH2 0x13CB JUMPI PUSH2 0x13CA PUSH2 0x1339 JUMP JUMPDEST JUMPDEST PUSH2 0x13D4 DUP3 PUSH2 0x1059 JUMP JUMPDEST SWAP1 POP PUSH1 0x20 DUP2 ADD SWAP1 POP SWAP2 SWAP1 POP JUMP JUMPDEST DUP3 DUP2 DUP4 CALLDATACOPY PUSH0 DUP4 DUP4 ADD MSTORE POP POP POP JUMP JUMPDEST PUSH0 PUSH2 0x1401 PUSH2 0x13FC DUP5 PUSH2 0x13B1 JUMP JUMPDEST PUSH2 0x1397 JUMP JUMPDEST SWAP1 POP DUP3 DUP2 MSTORE PUSH1 0x20 DUP2 ADD DUP5 DUP5 DUP5 ADD GT ISZERO PUSH2 0x141D JUMPI PUSH2 0x141C PUSH2 0x1335 JUMP JUMPDEST JUMPDEST PUSH2 0x1428 DUP5 DUP3 DUP6 PUSH2 0x13E1 JUMP JUMPDEST POP SWAP4 SWAP3 POP POP POP JUMP JUMPDEST PUSH0 DUP3 PUSH1 0x1F DUP4 ADD SLT PUSH2 0x1444 JUMPI PUSH2 0x1443 PUSH2 0x1331 JUMP JUMPDEST JUMPDEST DUP2 CALLDATALOAD PUSH2 0x1454 DUP5 DUP3 PUSH1 0x20 DUP7 ADD PUSH2 0x13EF JUMP JUMPDEST SWAP2 POP POP SWAP3 SWAP2 POP POP JUMP JUMPDEST PUSH0 PUSH0 PUSH0 PUSH1 0x60 DUP5 DUP7 SUB SLT ISZERO PUSH2 0x1474 JUMPI PUSH2 0x1473 PUSH2 0xEDE JUMP JUMPDEST JUMPDEST PUSH0 PUSH2 0x1481 DUP7 DUP3 DUP8 ADD PUSH2 0xF2C JUMP JUMPDEST SWAP4 POP POP PUSH1 0x20 PUSH2 0x1492 DUP7 DUP3 DUP8 ADD PUSH2 0xF2C JUMP JUMPDEST SWAP3 POP POP PUSH1 0x40 DUP5 ADD CALLDATALOAD PUSH8 0xFFFFFFFFFFFFFFFF DUP2 GT ISZERO PUSH2 0x14B3 JUMPI PUSH2 0x14B2 PUSH2 0xEE2 JUMP JUMPDEST JUMPDEST PUSH2 0x14BF DUP7 DUP3 DUP8 ADD PUSH2 0x1430 JUMP JUMPDEST SWAP2 POP POP SWAP3 POP SWAP3 POP SWAP3 JUMP JUMPDEST PUSH0 PUSH0 PUSH1 0x40 DUP4 DUP6 SUB SLT ISZERO PUSH2 0x14DF JUMPI PUSH2 0x14DE PUSH2 0xEDE JUMP JUMPDEST JUMPDEST PUSH0 DUP4 ADD CALLDATALOAD PUSH8 0xFFFFFFFFFFFFFFFF DUP2 GT ISZERO PUSH2 0x14FC JUMPI PUSH2 0x14FB PUSH2 0xEE2 JUMP JUMPDEST JUMPDEST PUSH2 0x1508 DUP6 DUP3 DUP7 ADD PUSH2 0x1430 JUMP JUMPDEST SWAP3 POP POP PUSH1 0x20 PUSH2 0x1519 DUP6 DUP3 DUP7 ADD PUSH2 0xF2C JUMP JUMPDEST SWAP2 POP POP SWAP3 POP SWAP3 SWAP1 POP JUMP JUMPDEST PUSH0 PUSH0 PUSH1 0x40 DUP4 DUP6 SUB SLT ISZERO PUSH2 0x1539 JUMPI PUSH2 0x1538 PUSH2 0xEDE JUMP JUMPDEST JUMPDEST PUSH0 PUSH2 0x1546 DUP6 DUP3 DUP7 ADD PUSH2 0xF2C JUMP JUMPDEST SWAP3 POP POP PUSH1 0x20 DUP4 ADD CALLDATALOAD PUSH8 0xFFFFFFFFFFFFFFFF DUP2 GT ISZERO PUSH2 0x1567 JUMPI PUSH2 0x1566 PUSH2 0xEE2 JUMP JUMPDEST JUMPDEST PUSH2 0x1573 DUP6 DUP3 DUP7 ADD PUSH2 0x1430 JUMP JUMPDEST SWAP2 POP POP SWAP3 POP SWAP3 SWAP1 POP JUMP JUMPDEST PUSH0 PUSH1 0x80 DUP3 ADD SWAP1 POP PUSH2 0x1590 PUSH0 DUP4 ADD DUP8 PUSH2 0x1022 JUMP JUMPDEST PUSH2 0x159D PUSH1 0x20 DUP4 ADD DUP7 PUSH2 0x10A1 JUMP JUMPDEST DUP2 DUP2 SUB PUSH1 0x40 DUP4 ADD MSTORE PUSH2 0x15AF DUP2 DUP6 PUSH2 0x1069 JUMP JUMPDEST SWAP1 POP PUSH2 0x15BE PUSH1 0x60 DUP4 ADD DUP5 PUSH2 0x1022 JUMP JUMPDEST SWAP6 SWAP5 POP POP POP POP POP JUMP JUMPDEST PUSH0 PUSH1 0x20 DUP3 DUP5 SUB SLT ISZERO PUSH2 0x15DC JUMPI PUSH2 0x15DB PUSH2 0xEDE JUMP JUMPDEST JUMPDEST PUSH0 DUP3 ADD CALLDATALOAD PUSH8 0xFFFFFFFFFFFFFFFF DUP2 GT ISZERO PUSH2 0x15F9 JUMPI PUSH2 0x15F8 PUSH2 0xEE2 JUMP JUMPDEST JUMPDEST PUSH2 0x1605 DUP5 DUP3 DUP6 ADD PUSH2 0x1430 JUMP JUMPDEST SWAP2 POP POP SWAP3 SWAP2 POP POP JUMP JUMPDEST PUSH32 0x4E487B7100000000000000000000000000000000000000000000000000000000 PUSH0 MSTORE PUSH1 0x22 PUSH1 0x4 MSTORE PUSH1 0x24 PUSH0 REVERT JUMPDEST PUSH0 PUSH1 0x2 DUP3 DIV SWAP1 POP PUSH1 0x1 DUP3 AND DUP1 PUSH2 0x1652 JUMPI PUSH1 0x7F DUP3 AND SWAP2 POP JUMPDEST PUSH1 0x20 DUP3 LT DUP2 SUB PUSH2 0x1665 JUMPI PUSH2 0x1664 PUSH2 0x160E JUMP JUMPDEST JUMPDEST POP SWAP2 SWAP1 POP JUMP JUMPDEST PUSH32 0x436F756E74206973206E6F742070726F70657200000000000000000000000000 PUSH0 DUP3 ADD MSTORE POP JUMP JUMPDEST PUSH0 PUSH2 0x169F PUSH1 0x13 DUP4 PUSH2 0x103B JUMP JUMPDEST SWAP2 POP PUSH2 0x16AA DUP3 PUSH2 0x166B JUMP JUMPDEST PUSH1 0x20 DUP3 ADD SWAP1 POP SWAP2 SWAP1 POP JUMP JUMPDEST PUSH0 PUSH1 0x20 DUP3 ADD SWAP1 POP DUP2 DUP2 SUB PUSH0 DUP4 ADD MSTORE PUSH2 0x16CC DUP2 PUSH2 0x1693 JUMP JUMPDEST SWAP1 POP SWAP2 SWAP1 POP JUMP JUMPDEST PUSH32 0x4E487B7100000000000000000000000000000000000000000000000000000000 PUSH0 MSTORE PUSH1 0x11 PUSH1 0x4 MSTORE PUSH1 0x24 PUSH0 REVERT JUMPDEST PUSH0 PUSH2 0x170A DUP3 PUSH2 0xFB1 JUMP JUMPDEST SWAP2 POP PUSH2 0x1715 DUP4 PUSH2 0xFB1 JUMP JUMPDEST SWAP3 POP DUP3 DUP3 SUB SWAP1 POP DUP2 DUP2 GT ISZERO PUSH2 0x172D JUMPI PUSH2 0x172C PUSH2 0x16D3 JUMP JUMPDEST JUMPDEST SWAP3 SWAP2 POP POP JUMP JUMPDEST PUSH32 0x4E487B7100000000000000000000000000000000000000000000000000000000 PUSH0 MSTORE PUSH1 0x32 PUSH1 0x4 MSTORE PUSH1 0x24 PUSH0 REVERT JUMPDEST PUSH0 PUSH2 0x176A DUP3 PUSH2 0xFB1 JUMP JUMPDEST SWAP2 POP PUSH2 0x1775 DUP4 PUSH2 0xFB1 JUMP JUMPDEST SWAP3 POP DUP3 DUP3 ADD SWAP1 POP DUP1 DUP3 GT ISZERO PUSH2 0x178D JUMPI PUSH2 0x178C PUSH2 0x16D3 JUMP JUMPDEST JUMPDEST SWAP3 SWAP2 POP POP JUMP JUMPDEST PUSH32 0x636F756E74206973206E6F7420646566696E6564000000000000000000000000 PUSH0 DUP3 ADD MSTORE POP JUMP JUMPDEST PUSH0 PUSH2 0x17C7 PUSH1 0x14 DUP4 PUSH2 0x103B JUMP JUMPDEST SWAP2 POP PUSH2 0x17D2 DUP3 PUSH2 0x1793 JUMP JUMPDEST PUSH1 0x20 DUP3 ADD SWAP1 POP SWAP2 SWAP1 POP JUMP JUMPDEST PUSH0 PUSH1 0x20 DUP3 ADD SWAP1 POP DUP2 DUP2 SUB PUSH0 DUP4 ADD MSTORE PUSH2 0x17F4 DUP2 PUSH2 0x17BB JUMP JUMPDEST SWAP1 POP SWAP2 SWAP1 POP JUMP JUMPDEST PUSH0 DUP2 SWAP1 POP DUP2 PUSH0 MSTORE PUSH1 0x20 PUSH0 KECCAK256 SWAP1 POP SWAP2 SWAP1 POP JUMP JUMPDEST PUSH0 PUSH1 0x20 PUSH1 0x1F DUP4 ADD DIV SWAP1 POP SWAP2 SWAP1 POP JUMP JUMPDEST PUSH0 DUP3 DUP3 SHL SWAP1 POP SWAP3 SWAP2 POP POP JUMP JUMPDEST PUSH0 PUSH1 0x8 DUP4 MUL PUSH2 0x1857 PUSH32 0xFFFFFFFFFFFFFFFFFFFFFFFFFFFFFFFFFFFFFFFFFFFFFFFFFFFFFFFFFFFFFFFF DUP3 PUSH2 0x181C JUMP JUMPDEST PUSH2 0x1861 DUP7 DUP4 PUSH2 0x181C JUMP JUMPDEST SWAP6 POP DUP1 NOT DUP5 AND SWAP4 POP DUP1 DUP7 AND DUP5 OR SWAP3 POP POP POP SWAP4 SWAP3 POP POP POP JUMP JUMPDEST PUSH0 DUP2 SWAP1 POP SWAP2 SWAP1 POP JUMP JUMPDEST PUSH0 PUSH2 0x189C PUSH2 0x1897 PUSH2 0x1892 DUP5 PUSH2 0xFB1 JUMP JUMPDEST PUSH2 0x1879 JUMP JUMPDEST PUSH2 0xFB1 JUMP JUMPDEST SWAP1 POP SWAP2 SWAP1 POP JUMP JUMPDEST PUSH0 DUP2 SWAP1 POP SWAP2 SWAP1 POP JUMP JUMPDEST PUSH2 0x18B5 DUP4 PUSH2 0x1882 JUMP JUMPDEST PUSH2 0x18C9 PUSH2 0x18C1 DUP3 PUSH2 0x18A3 JUMP JUMPDEST DUP5 DUP5 SLOAD PUSH2 0x1828 JUMP JUMPDEST DUP3 SSTORE POP POP POP POP JUMP JUMPDEST PUSH0 PUSH0 SWAP1 POP SWAP1 JUMP JUMPDEST PUSH2 0x18E0 PUSH2 0x18D1 JUMP JUMPDEST PUSH2 0x18EB DUP2 DUP5 DUP5 PUSH2 0x18AC JUMP JUMPDEST POP POP POP JUMP JUMPDEST JUMPDEST DUP2 DUP2 LT ISZERO PUSH2 0x190E JUMPI PUSH2 0x1903 PUSH0 DUP3 PUSH2 0x18D8 JUMP JUMPDEST PUSH1 0x1 DUP2 ADD SWAP1 POP PUSH2 0x18F1 JUMP JUMPDEST POP POP JUMP JUMPDEST PUSH1 0x1F DUP3 GT ISZERO PUSH2 0x1953 JUMPI PUSH2 0x1924 DUP2 PUSH2 0x17FB JUMP JUMPDEST PUSH2 0x192D DUP5 PUSH2 0x180D JUMP JUMPDEST DUP2 ADD PUSH1 0x20 DUP6 LT ISZERO PUSH2 0x193C JUMPI DUP2 SWAP1 POP JUMPDEST PUSH2 0x1950 PUSH2 0x1948 DUP6 PUSH2 0x180D JUMP JUMPDEST DUP4 ADD DUP3 PUSH2 0x18F0 JUMP JUMPDEST POP POP JUMPDEST POP POP POP JUMP JUMPDEST PUSH0 DUP3 DUP3 SHR SWAP1 POP SWAP3 SWAP2 POP POP JUMP JUMPDEST PUSH0 PUSH2 0x1973 PUSH0 NOT DUP5 PUSH1 0x8 MUL PUSH2 0x1958 JUMP JUMPDEST NOT DUP1 DUP4 AND SWAP2 POP POP SWAP3 SWAP2 POP POP JUMP JUMPDEST PUSH0 PUSH2 0x198B DUP4 DUP4 PUSH2 0x1964 JUMP JUMPDEST SWAP2 POP DUP3 PUSH1 0x2 MUL DUP3 OR SWAP1 POP SWAP3 SWAP2 POP POP JUMP JUMPDEST PUSH2 0x19A4 DUP3 PUSH2 0x1031 JUMP JUMPDEST PUSH8 0xFFFFFFFFFFFFFFFF DUP2 GT ISZERO PUSH2 0x19BD JUMPI PUSH2 0x19BC PUSH2 0x1339 JUMP JUMPDEST JUMPDEST PUSH2 0x19C7 DUP3 SLOAD PUSH2 0x163B JUMP JUMPDEST PUSH2 0x19D2 DUP3 DUP3 DUP6 PUSH2 0x1912 JUMP JUMPDEST PUSH0 PUSH1 0x20 SWAP1 POP PUSH1 0x1F DUP4 GT PUSH1 0x1 DUP2 EQ PUSH2 0x1A03 JUMPI PUSH0 DUP5 ISZERO PUSH2 0x19F1 JUMPI DUP3 DUP8 ADD MLOAD SWAP1 POP JUMPDEST PUSH2 0x19FB DUP6 DUP3 PUSH2 0x1980 JUMP JUMPDEST DUP7 SSTORE POP PUSH2 0x1A62 JUMP JUMPDEST PUSH1 0x1F NOT DUP5 AND PUSH2 0x1A11 DUP7 PUSH2 0x17FB JUMP JUMPDEST PUSH0 JUMPDEST DUP3 DUP2 LT ISZERO PUSH2 0x1A38 JUMPI DUP5 DUP10 ADD MLOAD DUP3 SSTORE PUSH1 0x1 DUP3 ADD SWAP2 POP PUSH1 0x20 DUP6 ADD SWAP5 POP PUSH1 0x20 DUP2 ADD SWAP1 POP PUSH2 0x1A13 JUMP JUMPDEST DUP7 DUP4 LT ISZERO PUSH2 0x1A55 JUMPI DUP5 DUP10 ADD MLOAD PUSH2 0x1A51 PUSH1 0x1F DUP10 AND DUP3 PUSH2 0x1964 JUMP JUMPDEST DUP4 SSTORE POP JUMPDEST PUSH1 0x1 PUSH1 0x2 DUP9 MUL ADD DUP9 SSTORE POP POP POP JUMPDEST POP POP POP POP POP POP JUMP JUMPDEST PUSH0 PUSH2 0x1A74 DUP3 PUSH2 0xFB1 JUMP JUMPDEST SWAP2 POP PUSH32 0xFFFFFFFFFFFFFFFFFFFFFFFFFFFFFFFFFFFFFFFFFFFFFFFFFFFFFFFFFFFFFFFF DUP3 SUB PUSH2 0x1AA6 JUMPI PUSH2 0x1AA5 PUSH2 0x16D3 JUMP JUMPDEST JUMPDEST PUSH1 0x1 DUP3 ADD SWAP1 POP SWAP2 SWAP1 POP JUMP INVALID LOG2 PUSH5 0x6970667358 0x22 SLT KECCAK256 EXTDELEGATECALL 0xB5 GAS LOG3 BALANCE 0xB5 0xA6 0x1F 0x24 0x4C LOG1 TSTORE PUSH24 0x531803E8EAA6B4686BA87B441CA233302EE69F64736F6C63 NUMBER STOP ADDMOD 0x1E STOP CALLER "
				},
				"gasEstimates": {
					"creation": {
						"codeDepositCost": "1377400",
						"executionCost": "1436",
						"totalCost": "1378836"
					},
					"external": {
						"allow(address)": "24978",
						"conversations(address,uint256)": "infinite",
						"disallow(address)": "24956",
						"follow(address)": "49180",
						"following(address,uint256)": "infinite",
						"getLatestToUser(address,uint256)": "infinite",
						"getLatestTweets(uint256)": "infinite",
						"operators(address,address)": "infinite",
						"sendMessage(address,address,string)": "infinite",
						"sendMessage(string,address)": "infinite",
						"tweet(address,string)": "infinite",
						"tweet(string)": "infinite",
						"tweets(uint256)": "infinite",
						"tweetsOf(address,uint256)": "infinite"
					},
					"internal": {
						"_sendMessage(address,address,string memory)": "infinite",
						"_tweet(address,string memory)": "infinite"
					}
				},
				"methodIdentifiers": {
					"allow(address)": "ff9913e8",
					"conversations(address,uint256)": "3befea09",
					"disallow(address)": "a9ed9cb8",
					"follow(address)": "4dbf27cc",
					"following(address,uint256)": "9139cda5",
					"getLatestToUser(address,uint256)": "d3ee001d",
					"getLatestTweets(uint256)": "4dc0a687",
					"operators(address,address)": "2637588e",
					"sendMessage(address,address,string)": "b88e318d",
					"sendMessage(string,address)": "c48d6d5e",
					"tweet(address,string)": "d21d1596",
					"tweet(string)": "fb46d4c5",
					"tweets(uint256)": "e8d857b0",
					"tweetsOf(address,uint256)": "af22bf94"
				}
			},
			"storageLayout": {
				"storage": [
					{
						"astId": 26,
						"contract": "contracts/projects/tweeter-smart-contract.sol:Tweetcontract",
						"label": "tweets",
						"offset": 0,
						"slot": "0",
						"type": "t_mapping(t_uint256,t_struct(Tweet)10_storage)"
					},
					{
						"astId": 31,
						"contract": "contracts/projects/tweeter-smart-contract.sol:Tweetcontract",
						"label": "tweetsOf",
						"offset": 0,
						"slot": "1",
						"type": "t_mapping(t_address,t_array(t_uint256)dyn_storage)"
					},
					{
						"astId": 37,
						"contract": "contracts/projects/tweeter-smart-contract.sol:Tweetcontract",
						"label": "conversations",
						"offset": 0,
						"slot": "2",
						"type": "t_mapping(t_address,t_array(t_struct(Message)21_storage)dyn_storage)"
					},
					{
						"astId": 43,
						"contract": "contracts/projects/tweeter-smart-contract.sol:Tweetcontract",
						"label": "operators",
						"offset": 0,
						"slot": "3",
						"type": "t_mapping(t_address,t_mapping(t_address,t_bool))"
					},
					{
						"astId": 48,
						"contract": "contracts/projects/tweeter-smart-contract.sol:Tweetcontract",
						"label": "following",
						"offset": 0,
						"slot": "4",
						"type": "t_mapping(t_address,t_array(t_address)dyn_storage)"
					},
					{
						"astId": 50,
						"contract": "contracts/projects/tweeter-smart-contract.sol:Tweetcontract",
						"label": "nextId",
						"offset": 0,
						"slot": "5",
						"type": "t_uint256"
					},
					{
						"astId": 52,
						"contract": "contracts/projects/tweeter-smart-contract.sol:Tweetcontract",
						"label": "nextMessageId",
						"offset": 0,
						"slot": "6",
						"type": "t_uint256"
					}
				],
				"types": {
					"t_address": {
						"encoding": "inplace",
						"label": "address",
						"numberOfBytes": "20"
					},
					"t_array(t_address)dyn_storage": {
						"base": "t_address",
						"encoding": "dynamic_array",
						"label": "address[]",
						"numberOfBytes": "32"
					},
					"t_array(t_struct(Message)21_storage)dyn_storage": {
						"base": "t_struct(Message)21_storage",
						"encoding": "dynamic_array",
						"label": "struct Tweetcontract.Message[]",
						"numberOfBytes": "32"
					},
					"t_array(t_uint256)dyn_storage": {
						"base": "t_uint256",
						"encoding": "dynamic_array",
						"label": "uint256[]",
						"numberOfBytes": "32"
					},
					"t_bool": {
						"encoding": "inplace",
						"label": "bool",
						"numberOfBytes": "1"
					},
					"t_mapping(t_address,t_array(t_address)dyn_storage)": {
						"encoding": "mapping",
						"key": "t_address",
						"label": "mapping(address => address[])",
						"numberOfBytes": "32",
						"value": "t_array(t_address)dyn_storage"
					},
					"t_mapping(t_address,t_array(t_struct(Message)21_storage)dyn_storage)": {
						"encoding": "mapping",
						"key": "t_address",
						"label": "mapping(address => struct Tweetcontract.Message[])",
						"numberOfBytes": "32",
						"value": "t_array(t_struct(Message)21_storage)dyn_storage"
					},
					"t_mapping(t_address,t_array(t_uint256)dyn_storage)": {
						"encoding": "mapping",
						"key": "t_address",
						"label": "mapping(address => uint256[])",
						"numberOfBytes": "32",
						"value": "t_array(t_uint256)dyn_storage"
					},
					"t_mapping(t_address,t_bool)": {
						"encoding": "mapping",
						"key": "t_address",
						"label": "mapping(address => bool)",
						"numberOfBytes": "32",
						"value": "t_bool"
					},
					"t_mapping(t_address,t_mapping(t_address,t_bool))": {
						"encoding": "mapping",
						"key": "t_address",
						"label": "mapping(address => mapping(address => bool))",
						"numberOfBytes": "32",
						"value": "t_mapping(t_address,t_bool)"
					},
					"t_mapping(t_uint256,t_struct(Tweet)10_storage)": {
						"encoding": "mapping",
						"key": "t_uint256",
						"label": "mapping(uint256 => struct Tweetcontract.Tweet)",
						"numberOfBytes": "32",
						"value": "t_struct(Tweet)10_storage"
					},
					"t_string_storage": {
						"encoding": "bytes",
						"label": "string",
						"numberOfBytes": "32"
					},
					"t_struct(Message)21_storage": {
						"encoding": "inplace",
						"label": "struct Tweetcontract.Message",
						"members": [
							{
								"astId": 12,
								"contract": "contracts/projects/tweeter-smart-contract.sol:Tweetcontract",
								"label": "id",
								"offset": 0,
								"slot": "0",
								"type": "t_uint256"
							},
							{
								"astId": 14,
								"contract": "contracts/projects/tweeter-smart-contract.sol:Tweetcontract",
								"label": "content",
								"offset": 0,
								"slot": "1",
								"type": "t_string_storage"
							},
							{
								"astId": 16,
								"contract": "contracts/projects/tweeter-smart-contract.sol:Tweetcontract",
								"label": "from",
								"offset": 0,
								"slot": "2",
								"type": "t_address"
							},
							{
								"astId": 18,
								"contract": "contracts/projects/tweeter-smart-contract.sol:Tweetcontract",
								"label": "to",
								"offset": 0,
								"slot": "3",
								"type": "t_address"
							},
							{
								"astId": 20,
								"contract": "contracts/projects/tweeter-smart-contract.sol:Tweetcontract",
								"label": "createdAt",
								"offset": 0,
								"slot": "4",
								"type": "t_uint256"
							}
						],
						"numberOfBytes": "160"
					},
					"t_struct(Tweet)10_storage": {
						"encoding": "inplace",
						"label": "struct Tweetcontract.Tweet",
						"members": [
							{
								"astId": 3,
								"contract": "contracts/projects/tweeter-smart-contract.sol:Tweetcontract",
								"label": "id",
								"offset": 0,
								"slot": "0",
								"type": "t_uint256"
							},
							{
								"astId": 5,
								"contract": "contracts/projects/tweeter-smart-contract.sol:Tweetcontract",
								"label": "author",
								"offset": 0,
								"slot": "1",
								"type": "t_address"
							},
							{
								"astId": 7,
								"contract": "contracts/projects/tweeter-smart-contract.sol:Tweetcontract",
								"label": "content",
								"offset": 0,
								"slot": "2",
								"type": "t_string_storage"
							},
							{
								"astId": 9,
								"contract": "contracts/projects/tweeter-smart-contract.sol:Tweetcontract",
								"label": "createdAt",
								"offset": 0,
								"slot": "3",
								"type": "t_uint256"
							}
						],
						"numberOfBytes": "128"
					},
					"t_uint256": {
						"encoding": "inplace",
						"label": "uint256",
						"numberOfBytes": "32"
					}
				}
			},
			"userdoc": {
				"kind": "user",
				"methods": {},
				"version": 1
			}
		}
	}
}